{"contracts/mint.sol":{"BallSonic":{"abi":[{"inputs":[],"stateMutability":"nonpayable","type":"constructor"},{"anonymous":false,"inputs":[{"indexed":true,"internalType":"address","name":"owner","type":"address"},{"indexed":true,"internalType":"address","name":"approved","type":"address"},{"indexed":true,"internalType":"uint256","name":"tokenId","type":"uint256"}],"name":"Approval","type":"event"},{"anonymous":false,"inputs":[{"indexed":true,"internalType":"address","name":"owner","type":"address"},{"indexed":true,"internalType":"address","name":"operator","type":"address"},{"indexed":false,"internalType":"bool","name":"approved","type":"bool"}],"name":"ApprovalForAll","type":"event"},{"anonymous":false,"inputs":[{"indexed":true,"internalType":"address","name":"previousOwner","type":"address"},{"indexed":true,"internalType":"address","name":"newOwner","type":"address"}],"name":"OwnershipTransferred","type":"event"},{"anonymous":false,"inputs":[{"indexed":true,"internalType":"address","name":"from","type":"address"},{"indexed":true,"internalType":"address","name":"to","type":"address"},{"indexed":true,"internalType":"uint256","name":"tokenId","type":"uint256"}],"name":"Transfer","type":"event"},{"inputs":[{"internalType":"address","name":"to","type":"address"},{"internalType":"uint256","name":"tokenId","type":"uint256"}],"name":"approve","outputs":[],"stateMutability":"nonpayable","type":"function"},{"inputs":[{"internalType":"address","name":"owner","type":"address"}],"name":"balanceOf","outputs":[{"internalType":"uint256","name":"","type":"uint256"}],"stateMutability":"view","type":"function"},{"inputs":[],"name":"baseURI","outputs":[{"internalType":"string","name":"","type":"string"}],"stateMutability":"view","type":"function"},{"inputs":[{"internalType":"uint256","name":"_tokenId","type":"uint256"}],"name":"burn","outputs":[],"stateMutability":"nonpayable","type":"function"},{"inputs":[{"internalType":"uint256","name":"","type":"uint256"}],"name":"category","outputs":[{"internalType":"uint256","name":"","type":"uint256"}],"stateMutability":"view","type":"function"},{"inputs":[{"internalType":"uint256","name":"","type":"uint256"}],"name":"currentAccuracyLvl","outputs":[{"internalType":"uint256","name":"","type":"uint256"}],"stateMutability":"view","type":"function"},{"inputs":[{"internalType":"uint256","name":"","type":"uint256"}],"name":"currentPowerLvl","outputs":[{"internalType":"uint256","name":"","type":"uint256"}],"stateMutability":"view","type":"function"},{"inputs":[{"internalType":"uint256","name":"","type":"uint256"}],"name":"currentSpinLvl","outputs":[{"internalType":"uint256","name":"","type":"uint256"}],"stateMutability":"view","type":"function"},{"inputs":[{"internalType":"uint256","name":"","type":"uint256"}],"name":"currentTimeLvl","outputs":[{"internalType":"uint256","name":"","type":"uint256"}],"stateMutability":"view","type":"function"},{"inputs":[{"internalType":"uint256","name":"tokenId","type":"uint256"}],"name":"getApproved","outputs":[{"internalType":"address","name":"","type":"address"}],"stateMutability":"view","type":"function"},{"inputs":[],"name":"imageBaseURI","outputs":[{"internalType":"string","name":"","type":"string"}],"stateMutability":"view","type":"function"},{"inputs":[{"internalType":"address","name":"owner","type":"address"},{"internalType":"address","name":"operator","type":"address"}],"name":"isApprovedForAll","outputs":[{"internalType":"bool","name":"","type":"bool"}],"stateMutability":"view","type":"function"},{"inputs":[{"internalType":"uint256","name":"","type":"uint256"}],"name":"maxAccuracyLvl","outputs":[{"internalType":"uint256","name":"","type":"uint256"}],"stateMutability":"view","type":"function"},{"inputs":[{"internalType":"uint256","name":"","type":"uint256"}],"name":"maxPowerLvl","outputs":[{"internalType":"uint256","name":"","type":"uint256"}],"stateMutability":"view","type":"function"},{"inputs":[{"internalType":"uint256","name":"","type":"uint256"}],"name":"maxSpinLvl","outputs":[{"internalType":"uint256","name":"","type":"uint256"}],"stateMutability":"view","type":"function"},{"inputs":[{"internalType":"uint256","name":"","type":"uint256"}],"name":"maxTimeLvl","outputs":[{"internalType":"uint256","name":"","type":"uint256"}],"stateMutability":"view","type":"function"},{"inputs":[],"name":"mint","outputs":[],"stateMutability":"payable","type":"function"},{"inputs":[],"name":"mintType","outputs":[{"internalType":"string","name":"","type":"string"}],"stateMutability":"view","type":"function"},{"inputs":[],"name":"name","outputs":[{"internalType":"string","name":"","type":"string"}],"stateMutability":"view","type":"function"},{"inputs":[],"name":"owner","outputs":[{"internalType":"address","name":"","type":"address"}],"stateMutability":"view","type":"function"},{"inputs":[{"internalType":"uint256","name":"tokenId","type":"uint256"}],"name":"ownerOf","outputs":[{"internalType":"address","name":"","type":"address"}],"stateMutability":"view","type":"function"},{"inputs":[],"name":"ownerWithdraw","outputs":[],"stateMutability":"nonpayable","type":"function"},{"inputs":[],"name":"renounceOwnership","outputs":[],"stateMutability":"nonpayable","type":"function"},{"inputs":[{"internalType":"address","name":"from","type":"address"},{"internalType":"address","name":"to","type":"address"},{"internalType":"uint256","name":"tokenId","type":"uint256"}],"name":"safeTransferFrom","outputs":[],"stateMutability":"nonpayable","type":"function"},{"inputs":[{"internalType":"address","name":"from","type":"address"},{"internalType":"address","name":"to","type":"address"},{"internalType":"uint256","name":"tokenId","type":"uint256"},{"internalType":"bytes","name":"data","type":"bytes"}],"name":"safeTransferFrom","outputs":[],"stateMutability":"nonpayable","type":"function"},{"inputs":[{"internalType":"address","name":"operator","type":"address"},{"internalType":"bool","name":"approved","type":"bool"}],"name":"setApprovalForAll","outputs":[],"stateMutability":"nonpayable","type":"function"},{"inputs":[{"internalType":"string","name":"_imageBaseURI","type":"string"}],"name":"setImageBaseUri","outputs":[],"stateMutability":"nonpayable","type":"function"},{"inputs":[{"internalType":"bytes4","name":"interfaceId","type":"bytes4"}],"name":"supportsInterface","outputs":[{"internalType":"bool","name":"","type":"bool"}],"stateMutability":"view","type":"function"},{"inputs":[],"name":"symbol","outputs":[{"internalType":"string","name":"","type":"string"}],"stateMutability":"view","type":"function"},{"inputs":[],"name":"tokenCount","outputs":[{"internalType":"uint256","name":"","type":"uint256"}],"stateMutability":"view","type":"function"},{"inputs":[{"internalType":"uint256","name":"","type":"uint256"}],"name":"tokenIdType","outputs":[{"internalType":"uint256","name":"","type":"uint256"}],"stateMutability":"view","type":"function"},{"inputs":[{"internalType":"uint256","name":"tokenId","type":"uint256"}],"name":"tokenURI","outputs":[{"internalType":"string","name":"","type":"string"}],"stateMutability":"view","type":"function"},{"inputs":[{"internalType":"address","name":"_from","type":"address"},{"internalType":"address","name":"_to","type":"address"},{"internalType":"uint256","name":"_tokenId","type":"uint256"}],"name":"transfer","outputs":[],"stateMutability":"nonpayable","type":"function"},{"inputs":[{"internalType":"address","name":"from","type":"address"},{"internalType":"address","name":"to","type":"address"},{"internalType":"uint256","name":"tokenId","type":"uint256"}],"name":"transferFrom","outputs":[],"stateMutability":"nonpayable","type":"function"},{"inputs":[{"internalType":"address","name":"newOwner","type":"address"}],"name":"transferOwnership","outputs":[],"stateMutability":"nonpayable","type":"function"},{"inputs":[{"internalType":"uint256","name":"_tokenId","type":"uint256"},{"internalType":"uint256","name":"_upgradePowerLvl","type":"uint256"},{"internalType":"uint256","name":"_upgradeAccuracyLvl","type":"uint256"},{"internalType":"uint256","name":"_upgradeSpinLvl","type":"uint256"},{"internalType":"uint256","name":"_upgradeTimeLvl","type":"uint256"}],"name":"upgrade","outputs":[],"stateMutability":"nonpayable","type":"function"},{"inputs":[{"internalType":"address","name":"","type":"address"},{"internalType":"uint256","name":"","type":"uint256"}],"name":"userTokenIds","outputs":[{"internalType":"uint256","name":"","type":"uint256"}],"stateMutability":"view","type":"function"}],"evm":{"bytecode":{"linkReferences":{},"object":"60806040523480156200001157600080fd5b506040518060400160405280600981526020017f42616c6c536f6e696300000000000000000000000000000000000000000000008152506040518060400160405280600381526020017f424153000000000000000000000000000000000000000000000000000000000081525081600090805190602001906200009692919062000167565b508060019080519060200190620000af92919062000167565b505050620000c26200015f60201b60201c565b600760006101000a81548173ffffffffffffffffffffffffffffffffffffffff021916908373ffffffffffffffffffffffffffffffffffffffff1602179055506103e86009819055506040518060400160405280600981526020017f42616c6c536f6e69630000000000000000000000000000000000000000000000815250600d90805190602001906200015892919062000167565b506200027c565b600033905090565b828054620001759062000246565b90600052602060002090601f016020900481019282620001995760008555620001e5565b82601f10620001b457805160ff1916838001178555620001e5565b82800160010185558215620001e5579182015b82811115620001e4578251825591602001919060010190620001c7565b5b509050620001f49190620001f8565b5090565b5b8082111562000213576000816000905550600101620001f9565b5090565b7f4e487b7100000000000000000000000000000000000000000000000000000000600052602260045260246000fd5b600060028204905060018216806200025f57607f821691505b6020821081141562000276576200027562000217565b5b50919050565b61552d806200028c6000396000f3fe60806040526004361061021a5760003560e01c806370a0823111610123578063a22cb465116100ab578063c9083cd91161006f578063c9083cd914610822578063cc17e15d1461085f578063d55cae271461089c578063e985e9c5146108c5578063f2fde38b146109025761021a565b8063a22cb4651461072d578063b49f7e2d14610756578063b88d4fde14610793578063beabacc8146107bc578063c87b56dd146107e55761021a565b80638cc04784116100f25780638cc04784146106445780638da5cb5b1461068157806395d89b41146106ac57806396286f9a146106d75780639f181b5e146107025761021a565b806370a0823114610588578063715018a6146105c557806377645839146105dc57806381a4b116146106075761021a565b806339b92bbb116101a65780634fffbe0e116101755780634fffbe0e1461046957806352a3302b146104a65780636352211e146104e35780636c0360eb146105205780636f2829ba1461054b5761021a565b806339b92bbb146103d757806342842e0e1461040057806342966c68146104295780634311de8f146104525761021a565b80631249c58b116101ed5780631249c58b146102ed57806322ea00f9146102f757806323b872dd14610334578063253eca1f1461035d5780632603f2871461039a5761021a565b806301ffc9a71461021f57806306fdde031461025c578063081812fc14610287578063095ea7b3146102c4575b600080fd5b34801561022b57600080fd5b5061024660048036038101906102419190613729565b61092b565b6040516102539190613771565b60405180910390f35b34801561026857600080fd5b50610271610a0d565b60405161027e9190613825565b60405180910390f35b34801561029357600080fd5b506102ae60048036038101906102a9919061387d565b610a9f565b6040516102bb91906138eb565b60405180910390f35b3480156102d057600080fd5b506102eb60048036038101906102e69190613932565b610ae5565b005b6102f5610bfd565b005b34801561030357600080fd5b5061031e6004803603810190610319919061387d565b610fa9565b60405161032b9190613981565b60405180910390f35b34801561034057600080fd5b5061035b6004803603810190610356919061399c565b610fc1565b005b34801561036957600080fd5b50610384600480360381019061037f919061387d565b611021565b6040516103919190613981565b60405180910390f35b3480156103a657600080fd5b506103c160048036038101906103bc919061387d565b611039565b6040516103ce9190613981565b60405180910390f35b3480156103e357600080fd5b506103fe60048036038101906103f99190613b24565b611051565b005b34801561040c57600080fd5b506104276004803603810190610422919061399c565b611073565b005b34801561043557600080fd5b50610450600480360381019061044b919061387d565b611093565b005b34801561045e57600080fd5b50610467611115565b005b34801561047557600080fd5b50610490600480360381019061048b919061387d565b6111d2565b60405161049d9190613981565b60405180910390f35b3480156104b257600080fd5b506104cd60048036038101906104c8919061387d565b6111ea565b6040516104da9190613981565b60405180910390f35b3480156104ef57600080fd5b5061050a6004803603810190610505919061387d565b611202565b60405161051791906138eb565b60405180910390f35b34801561052c57600080fd5b506105356112b4565b6040516105429190613825565b60405180910390f35b34801561055757600080fd5b50610572600480360381019061056d919061387d565b611342565b60405161057f9190613981565b60405180910390f35b34801561059457600080fd5b506105af60048036038101906105aa9190613b6d565b61135a565b6040516105bc9190613981565b60405180910390f35b3480156105d157600080fd5b506105da611412565b005b3480156105e857600080fd5b506105f1611426565b6040516105fe9190613825565b60405180910390f35b34801561061357600080fd5b5061062e6004803603810190610629919061387d565b6114b4565b60405161063b9190613981565b60405180910390f35b34801561065057600080fd5b5061066b6004803603810190610666919061387d565b6114cc565b6040516106789190613981565b60405180910390f35b34801561068d57600080fd5b506106966114e4565b6040516106a391906138eb565b60405180910390f35b3480156106b857600080fd5b506106c161150e565b6040516106ce9190613825565b60405180910390f35b3480156106e357600080fd5b506106ec6115a0565b6040516106f99190613825565b60405180910390f35b34801561070e57600080fd5b5061071761162e565b6040516107249190613981565b60405180910390f35b34801561073957600080fd5b50610754600480360381019061074f9190613bc6565b611634565b005b34801561076257600080fd5b5061077d6004803603810190610778919061387d565b61164a565b60405161078a9190613981565b60405180910390f35b34801561079f57600080fd5b506107ba60048036038101906107b59190613ca7565b611662565b005b3480156107c857600080fd5b506107e360048036038101906107de919061399c565b6116c4565b005b3480156107f157600080fd5b5061080c6004803603810190610807919061387d565b611742565b6040516108199190613825565b60405180910390f35b34801561082e57600080fd5b506108496004803603810190610844919061387d565b611855565b6040516108569190613981565b60405180910390f35b34801561086b57600080fd5b5061088660048036038101906108819190613932565b61186d565b6040516108939190613981565b60405180910390f35b3480156108a857600080fd5b506108c360048036038101906108be9190613d2a565b61189e565b005b3480156108d157600080fd5b506108ec60048036038101906108e79190613da5565b61194e565b6040516108f99190613771565b60405180910390f35b34801561090e57600080fd5b5061092960048036038101906109249190613b6d565b6119e2565b005b60007f80ac58cd000000000000000000000000000000000000000000000000000000007bffffffffffffffffffffffffffffffffffffffffffffffffffffffff1916827bffffffffffffffffffffffffffffffffffffffffffffffffffffffff191614806109f657507f5b5e139f000000000000000000000000000000000000000000000000000000007bffffffffffffffffffffffffffffffffffffffffffffffffffffffff1916827bffffffffffffffffffffffffffffffffffffffffffffffffffffffff1916145b80610a065750610a0582611a66565b5b9050919050565b606060008054610a1c90613e14565b80601f0160208091040260200160405190810160405280929190818152602001828054610a4890613e14565b8015610a955780601f10610a6a57610100808354040283529160200191610a95565b820191906000526020600020905b815481529060010190602001808311610a7857829003601f168201915b5050505050905090565b6000610aaa82611ad0565b6004600083815260200190815260200160002060009054906101000a900473ffffffffffffffffffffffffffffffffffffffff169050919050565b6000610af082611202565b90508073ffffffffffffffffffffffffffffffffffffffff168373ffffffffffffffffffffffffffffffffffffffff161415610b61576040517f08c379a0000000000000000000000000000000000000000000000000000000008152600401610b5890613eb8565b60405180910390fd5b8073ffffffffffffffffffffffffffffffffffffffff16610b80611b1b565b73ffffffffffffffffffffffffffffffffffffffff161480610baf5750610bae81610ba9611b1b565b61194e565b5b610bee576040517f08c379a0000000000000000000000000000000000000000000000000000000008152600401610be590613f4a565b60405180910390fd5b610bf88383611b23565b505050565b600060095411610c0c57600080fd5b670de0b6b3a7640000341015610c2157600080fd5b60006009544233600a54604051602001610c3d93929190613fd3565b6040516020818303038152906040528051906020012060001c610c60919061403f565b9050600a6000815480929190610c759061409f565b919050555060008060005b6103e8811015610d3957600015156022600083815260200190815260200160002060009054906101000a900460ff1615151415610d265783831415610d1757600181610ccc91906140e8565b915060016022600084815260200190815260200160002060006101000a81548160ff02191690831515021790555060096000815480929190610d0d9061413e565b9190505550610d39565b8280610d229061409f565b9350505b8080610d319061409f565b915050610c80565b50602160003373ffffffffffffffffffffffffffffffffffffffff1673ffffffffffffffffffffffffffffffffffffffff168152602001908152602001600020819080600181540180825580915050600190039060005260206000200160009091909190915055610daa3382611bdc565b60018110158015610dbd57506101f48111155b15610ddc57600160236000838152602001908152602001600020819055505b6101f58110158015610df057506102bc8111155b15610e0f57600260236000838152602001908152602001600020819055505b6102bd8110158015610e2357506103528111155b15610e4257600360236000838152602001908152602001600020819055505b6103538110158015610e5657506103b68111155b15610e7557600460236000838152602001908152602001600020819055505b6103b78110158015610e8957506103e88111155b15610ea857600560236000838152602001908152602001600020819055505b6023600082815260200190815260200160002054600e6000838152602001908152602001600020819055506001600f60008381526020019081526020016000208190555060016010600083815260200190815260200160002081905550600160116000838152602001908152602001600020819055506001601260008381526020019081526020016000208190555060056013600083815260200190815260200160002081905550600560146000838152602001908152602001600020819055506005601560008381526020019081526020016000208190555060056016600083815260200190815260200160002081905550610fa481611bfa565b505050565b60106020528060005260406000206000915090505481565b610fd2610fcc611b1b565b82611f7a565b611011576040517f08c379a0000000000000000000000000000000000000000000000000000000008152600401611008906141da565b60405180910390fd5b61101c83838361200f565b505050565b600e6020528060005260406000206000915090505481565b60126020528060005260406000206000915090505481565b611059612276565b80600c908051906020019061106f9291906135da565b5050565b61108e83838360405180602001604052806000815250611662565b505050565b61109c81611202565b73ffffffffffffffffffffffffffffffffffffffff163373ffffffffffffffffffffffffffffffffffffffff1614611109576040517f08c379a00000000000000000000000000000000000000000000000000000000081526004016111009061426c565b60405180910390fd5b6111128161236e565b50565b61111d612276565b600033905060008173ffffffffffffffffffffffffffffffffffffffff1647604051611148906142bd565b60006040518083038185875af1925050503d8060008114611185576040519150601f19603f3d011682016040523d82523d6000602084013e61118a565b606091505b50509050806111ce576040517f08c379a00000000000000000000000000000000000000000000000000000000081526004016111c59061431e565b60405180910390fd5b5050565b60146020528060005260406000206000915090505481565b600f6020528060005260406000206000915090505481565b6000806002600084815260200190815260200160002060009054906101000a900473ffffffffffffffffffffffffffffffffffffffff169050600073ffffffffffffffffffffffffffffffffffffffff168173ffffffffffffffffffffffffffffffffffffffff1614156112ab576040517f08c379a00000000000000000000000000000000000000000000000000000000081526004016112a29061438a565b60405180910390fd5b80915050919050565b600b80546112c190613e14565b80601f01602080910402602001604051908101604052809291908181526020018280546112ed90613e14565b801561133a5780601f1061130f5761010080835404028352916020019161133a565b820191906000526020600020905b81548152906001019060200180831161131d57829003601f168201915b505050505081565b60236020528060005260406000206000915090505481565b60008073ffffffffffffffffffffffffffffffffffffffff168273ffffffffffffffffffffffffffffffffffffffff1614156113cb576040517f08c379a00000000000000000000000000000000000000000000000000000000081526004016113c29061441c565b60405180910390fd5b600360008373ffffffffffffffffffffffffffffffffffffffff1673ffffffffffffffffffffffffffffffffffffffff168152602001908152602001600020549050919050565b61141a612276565b61142460006123c1565b565b600c805461143390613e14565b80601f016020809104026020016040519081016040528092919081815260200182805461145f90613e14565b80156114ac5780601f10611481576101008083540402835291602001916114ac565b820191906000526020600020905b81548152906001019060200180831161148f57829003601f168201915b505050505081565b60166020528060005260406000206000915090505481565b60136020528060005260406000206000915090505481565b6000600860009054906101000a900473ffffffffffffffffffffffffffffffffffffffff16905090565b60606001805461151d90613e14565b80601f016020809104026020016040519081016040528092919081815260200182805461154990613e14565b80156115965780601f1061156b57610100808354040283529160200191611596565b820191906000526020600020905b81548152906001019060200180831161157957829003601f168201915b5050505050905090565b600d80546115ad90613e14565b80601f01602080910402602001604051908101604052809291908181526020018280546115d990613e14565b80156116265780601f106115fb57610100808354040283529160200191611626565b820191906000526020600020905b81548152906001019060200180831161160957829003601f168201915b505050505081565b60095481565b61164661163f611b1b565b8383612481565b5050565b60116020528060005260406000206000915090505481565b61167361166d611b1b565b83611f7a565b6116b2576040517f08c379a00000000000000000000000000000000000000000000000000000000081526004016116a9906141da565b60405180910390fd5b6116be848484846125ee565b50505050565b8273ffffffffffffffffffffffffffffffffffffffff163373ffffffffffffffffffffffffffffffffffffffff1614611732576040517f08c379a00000000000000000000000000000000000000000000000000000000081526004016117299061426c565b60405180910390fd5b61173d83838361200f565b505050565b606061174d82611ad0565b600060066000848152602001908152602001600020805461176d90613e14565b80601f016020809104026020016040519081016040528092919081815260200182805461179990613e14565b80156117e65780601f106117bb576101008083540402835291602001916117e6565b820191906000526020600020905b8154815290600101906020018083116117c957829003601f168201915b5050505050905060006117f761264a565b905060008151141561180d578192505050611850565b60008251111561184257808260405160200161182a929190614478565b60405160208183030381529060405292505050611850565b61184b84612661565b925050505b919050565b60156020528060005260406000206000915090505481565b6021602052816000526040600020818154811061188957600080fd5b90600052602060002001600091509150505481565b6118a785611202565b73ffffffffffffffffffffffffffffffffffffffff163373ffffffffffffffffffffffffffffffffffffffff16146118de57600080fd5b83600f60008781526020019081526020016000208190555082601060008781526020019081526020016000208190555081601160008781526020019081526020016000208190555080601260008781526020019081526020016000208190555061194785611bfa565b5050505050565b6000600560008473ffffffffffffffffffffffffffffffffffffffff1673ffffffffffffffffffffffffffffffffffffffff16815260200190815260200160002060008373ffffffffffffffffffffffffffffffffffffffff1673ffffffffffffffffffffffffffffffffffffffff16815260200190815260200160002060009054906101000a900460ff16905092915050565b6119ea612276565b600073ffffffffffffffffffffffffffffffffffffffff168173ffffffffffffffffffffffffffffffffffffffff161415611a5a576040517f08c379a0000000000000000000000000000000000000000000000000000000008152600401611a519061450e565b60405180910390fd5b611a63816123c1565b50565b60007f01ffc9a7000000000000000000000000000000000000000000000000000000007bffffffffffffffffffffffffffffffffffffffffffffffffffffffff1916827bffffffffffffffffffffffffffffffffffffffffffffffffffffffff1916149050919050565b611ad9816126c9565b611b18576040517f08c379a0000000000000000000000000000000000000000000000000000000008152600401611b0f9061438a565b60405180910390fd5b50565b600033905090565b816004600083815260200190815260200160002060006101000a81548173ffffffffffffffffffffffffffffffffffffffff021916908373ffffffffffffffffffffffffffffffffffffffff160217905550808273ffffffffffffffffffffffffffffffffffffffff16611b9683611202565b73ffffffffffffffffffffffffffffffffffffffff167f8c5be1e5ebec7d5bd14f71427d1e84f3dd0314c0f7b2291e5b200ac8c7c3b92560405160405180910390a45050565b611bf6828260405180602001604052806000815250612735565b5050565b6040518061014001604052806040518060400160405280600981526020017f42616c6c536f6e696300000000000000000000000000000000000000000000008152508152602001600e6000848152602001908152602001600020548152602001600f6000848152602001908152602001600020548152602001601060008481526020019081526020016000205481526020016011600084815260200190815260200160002054815260200160126000848152602001908152602001600020548152602001601360008481526020019081526020016000205481526020016014600084815260200190815260200160002054815260200160156000848152602001908152602001600020548152602001601660008481526020019081526020016000205481525060176000820151816000019080519060200190611d3e9291906135da565b506020820151816001015560408201518160020155606082015181600301556080820151816004015560a0820151816005015560c0820151816006015560e08201518160070155610100820151816008015561012082015181600901559050506000600c611dbe6023600085815260200190815260200160002054612790565b604051602001611dcf9291906145c2565b60405160208183030381529060405290506000611f5b83611def85611202565b6040518060400160405280600581526020017f3842616c6c000000000000000000000000000000000000000000000000000000815250856040518060400160405280601781526020017f3842616c6c2069732066616e7461737469632067616d65000000000000000000815250601760405180610140016040529081600082018054611e7a90613e14565b80601f0160208091040260200160405190810160405280929190818152602001828054611ea690613e14565b8015611ef35780601f10611ec857610100808354040283529160200191611ef3565b820191906000526020600020905b815481529060010190602001808311611ed657829003601f168201915b5050505050815260200160018201548152602001600282015481526020016003820154815260200160048201548152602001600582015481526020016006820154815260200160078201548152602001600882015481526020016009820154815250506128f1565b90506000611f688261293b565b9050611f74848261296c565b50505050565b600080611f8683611202565b90508073ffffffffffffffffffffffffffffffffffffffff168473ffffffffffffffffffffffffffffffffffffffff161480611fc85750611fc7818561194e565b5b8061200657508373ffffffffffffffffffffffffffffffffffffffff16611fee84610a9f565b73ffffffffffffffffffffffffffffffffffffffff16145b91505092915050565b8273ffffffffffffffffffffffffffffffffffffffff1661202f82611202565b73ffffffffffffffffffffffffffffffffffffffff1614612085576040517f08c379a000000000000000000000000000000000000000000000000000000000815260040161207c90614658565b60405180910390fd5b600073ffffffffffffffffffffffffffffffffffffffff168273ffffffffffffffffffffffffffffffffffffffff1614156120f5576040517f08c379a00000000000000000000000000000000000000000000000000000000081526004016120ec906146ea565b60405180910390fd5b6121008383836129e0565b61210b600082611b23565b6001600360008573ffffffffffffffffffffffffffffffffffffffff1673ffffffffffffffffffffffffffffffffffffffff168152602001908152602001600020600082825461215b919061470a565b925050819055506001600360008473ffffffffffffffffffffffffffffffffffffffff1673ffffffffffffffffffffffffffffffffffffffff16815260200190815260200160002060008282546121b291906140e8565b92505081905550816002600083815260200190815260200160002060006101000a81548173ffffffffffffffffffffffffffffffffffffffff021916908373ffffffffffffffffffffffffffffffffffffffff160217905550808273ffffffffffffffffffffffffffffffffffffffff168473ffffffffffffffffffffffffffffffffffffffff167fddf252ad1be2c89b69c2b068fc378daa952ba7f163c4a11628f55a4df523b3ef60405160405180910390a46122718383836129e5565b505050565b61227e611b1b565b73ffffffffffffffffffffffffffffffffffffffff16600760009054906101000a900473ffffffffffffffffffffffffffffffffffffffff1673ffffffffffffffffffffffffffffffffffffffff16148061232d57506122dc611b1b565b73ffffffffffffffffffffffffffffffffffffffff16600860009054906101000a900473ffffffffffffffffffffffffffffffffffffffff1673ffffffffffffffffffffffffffffffffffffffff16145b61236c576040517f08c379a00000000000000000000000000000000000000000000000000000000081526004016123639061478a565b60405180910390fd5b565b612377816129ea565b600060066000838152602001908152602001600020805461239790613e14565b9050146123be576006600082815260200190815260200160002060006123bd9190613660565b5b50565b80600860006101000a81548173ffffffffffffffffffffffffffffffffffffffff021916908373ffffffffffffffffffffffffffffffffffffffff1602179055508073ffffffffffffffffffffffffffffffffffffffff16600760009054906101000a900473ffffffffffffffffffffffffffffffffffffffff1673ffffffffffffffffffffffffffffffffffffffff167f8be0079c531659141344cd1fd0a4f28419497f9722a3daafe3b4186f6b6457e060405160405180910390a350565b8173ffffffffffffffffffffffffffffffffffffffff168373ffffffffffffffffffffffffffffffffffffffff1614156124f0576040517f08c379a00000000000000000000000000000000000000000000000000000000081526004016124e7906147f6565b60405180910390fd5b80600560008573ffffffffffffffffffffffffffffffffffffffff1673ffffffffffffffffffffffffffffffffffffffff16815260200190815260200160002060008473ffffffffffffffffffffffffffffffffffffffff1673ffffffffffffffffffffffffffffffffffffffff16815260200190815260200160002060006101000a81548160ff0219169083151502179055508173ffffffffffffffffffffffffffffffffffffffff168373ffffffffffffffffffffffffffffffffffffffff167f17307eab39ab6107e8899845ad3d59bd9653f200f220920489ca2b5937696c31836040516125e19190613771565b60405180910390a3505050565b6125f984848461200f565b61260584848484612b07565b612644576040517f08c379a000000000000000000000000000000000000000000000000000000000815260040161263b90614888565b60405180910390fd5b50505050565b606060405180602001604052806000815250905090565b606061266c82611ad0565b600061267661264a565b9050600081511161269657604051806020016040528060008152506126c1565b806126a084612790565b6040516020016126b1929190614478565b6040516020818303038152906040525b915050919050565b60008073ffffffffffffffffffffffffffffffffffffffff166002600084815260200190815260200160002060009054906101000a900473ffffffffffffffffffffffffffffffffffffffff1673ffffffffffffffffffffffffffffffffffffffff1614159050919050565b61273f8383612c9e565b61274c6000848484612b07565b61278b576040517f08c379a000000000000000000000000000000000000000000000000000000000815260040161278290614888565b60405180910390fd5b505050565b606060008214156127d8576040518060400160405280600181526020017f300000000000000000000000000000000000000000000000000000000000000081525090506128ec565b600082905060005b6000821461280a5780806127f39061409f565b915050600a8261280391906148a8565b91506127e0565b60008167ffffffffffffffff811115612826576128256139f9565b5b6040519080825280601f01601f1916602001820160405280156128585781602001600182028036833780820191505090505b5090505b600085146128e557600182612871919061470a565b9150600a85612880919061403f565b603061288c91906140e8565b60f81b8183815181106128a2576128a16148d9565b5b60200101907effffffffffffffffffffffffffffffffffffffffffffffffffffffffffffff1916908160001a905350600a856128de91906148a8565b945061285c565b8093505050505b919050565b606060006129028888888888612e78565b90508061290e84612ed3565b60405160200161291f9291906149a0565b6040516020818303038152906040529150509695505050505050565b606061294682612fbf565b6040516020016129569190614a26565b6040516020818303038152906040529050919050565b612975826126c9565b6129b4576040517f08c379a00000000000000000000000000000000000000000000000000000000081526004016129ab90614aba565b60405180910390fd5b806006600084815260200190815260200160002090805190602001906129db9291906135da565b505050565b505050565b505050565b60006129f582611202565b9050612a03816000846129e0565b612a0e600083611b23565b6001600360008373ffffffffffffffffffffffffffffffffffffffff1673ffffffffffffffffffffffffffffffffffffffff1681526020019081526020016000206000828254612a5e919061470a565b925050819055506002600083815260200190815260200160002060006101000a81549073ffffffffffffffffffffffffffffffffffffffff021916905581600073ffffffffffffffffffffffffffffffffffffffff168273ffffffffffffffffffffffffffffffffffffffff167fddf252ad1be2c89b69c2b068fc378daa952ba7f163c4a11628f55a4df523b3ef60405160405180910390a4612b03816000846129e5565b5050565b6000612b288473ffffffffffffffffffffffffffffffffffffffff16613123565b15612c91578373ffffffffffffffffffffffffffffffffffffffff1663150b7a02612b51611b1b565b8786866040518563ffffffff1660e01b8152600401612b739493929190614b2f565b602060405180830381600087803b158015612b8d57600080fd5b505af1925050508015612bbe57506040513d601f19601f82011682018060405250810190612bbb9190614b90565b60015b612c41573d8060008114612bee576040519150601f19603f3d011682016040523d82523d6000602084013e612bf3565b606091505b50600081511415612c39576040517f08c379a0000000000000000000000000000000000000000000000000000000008152600401612c3090614888565b60405180910390fd5b805181602001fd5b63150b7a0260e01b7bffffffffffffffffffffffffffffffffffffffffffffffffffffffff1916817bffffffffffffffffffffffffffffffffffffffffffffffffffffffff191614915050612c96565b600190505b949350505050565b600073ffffffffffffffffffffffffffffffffffffffff168273ffffffffffffffffffffffffffffffffffffffff161415612d0e576040517f08c379a0000000000000000000000000000000000000000000000000000000008152600401612d0590614c09565b60405180910390fd5b612d17816126c9565b15612d57576040517f08c379a0000000000000000000000000000000000000000000000000000000008152600401612d4e90614c75565b60405180910390fd5b612d63600083836129e0565b6001600360008473ffffffffffffffffffffffffffffffffffffffff1673ffffffffffffffffffffffffffffffffffffffff1681526020019081526020016000206000828254612db391906140e8565b92505081905550816002600083815260200190815260200160002060006101000a81548173ffffffffffffffffffffffffffffffffffffffff021916908373ffffffffffffffffffffffffffffffffffffffff160217905550808273ffffffffffffffffffffffffffffffffffffffff16600073ffffffffffffffffffffffffffffffffffffffff167fddf252ad1be2c89b69c2b068fc378daa952ba7f163c4a11628f55a4df523b3ef60405160405180910390a4612e74600083836129e5565b5050565b606083612e8487613146565b8385612ea58973ffffffffffffffffffffffffffffffffffffffff1661321e565b604051602001612eb9959493929190614e5d565b604051602081830303815290604052905095945050505050565b606060006040518060200160405280600081525090506000818460000151612efe8660200151613146565b612f0b8760400151613146565b612f188860600151613146565b612f258960800151613146565b612f328a60a00151613146565b612f3f8b60c00151613146565b612f4c8c60e00151613146565b612f5a8d6101000151613146565b612f688e6101200151613146565b604051602001612f829b9a9998979695949392919061520e565b604051602081830303815290604052905080915081604051602001612fa791906153cf565b60405160208183030381529060405292505050919050565b6060600082511415612fe25760405180602001604052806000815250905061311e565b60006040518060600160405280604081526020016154b8604091399050600060036002855161301191906140e8565b61301b91906148a8565b600461302791906153f1565b67ffffffffffffffff8111156130405761303f6139f9565b5b6040519080825280601f01601f1916602001820160405280156130725781602001600182028036833780820191505090505b509050600182016020820185865187015b808210156130de576003820191508151603f8160121c168501518453600184019350603f81600c1c168501518453600184019350603f8160061c168501518453600184019350603f8116850151845360018401935050613083565b50506003865106600181146130fa576002811461310d57613115565b603d6001830353603d6002830353613115565b603d60018303535b50505080925050505b919050565b6000808273ffffffffffffffffffffffffffffffffffffffff163b119050919050565b6060600060016131558461324b565b01905060008167ffffffffffffffff811115613174576131736139f9565b5b6040519080825280601f01601f1916602001820160405280156131a65781602001600182028036833780820191505090505b509050600082602001820190505b600115613213578080600190039150507f3031323334353637383961626364656600000000000000000000000000000000600a86061a8153600a85816131fd576131fc614010565b5b049450600085141561320e57613213565b6131b4565b819350505050919050565b60606132448273ffffffffffffffffffffffffffffffffffffffff16601460ff1661339e565b9050919050565b600080600090507a184f03e93ff9f4daa797ed6e38ed64bf6a1f01000000000000000083106132a9577a184f03e93ff9f4daa797ed6e38ed64bf6a1f010000000000000000838161329f5761329e614010565b5b0492506040810190505b6d04ee2d6d415b85acef810000000083106132e6576d04ee2d6d415b85acef810000000083816132dc576132db614010565b5b0492506020810190505b662386f26fc10000831061331557662386f26fc10000838161330b5761330a614010565b5b0492506010810190505b6305f5e100831061333e576305f5e100838161333457613333614010565b5b0492506008810190505b612710831061336357612710838161335957613358614010565b5b0492506004810190505b60648310613386576064838161337c5761337b614010565b5b0492506002810190505b600a8310613395576001810190505b80915050919050565b6060600060028360026133b191906153f1565b6133bb91906140e8565b67ffffffffffffffff8111156133d4576133d36139f9565b5b6040519080825280601f01601f1916602001820160405280156134065781602001600182028036833780820191505090505b5090507f30000000000000000000000000000000000000000000000000000000000000008160008151811061343e5761343d6148d9565b5b60200101907effffffffffffffffffffffffffffffffffffffffffffffffffffffffffffff1916908160001a9053507f7800000000000000000000000000000000000000000000000000000000000000816001815181106134a2576134a16148d9565b5b60200101907effffffffffffffffffffffffffffffffffffffffffffffffffffffffffffff1916908160001a905350600060018460026134e291906153f1565b6134ec91906140e8565b90505b600181111561358c577f3031323334353637383961626364656600000000000000000000000000000000600f86166010811061352e5761352d6148d9565b5b1a60f81b828281518110613545576135446148d9565b5b60200101907effffffffffffffffffffffffffffffffffffffffffffffffffffffffffffff1916908160001a905350600485901c9450806135859061413e565b90506134ef565b50600084146135d0576040517f08c379a00000000000000000000000000000000000000000000000000000000081526004016135c790615497565b60405180910390fd5b8091505092915050565b8280546135e690613e14565b90600052602060002090601f016020900481019282613608576000855561364f565b82601f1061362157805160ff191683800117855561364f565b8280016001018555821561364f579182015b8281111561364e578251825591602001919060010190613633565b5b50905061365c91906136a0565b5090565b50805461366c90613e14565b6000825580601f1061367e575061369d565b601f01602090049060005260206000209081019061369c91906136a0565b5b50565b5b808211156136b95760008160009055506001016136a1565b5090565b6000604051905090565b600080fd5b600080fd5b60007fffffffff0000000000000000000000000000000000000000000000000000000082169050919050565b613706816136d1565b811461371157600080fd5b50565b600081359050613723816136fd565b92915050565b60006020828403121561373f5761373e6136c7565b5b600061374d84828501613714565b91505092915050565b60008115159050919050565b61376b81613756565b82525050565b60006020820190506137866000830184613762565b92915050565b600081519050919050565b600082825260208201905092915050565b60005b838110156137c65780820151818401526020810190506137ab565b838111156137d5576000848401525b50505050565b6000601f19601f8301169050919050565b60006137f78261378c565b6138018185613797565b93506138118185602086016137a8565b61381a816137db565b840191505092915050565b6000602082019050818103600083015261383f81846137ec565b905092915050565b6000819050919050565b61385a81613847565b811461386557600080fd5b50565b60008135905061387781613851565b92915050565b600060208284031215613893576138926136c7565b5b60006138a184828501613868565b91505092915050565b600073ffffffffffffffffffffffffffffffffffffffff82169050919050565b60006138d5826138aa565b9050919050565b6138e5816138ca565b82525050565b600060208201905061390060008301846138dc565b92915050565b61390f816138ca565b811461391a57600080fd5b50565b60008135905061392c81613906565b92915050565b60008060408385031215613949576139486136c7565b5b60006139578582860161391d565b925050602061396885828601613868565b9150509250929050565b61397b81613847565b82525050565b60006020820190506139966000830184613972565b92915050565b6000806000606084860312156139b5576139b46136c7565b5b60006139c38682870161391d565b93505060206139d48682870161391d565b92505060406139e586828701613868565b9150509250925092565b600080fd5b600080fd5b7f4e487b7100000000000000000000000000000000000000000000000000000000600052604160045260246000fd5b613a31826137db565b810181811067ffffffffffffffff82111715613a5057613a4f6139f9565b5b80604052505050565b6000613a636136bd565b9050613a6f8282613a28565b919050565b600067ffffffffffffffff821115613a8f57613a8e6139f9565b5b613a98826137db565b9050602081019050919050565b82818337600083830152505050565b6000613ac7613ac284613a74565b613a59565b905082815260208101848484011115613ae357613ae26139f4565b5b613aee848285613aa5565b509392505050565b600082601f830112613b0b57613b0a6139ef565b5b8135613b1b848260208601613ab4565b91505092915050565b600060208284031215613b3a57613b396136c7565b5b600082013567ffffffffffffffff811115613b5857613b576136cc565b5b613b6484828501613af6565b91505092915050565b600060208284031215613b8357613b826136c7565b5b6000613b918482850161391d565b91505092915050565b613ba381613756565b8114613bae57600080fd5b50565b600081359050613bc081613b9a565b92915050565b60008060408385031215613bdd57613bdc6136c7565b5b6000613beb8582860161391d565b9250506020613bfc85828601613bb1565b9150509250929050565b600067ffffffffffffffff821115613c2157613c206139f9565b5b613c2a826137db565b9050602081019050919050565b6000613c4a613c4584613c06565b613a59565b905082815260208101848484011115613c6657613c656139f4565b5b613c71848285613aa5565b509392505050565b600082601f830112613c8e57613c8d6139ef565b5b8135613c9e848260208601613c37565b91505092915050565b60008060008060808587031215613cc157613cc06136c7565b5b6000613ccf8782880161391d565b9450506020613ce08782880161391d565b9350506040613cf187828801613868565b925050606085013567ffffffffffffffff811115613d1257613d116136cc565b5b613d1e87828801613c79565b91505092959194509250565b600080600080600060a08688031215613d4657613d456136c7565b5b6000613d5488828901613868565b9550506020613d6588828901613868565b9450506040613d7688828901613868565b9350506060613d8788828901613868565b9250506080613d9888828901613868565b9150509295509295909350565b60008060408385031215613dbc57613dbb6136c7565b5b6000613dca8582860161391d565b9250506020613ddb8582860161391d565b9150509250929050565b7f4e487b7100000000000000000000000000000000000000000000000000000000600052602260045260246000fd5b60006002820490506001821680613e2c57607f821691505b60208210811415613e4057613e3f613de5565b5b50919050565b7f4552433732313a20617070726f76616c20746f2063757272656e74206f776e6560008201527f7200000000000000000000000000000000000000000000000000000000000000602082015250565b6000613ea2602183613797565b9150613ead82613e46565b604082019050919050565b60006020820190508181036000830152613ed181613e95565b9050919050565b7f4552433732313a20617070726f76652063616c6c6572206973206e6f7420746f60008201527f6b656e206f776e6572206e6f7220617070726f76656420666f7220616c6c0000602082015250565b6000613f34603e83613797565b9150613f3f82613ed8565b604082019050919050565b60006020820190508181036000830152613f6381613f27565b9050919050565b6000819050919050565b613f85613f8082613847565b613f6a565b82525050565b60008160601b9050919050565b6000613fa382613f8b565b9050919050565b6000613fb582613f98565b9050919050565b613fcd613fc8826138ca565b613faa565b82525050565b6000613fdf8286613f74565b602082019150613fef8285613fbc565b601482019150613fff8284613f74565b602082019150819050949350505050565b7f4e487b7100000000000000000000000000000000000000000000000000000000600052601260045260246000fd5b600061404a82613847565b915061405583613847565b92508261406557614064614010565b5b828206905092915050565b7f4e487b7100000000000000000000000000000000000000000000000000000000600052601160045260246000fd5b60006140aa82613847565b91507fffffffffffffffffffffffffffffffffffffffffffffffffffffffffffffffff8214156140dd576140dc614070565b5b600182019050919050565b60006140f382613847565b91506140fe83613847565b9250827fffffffffffffffffffffffffffffffffffffffffffffffffffffffffffffffff0382111561413357614132614070565b5b828201905092915050565b600061414982613847565b9150600082141561415d5761415c614070565b5b600182039050919050565b7f4552433732313a2063616c6c6572206973206e6f7420746f6b656e206f776e6560008201527f72206e6f7220617070726f766564000000000000000000000000000000000000602082015250565b60006141c4602e83613797565b91506141cf82614168565b604082019050919050565b600060208201905081810360008301526141f3816141b7565b9050919050565b7f4f6e6c7920746865206f776e6572206f66204e46542063616e207472616e736660008201527f6572206f722062756e7420697400000000000000000000000000000000000000602082015250565b6000614256602d83613797565b9150614261826141fa565b604082019050919050565b6000602082019050818103600083015261428581614249565b9050919050565b600081905092915050565b50565b60006142a760008361428c565b91506142b282614297565b600082019050919050565b60006142c88261429a565b9150819050919050565b7f5769746864726177206661696c00000000000000000000000000000000000000600082015250565b6000614308600d83613797565b9150614313826142d2565b602082019050919050565b60006020820190508181036000830152614337816142fb565b9050919050565b7f4552433732313a20696e76616c696420746f6b656e2049440000000000000000600082015250565b6000614374601883613797565b915061437f8261433e565b602082019050919050565b600060208201905081810360008301526143a381614367565b9050919050565b7f4552433732313a2061646472657373207a65726f206973206e6f74206120766160008201527f6c6964206f776e65720000000000000000000000000000000000000000000000602082015250565b6000614406602983613797565b9150614411826143aa565b604082019050919050565b60006020820190508181036000830152614435816143f9565b9050919050565b600081905092915050565b60006144528261378c565b61445c818561443c565b935061446c8185602086016137a8565b80840191505092915050565b60006144848285614447565b91506144908284614447565b91508190509392505050565b7f4f776e61626c653a206e6577206f776e657220697320746865207a65726f206160008201527f6464726573730000000000000000000000000000000000000000000000000000602082015250565b60006144f8602683613797565b91506145038261449c565b604082019050919050565b60006020820190508181036000830152614527816144eb565b9050919050565b60008190508160005260206000209050919050565b6000815461455081613e14565b61455a818661443c565b945060018216600081146145755760018114614586576145b9565b60ff198316865281860193506145b9565b61458f8561452e565b60005b838110156145b157815481890152600182019150602081019050614592565b838801955050505b50505092915050565b60006145ce8285614543565b91506145da8284614447565b91508190509392505050565b7f4552433732313a207472616e736665722066726f6d20696e636f72726563742060008201527f6f776e6572000000000000000000000000000000000000000000000000000000602082015250565b6000614642602583613797565b915061464d826145e6565b604082019050919050565b6000602082019050818103600083015261467181614635565b9050919050565b7f4552433732313a207472616e7366657220746f20746865207a65726f2061646460008201527f7265737300000000000000000000000000000000000000000000000000000000602082015250565b60006146d4602483613797565b91506146df82614678565b604082019050919050565b60006020820190508181036000830152614703816146c7565b9050919050565b600061471582613847565b915061472083613847565b92508282101561473357614732614070565b5b828203905092915050565b7f4f776e61626c653a2063616c6c6572206973206e6f7420746865206f776e6572600082015250565b6000614774602083613797565b915061477f8261473e565b602082019050919050565b600060208201905081810360008301526147a381614767565b9050919050565b7f4552433732313a20617070726f766520746f2063616c6c657200000000000000600082015250565b60006147e0601983613797565b91506147eb826147aa565b602082019050919050565b6000602082019050818103600083015261480f816147d3565b9050919050565b7f4552433732313a207472616e7366657220746f206e6f6e20455243373231526560008201527f63656976657220696d706c656d656e7465720000000000000000000000000000602082015250565b6000614872603283613797565b915061487d82614816565b604082019050919050565b600060208201905081810360008301526148a181614865565b9050919050565b60006148b382613847565b91506148be83613847565b9250826148ce576148cd614010565b5b828204905092915050565b7f4e487b7100000000000000000000000000000000000000000000000000000000600052603260045260246000fd5b7f7b00000000000000000000000000000000000000000000000000000000000000600082015250565b600061493e60018361443c565b915061494982614908565b600182019050919050565b7f7d00000000000000000000000000000000000000000000000000000000000000600082015250565b600061498a60018361443c565b915061499582614954565b600182019050919050565b60006149ab82614931565b91506149b78285614447565b91506149c38284614447565b91506149ce8261497d565b91508190509392505050565b7f646174613a6170706c69636174696f6e2f6a736f6e3b6261736536342c000000600082015250565b6000614a10601d8361443c565b9150614a1b826149da565b601d82019050919050565b6000614a3182614a03565b9150614a3d8284614447565b915081905092915050565b7f45524337323155524953746f726167653a2055524920736574206f66206e6f6e60008201527f6578697374656e7420746f6b656e000000000000000000000000000000000000602082015250565b6000614aa4602e83613797565b9150614aaf82614a48565b604082019050919050565b60006020820190508181036000830152614ad381614a97565b9050919050565b600081519050919050565b600082825260208201905092915050565b6000614b0182614ada565b614b0b8185614ae5565b9350614b1b8185602086016137a8565b614b24816137db565b840191505092915050565b6000608082019050614b4460008301876138dc565b614b5160208301866138dc565b614b5e6040830185613972565b8181036060830152614b708184614af6565b905095945050505050565b600081519050614b8a816136fd565b92915050565b600060208284031215614ba657614ba56136c7565b5b6000614bb484828501614b7b565b91505092915050565b7f4552433732313a206d696e7420746f20746865207a65726f2061646472657373600082015250565b6000614bf3602083613797565b9150614bfe82614bbd565b602082019050919050565b60006020820190508181036000830152614c2281614be6565b9050919050565b7f4552433732313a20746f6b656e20616c7265616479206d696e74656400000000600082015250565b6000614c5f601c83613797565b9150614c6a82614c29565b602082019050919050565b60006020820190508181036000830152614c8e81614c52565b9050919050565b7f226e616d65223a22000000000000000000000000000000000000000000000000600082015250565b6000614ccb60088361443c565b9150614cd682614c95565b600882019050919050565b7f222c000000000000000000000000000000000000000000000000000000000000600082015250565b6000614d1760028361443c565b9150614d2282614ce1565b600282019050919050565b7f22746f6b656e4964223a22000000000000000000000000000000000000000000600082015250565b6000614d63600b8361443c565b9150614d6e82614d2d565b600b82019050919050565b7f226465736372697074696f6e223a220000000000000000000000000000000000600082015250565b6000614daf600f8361443c565b9150614dba82614d79565b600f82019050919050565b7f22696d616765223a220000000000000000000000000000000000000000000000600082015250565b6000614dfb60098361443c565b9150614e0682614dc5565b600982019050919050565b7f226f776e6572223a220000000000000000000000000000000000000000000000600082015250565b6000614e4760098361443c565b9150614e5282614e11565b600982019050919050565b6000614e6882614cbe565b9150614e748288614447565b9150614e7f82614d0a565b9150614e8a82614d56565b9150614e968287614447565b9150614ea182614d0a565b9150614eac82614da2565b9150614eb88286614447565b9150614ec382614d0a565b9150614ece82614dee565b9150614eda8285614447565b9150614ee582614d0a565b9150614ef082614e3a565b9150614efc8284614447565b9150614f0782614d0a565b91508190509695505050505050565b7f7b226d696e7454797065223a2200000000000000000000000000000000000000600082015250565b6000614f4c600d8361443c565b9150614f5782614f16565b600d82019050919050565b7f2263617465676f7279223a220000000000000000000000000000000000000000600082015250565b6000614f98600c8361443c565b9150614fa382614f62565b600c82019050919050565b7f2263757272656e74506f7765724c766c223a2200000000000000000000000000600082015250565b6000614fe460138361443c565b9150614fef82614fae565b601382019050919050565b7f2263757272656e7441636375726163794c766c223a2200000000000000000000600082015250565b600061503060168361443c565b915061503b82614ffa565b601682019050919050565b7f2263757272656e745370696e4c766c223a220000000000000000000000000000600082015250565b600061507c60128361443c565b915061508782615046565b601282019050919050565b7f2263757272656e7454696d654c766c223a220000000000000000000000000000600082015250565b60006150c860128361443c565b91506150d382615092565b601282019050919050565b7f226d6178506f7765724c766c223a220000000000000000000000000000000000600082015250565b6000615114600f8361443c565b915061511f826150de565b600f82019050919050565b7f226d617841636375726163794c766c223a220000000000000000000000000000600082015250565b600061516060128361443c565b915061516b8261512a565b601282019050919050565b7f226d61785370696e4c766c223a22000000000000000000000000000000000000600082015250565b60006151ac600e8361443c565b91506151b782615176565b600e82019050919050565b7f226d617854696d654c766c223a00000000000000000000000000000000000000600082015250565b60006151f8600d8361443c565b9150615203826151c2565b600d82019050919050565b600061521a828e614447565b915061522582614f3f565b9150615231828d614447565b915061523c82614d0a565b915061524782614f8b565b9150615253828c614447565b915061525e82614d0a565b915061526982614fd7565b9150615275828b614447565b915061528082614d0a565b915061528b82615023565b9150615297828a614447565b91506152a282614d0a565b91506152ad8261506f565b91506152b98289614447565b91506152c482614d0a565b91506152cf826150bb565b91506152db8288614447565b91506152e682614d0a565b91506152f182615107565b91506152fd8287614447565b915061530882614d0a565b915061531382615153565b915061531f8286614447565b915061532a82614d0a565b91506153358261519f565b91506153418285614447565b915061534c82614d0a565b9150615357826151eb565b91506153638284614447565b915061536e8261497d565b91508190509c9b505050505050505050505050565b7f2261747472696275746573223a00000000000000000000000000000000000000600082015250565b60006153b9600d8361443c565b91506153c482615383565b600d82019050919050565b60006153da826153ac565b91506153e68284614447565b915081905092915050565b60006153fc82613847565b915061540783613847565b9250817fffffffffffffffffffffffffffffffffffffffffffffffffffffffffffffffff04831182151516156154405761543f614070565b5b828202905092915050565b7f537472696e67733a20686578206c656e67746820696e73756666696369656e74600082015250565b6000615481602083613797565b915061548c8261544b565b602082019050919050565b600060208201905081810360008301526154b081615474565b905091905056fe4142434445464748494a4b4c4d4e4f505152535455565758595a6162636465666768696a6b6c6d6e6f707172737475767778797a303132333435363738392b2fa2646970667358221220b49173eba3325e5d483b6e3798a5893decefa6bbe95c48962b9da2129ebff77264736f6c63430008090033","opcodes":"PUSH1 0x80 PUSH1 0x40 MSTORE CALLVALUE DUP1 ISZERO PUSH3 0x11 JUMPI PUSH1 0x0 DUP1 REVERT JUMPDEST POP PUSH1 0x40 MLOAD DUP1 PUSH1 0x40 ADD PUSH1 0x40 MSTORE DUP1 PUSH1 0x9 DUP2 MSTORE PUSH1 0x20 ADD PUSH32 0x42616C6C536F6E69630000000000000000000000000000000000000000000000 DUP2 MSTORE POP PUSH1 0x40 MLOAD DUP1 PUSH1 0x40 ADD PUSH1 0x40 MSTORE DUP1 PUSH1 0x3 DUP2 MSTORE PUSH1 0x20 ADD PUSH32 0x4241530000000000000000000000000000000000000000000000000000000000 DUP2 MSTORE POP DUP2 PUSH1 0x0 SWAP1 DUP1 MLOAD SWAP1 PUSH1 0x20 ADD SWAP1 PUSH3 0x96 SWAP3 SWAP2 SWAP1 PUSH3 0x167 JUMP JUMPDEST POP DUP1 PUSH1 0x1 SWAP1 DUP1 MLOAD SWAP1 PUSH1 0x20 ADD SWAP1 PUSH3 0xAF SWAP3 SWAP2 SWAP1 PUSH3 0x167 JUMP JUMPDEST POP POP POP PUSH3 0xC2 PUSH3 0x15F PUSH1 0x20 SHL PUSH1 0x20 SHR JUMP JUMPDEST PUSH1 0x7 PUSH1 0x0 PUSH2 0x100 EXP DUP2 SLOAD DUP2 PUSH20 0xFFFFFFFFFFFFFFFFFFFFFFFFFFFFFFFFFFFFFFFF MUL NOT AND SWAP1 DUP4 PUSH20 0xFFFFFFFFFFFFFFFFFFFFFFFFFFFFFFFFFFFFFFFF AND MUL OR SWAP1 SSTORE POP PUSH2 0x3E8 PUSH1 0x9 DUP2 SWAP1 SSTORE POP PUSH1 0x40 MLOAD DUP1 PUSH1 0x40 ADD PUSH1 0x40 MSTORE DUP1 PUSH1 0x9 DUP2 MSTORE PUSH1 0x20 ADD PUSH32 0x42616C6C536F6E69630000000000000000000000000000000000000000000000 DUP2 MSTORE POP PUSH1 0xD SWAP1 DUP1 MLOAD SWAP1 PUSH1 0x20 ADD SWAP1 PUSH3 0x158 SWAP3 SWAP2 SWAP1 PUSH3 0x167 JUMP JUMPDEST POP PUSH3 0x27C JUMP JUMPDEST PUSH1 0x0 CALLER SWAP1 POP SWAP1 JUMP JUMPDEST DUP3 DUP1 SLOAD PUSH3 0x175 SWAP1 PUSH3 0x246 JUMP JUMPDEST SWAP1 PUSH1 0x0 MSTORE PUSH1 0x20 PUSH1 0x0 KECCAK256 SWAP1 PUSH1 0x1F ADD PUSH1 0x20 SWAP1 DIV DUP2 ADD SWAP3 DUP3 PUSH3 0x199 JUMPI PUSH1 0x0 DUP6 SSTORE PUSH3 0x1E5 JUMP JUMPDEST DUP3 PUSH1 0x1F LT PUSH3 0x1B4 JUMPI DUP1 MLOAD PUSH1 0xFF NOT AND DUP4 DUP1 ADD OR DUP6 SSTORE PUSH3 0x1E5 JUMP JUMPDEST DUP3 DUP1 ADD PUSH1 0x1 ADD DUP6 SSTORE DUP3 ISZERO PUSH3 0x1E5 JUMPI SWAP2 DUP3 ADD JUMPDEST DUP3 DUP2 GT ISZERO PUSH3 0x1E4 JUMPI DUP3 MLOAD DUP3 SSTORE SWAP2 PUSH1 0x20 ADD SWAP2 SWAP1 PUSH1 0x1 ADD SWAP1 PUSH3 0x1C7 JUMP JUMPDEST JUMPDEST POP SWAP1 POP PUSH3 0x1F4 SWAP2 SWAP1 PUSH3 0x1F8 JUMP JUMPDEST POP SWAP1 JUMP JUMPDEST JUMPDEST DUP1 DUP3 GT ISZERO PUSH3 0x213 JUMPI PUSH1 0x0 DUP2 PUSH1 0x0 SWAP1 SSTORE POP PUSH1 0x1 ADD PUSH3 0x1F9 JUMP JUMPDEST POP SWAP1 JUMP JUMPDEST PUSH32 0x4E487B7100000000000000000000000000000000000000000000000000000000 PUSH1 0x0 MSTORE PUSH1 0x22 PUSH1 0x4 MSTORE PUSH1 0x24 PUSH1 0x0 REVERT JUMPDEST PUSH1 0x0 PUSH1 0x2 DUP3 DIV SWAP1 POP PUSH1 0x1 DUP3 AND DUP1 PUSH3 0x25F JUMPI PUSH1 0x7F DUP3 AND SWAP2 POP JUMPDEST PUSH1 0x20 DUP3 LT DUP2 EQ ISZERO PUSH3 0x276 JUMPI PUSH3 0x275 PUSH3 0x217 JUMP JUMPDEST JUMPDEST POP SWAP2 SWAP1 POP JUMP JUMPDEST PUSH2 0x552D DUP1 PUSH3 0x28C PUSH1 0x0 CODECOPY PUSH1 0x0 RETURN INVALID PUSH1 0x80 PUSH1 0x40 MSTORE PUSH1 0x4 CALLDATASIZE LT PUSH2 0x21A JUMPI PUSH1 0x0 CALLDATALOAD PUSH1 0xE0 SHR DUP1 PUSH4 0x70A08231 GT PUSH2 0x123 JUMPI DUP1 PUSH4 0xA22CB465 GT PUSH2 0xAB JUMPI DUP1 PUSH4 0xC9083CD9 GT PUSH2 0x6F JUMPI DUP1 PUSH4 0xC9083CD9 EQ PUSH2 0x822 JUMPI DUP1 PUSH4 0xCC17E15D EQ PUSH2 0x85F JUMPI DUP1 PUSH4 0xD55CAE27 EQ PUSH2 0x89C JUMPI DUP1 PUSH4 0xE985E9C5 EQ PUSH2 0x8C5 JUMPI DUP1 PUSH4 0xF2FDE38B EQ PUSH2 0x902 JUMPI PUSH2 0x21A JUMP JUMPDEST DUP1 PUSH4 0xA22CB465 EQ PUSH2 0x72D JUMPI DUP1 PUSH4 0xB49F7E2D EQ PUSH2 0x756 JUMPI DUP1 PUSH4 0xB88D4FDE EQ PUSH2 0x793 JUMPI DUP1 PUSH4 0xBEABACC8 EQ PUSH2 0x7BC JUMPI DUP1 PUSH4 0xC87B56DD EQ PUSH2 0x7E5 JUMPI PUSH2 0x21A JUMP JUMPDEST DUP1 PUSH4 0x8CC04784 GT PUSH2 0xF2 JUMPI DUP1 PUSH4 0x8CC04784 EQ PUSH2 0x644 JUMPI DUP1 PUSH4 0x8DA5CB5B EQ PUSH2 0x681 JUMPI DUP1 PUSH4 0x95D89B41 EQ PUSH2 0x6AC JUMPI DUP1 PUSH4 0x96286F9A EQ PUSH2 0x6D7 JUMPI DUP1 PUSH4 0x9F181B5E EQ PUSH2 0x702 JUMPI PUSH2 0x21A JUMP JUMPDEST DUP1 PUSH4 0x70A08231 EQ PUSH2 0x588 JUMPI DUP1 PUSH4 0x715018A6 EQ PUSH2 0x5C5 JUMPI DUP1 PUSH4 0x77645839 EQ PUSH2 0x5DC JUMPI DUP1 PUSH4 0x81A4B116 EQ PUSH2 0x607 JUMPI PUSH2 0x21A JUMP JUMPDEST DUP1 PUSH4 0x39B92BBB GT PUSH2 0x1A6 JUMPI DUP1 PUSH4 0x4FFFBE0E GT PUSH2 0x175 JUMPI DUP1 PUSH4 0x4FFFBE0E EQ PUSH2 0x469 JUMPI DUP1 PUSH4 0x52A3302B EQ PUSH2 0x4A6 JUMPI DUP1 PUSH4 0x6352211E EQ PUSH2 0x4E3 JUMPI DUP1 PUSH4 0x6C0360EB EQ PUSH2 0x520 JUMPI DUP1 PUSH4 0x6F2829BA EQ PUSH2 0x54B JUMPI PUSH2 0x21A JUMP JUMPDEST DUP1 PUSH4 0x39B92BBB EQ PUSH2 0x3D7 JUMPI DUP1 PUSH4 0x42842E0E EQ PUSH2 0x400 JUMPI DUP1 PUSH4 0x42966C68 EQ PUSH2 0x429 JUMPI DUP1 PUSH4 0x4311DE8F EQ PUSH2 0x452 JUMPI PUSH2 0x21A JUMP JUMPDEST DUP1 PUSH4 0x1249C58B GT PUSH2 0x1ED JUMPI DUP1 PUSH4 0x1249C58B EQ PUSH2 0x2ED JUMPI DUP1 PUSH4 0x22EA00F9 EQ PUSH2 0x2F7 JUMPI DUP1 PUSH4 0x23B872DD EQ PUSH2 0x334 JUMPI DUP1 PUSH4 0x253ECA1F EQ PUSH2 0x35D JUMPI DUP1 PUSH4 0x2603F287 EQ PUSH2 0x39A JUMPI PUSH2 0x21A JUMP JUMPDEST DUP1 PUSH4 0x1FFC9A7 EQ PUSH2 0x21F JUMPI DUP1 PUSH4 0x6FDDE03 EQ PUSH2 0x25C JUMPI DUP1 PUSH4 0x81812FC EQ PUSH2 0x287 JUMPI DUP1 PUSH4 0x95EA7B3 EQ PUSH2 0x2C4 JUMPI JUMPDEST PUSH1 0x0 DUP1 REVERT JUMPDEST CALLVALUE DUP1 ISZERO PUSH2 0x22B JUMPI PUSH1 0x0 DUP1 REVERT JUMPDEST POP PUSH2 0x246 PUSH1 0x4 DUP1 CALLDATASIZE SUB DUP2 ADD SWAP1 PUSH2 0x241 SWAP2 SWAP1 PUSH2 0x3729 JUMP JUMPDEST PUSH2 0x92B JUMP JUMPDEST PUSH1 0x40 MLOAD PUSH2 0x253 SWAP2 SWAP1 PUSH2 0x3771 JUMP JUMPDEST PUSH1 0x40 MLOAD DUP1 SWAP2 SUB SWAP1 RETURN JUMPDEST CALLVALUE DUP1 ISZERO PUSH2 0x268 JUMPI PUSH1 0x0 DUP1 REVERT JUMPDEST POP PUSH2 0x271 PUSH2 0xA0D JUMP JUMPDEST PUSH1 0x40 MLOAD PUSH2 0x27E SWAP2 SWAP1 PUSH2 0x3825 JUMP JUMPDEST PUSH1 0x40 MLOAD DUP1 SWAP2 SUB SWAP1 RETURN JUMPDEST CALLVALUE DUP1 ISZERO PUSH2 0x293 JUMPI PUSH1 0x0 DUP1 REVERT JUMPDEST POP PUSH2 0x2AE PUSH1 0x4 DUP1 CALLDATASIZE SUB DUP2 ADD SWAP1 PUSH2 0x2A9 SWAP2 SWAP1 PUSH2 0x387D JUMP JUMPDEST PUSH2 0xA9F JUMP JUMPDEST PUSH1 0x40 MLOAD PUSH2 0x2BB SWAP2 SWAP1 PUSH2 0x38EB JUMP JUMPDEST PUSH1 0x40 MLOAD DUP1 SWAP2 SUB SWAP1 RETURN JUMPDEST CALLVALUE DUP1 ISZERO PUSH2 0x2D0 JUMPI PUSH1 0x0 DUP1 REVERT JUMPDEST POP PUSH2 0x2EB PUSH1 0x4 DUP1 CALLDATASIZE SUB DUP2 ADD SWAP1 PUSH2 0x2E6 SWAP2 SWAP1 PUSH2 0x3932 JUMP JUMPDEST PUSH2 0xAE5 JUMP JUMPDEST STOP JUMPDEST PUSH2 0x2F5 PUSH2 0xBFD JUMP JUMPDEST STOP JUMPDEST CALLVALUE DUP1 ISZERO PUSH2 0x303 JUMPI PUSH1 0x0 DUP1 REVERT JUMPDEST POP PUSH2 0x31E PUSH1 0x4 DUP1 CALLDATASIZE SUB DUP2 ADD SWAP1 PUSH2 0x319 SWAP2 SWAP1 PUSH2 0x387D JUMP JUMPDEST PUSH2 0xFA9 JUMP JUMPDEST PUSH1 0x40 MLOAD PUSH2 0x32B SWAP2 SWAP1 PUSH2 0x3981 JUMP JUMPDEST PUSH1 0x40 MLOAD DUP1 SWAP2 SUB SWAP1 RETURN JUMPDEST CALLVALUE DUP1 ISZERO PUSH2 0x340 JUMPI PUSH1 0x0 DUP1 REVERT JUMPDEST POP PUSH2 0x35B PUSH1 0x4 DUP1 CALLDATASIZE SUB DUP2 ADD SWAP1 PUSH2 0x356 SWAP2 SWAP1 PUSH2 0x399C JUMP JUMPDEST PUSH2 0xFC1 JUMP JUMPDEST STOP JUMPDEST CALLVALUE DUP1 ISZERO PUSH2 0x369 JUMPI PUSH1 0x0 DUP1 REVERT JUMPDEST POP PUSH2 0x384 PUSH1 0x4 DUP1 CALLDATASIZE SUB DUP2 ADD SWAP1 PUSH2 0x37F SWAP2 SWAP1 PUSH2 0x387D JUMP JUMPDEST PUSH2 0x1021 JUMP JUMPDEST PUSH1 0x40 MLOAD PUSH2 0x391 SWAP2 SWAP1 PUSH2 0x3981 JUMP JUMPDEST PUSH1 0x40 MLOAD DUP1 SWAP2 SUB SWAP1 RETURN JUMPDEST CALLVALUE DUP1 ISZERO PUSH2 0x3A6 JUMPI PUSH1 0x0 DUP1 REVERT JUMPDEST POP PUSH2 0x3C1 PUSH1 0x4 DUP1 CALLDATASIZE SUB DUP2 ADD SWAP1 PUSH2 0x3BC SWAP2 SWAP1 PUSH2 0x387D JUMP JUMPDEST PUSH2 0x1039 JUMP JUMPDEST PUSH1 0x40 MLOAD PUSH2 0x3CE SWAP2 SWAP1 PUSH2 0x3981 JUMP JUMPDEST PUSH1 0x40 MLOAD DUP1 SWAP2 SUB SWAP1 RETURN JUMPDEST CALLVALUE DUP1 ISZERO PUSH2 0x3E3 JUMPI PUSH1 0x0 DUP1 REVERT JUMPDEST POP PUSH2 0x3FE PUSH1 0x4 DUP1 CALLDATASIZE SUB DUP2 ADD SWAP1 PUSH2 0x3F9 SWAP2 SWAP1 PUSH2 0x3B24 JUMP JUMPDEST PUSH2 0x1051 JUMP JUMPDEST STOP JUMPDEST CALLVALUE DUP1 ISZERO PUSH2 0x40C JUMPI PUSH1 0x0 DUP1 REVERT JUMPDEST POP PUSH2 0x427 PUSH1 0x4 DUP1 CALLDATASIZE SUB DUP2 ADD SWAP1 PUSH2 0x422 SWAP2 SWAP1 PUSH2 0x399C JUMP JUMPDEST PUSH2 0x1073 JUMP JUMPDEST STOP JUMPDEST CALLVALUE DUP1 ISZERO PUSH2 0x435 JUMPI PUSH1 0x0 DUP1 REVERT JUMPDEST POP PUSH2 0x450 PUSH1 0x4 DUP1 CALLDATASIZE SUB DUP2 ADD SWAP1 PUSH2 0x44B SWAP2 SWAP1 PUSH2 0x387D JUMP JUMPDEST PUSH2 0x1093 JUMP JUMPDEST STOP JUMPDEST CALLVALUE DUP1 ISZERO PUSH2 0x45E JUMPI PUSH1 0x0 DUP1 REVERT JUMPDEST POP PUSH2 0x467 PUSH2 0x1115 JUMP JUMPDEST STOP JUMPDEST CALLVALUE DUP1 ISZERO PUSH2 0x475 JUMPI PUSH1 0x0 DUP1 REVERT JUMPDEST POP PUSH2 0x490 PUSH1 0x4 DUP1 CALLDATASIZE SUB DUP2 ADD SWAP1 PUSH2 0x48B SWAP2 SWAP1 PUSH2 0x387D JUMP JUMPDEST PUSH2 0x11D2 JUMP JUMPDEST PUSH1 0x40 MLOAD PUSH2 0x49D SWAP2 SWAP1 PUSH2 0x3981 JUMP JUMPDEST PUSH1 0x40 MLOAD DUP1 SWAP2 SUB SWAP1 RETURN JUMPDEST CALLVALUE DUP1 ISZERO PUSH2 0x4B2 JUMPI PUSH1 0x0 DUP1 REVERT JUMPDEST POP PUSH2 0x4CD PUSH1 0x4 DUP1 CALLDATASIZE SUB DUP2 ADD SWAP1 PUSH2 0x4C8 SWAP2 SWAP1 PUSH2 0x387D JUMP JUMPDEST PUSH2 0x11EA JUMP JUMPDEST PUSH1 0x40 MLOAD PUSH2 0x4DA SWAP2 SWAP1 PUSH2 0x3981 JUMP JUMPDEST PUSH1 0x40 MLOAD DUP1 SWAP2 SUB SWAP1 RETURN JUMPDEST CALLVALUE DUP1 ISZERO PUSH2 0x4EF JUMPI PUSH1 0x0 DUP1 REVERT JUMPDEST POP PUSH2 0x50A PUSH1 0x4 DUP1 CALLDATASIZE SUB DUP2 ADD SWAP1 PUSH2 0x505 SWAP2 SWAP1 PUSH2 0x387D JUMP JUMPDEST PUSH2 0x1202 JUMP JUMPDEST PUSH1 0x40 MLOAD PUSH2 0x517 SWAP2 SWAP1 PUSH2 0x38EB JUMP JUMPDEST PUSH1 0x40 MLOAD DUP1 SWAP2 SUB SWAP1 RETURN JUMPDEST CALLVALUE DUP1 ISZERO PUSH2 0x52C JUMPI PUSH1 0x0 DUP1 REVERT JUMPDEST POP PUSH2 0x535 PUSH2 0x12B4 JUMP JUMPDEST PUSH1 0x40 MLOAD PUSH2 0x542 SWAP2 SWAP1 PUSH2 0x3825 JUMP JUMPDEST PUSH1 0x40 MLOAD DUP1 SWAP2 SUB SWAP1 RETURN JUMPDEST CALLVALUE DUP1 ISZERO PUSH2 0x557 JUMPI PUSH1 0x0 DUP1 REVERT JUMPDEST POP PUSH2 0x572 PUSH1 0x4 DUP1 CALLDATASIZE SUB DUP2 ADD SWAP1 PUSH2 0x56D SWAP2 SWAP1 PUSH2 0x387D JUMP JUMPDEST PUSH2 0x1342 JUMP JUMPDEST PUSH1 0x40 MLOAD PUSH2 0x57F SWAP2 SWAP1 PUSH2 0x3981 JUMP JUMPDEST PUSH1 0x40 MLOAD DUP1 SWAP2 SUB SWAP1 RETURN JUMPDEST CALLVALUE DUP1 ISZERO PUSH2 0x594 JUMPI PUSH1 0x0 DUP1 REVERT JUMPDEST POP PUSH2 0x5AF PUSH1 0x4 DUP1 CALLDATASIZE SUB DUP2 ADD SWAP1 PUSH2 0x5AA SWAP2 SWAP1 PUSH2 0x3B6D JUMP JUMPDEST PUSH2 0x135A JUMP JUMPDEST PUSH1 0x40 MLOAD PUSH2 0x5BC SWAP2 SWAP1 PUSH2 0x3981 JUMP JUMPDEST PUSH1 0x40 MLOAD DUP1 SWAP2 SUB SWAP1 RETURN JUMPDEST CALLVALUE DUP1 ISZERO PUSH2 0x5D1 JUMPI PUSH1 0x0 DUP1 REVERT JUMPDEST POP PUSH2 0x5DA PUSH2 0x1412 JUMP JUMPDEST STOP JUMPDEST CALLVALUE DUP1 ISZERO PUSH2 0x5E8 JUMPI PUSH1 0x0 DUP1 REVERT JUMPDEST POP PUSH2 0x5F1 PUSH2 0x1426 JUMP JUMPDEST PUSH1 0x40 MLOAD PUSH2 0x5FE SWAP2 SWAP1 PUSH2 0x3825 JUMP JUMPDEST PUSH1 0x40 MLOAD DUP1 SWAP2 SUB SWAP1 RETURN JUMPDEST CALLVALUE DUP1 ISZERO PUSH2 0x613 JUMPI PUSH1 0x0 DUP1 REVERT JUMPDEST POP PUSH2 0x62E PUSH1 0x4 DUP1 CALLDATASIZE SUB DUP2 ADD SWAP1 PUSH2 0x629 SWAP2 SWAP1 PUSH2 0x387D JUMP JUMPDEST PUSH2 0x14B4 JUMP JUMPDEST PUSH1 0x40 MLOAD PUSH2 0x63B SWAP2 SWAP1 PUSH2 0x3981 JUMP JUMPDEST PUSH1 0x40 MLOAD DUP1 SWAP2 SUB SWAP1 RETURN JUMPDEST CALLVALUE DUP1 ISZERO PUSH2 0x650 JUMPI PUSH1 0x0 DUP1 REVERT JUMPDEST POP PUSH2 0x66B PUSH1 0x4 DUP1 CALLDATASIZE SUB DUP2 ADD SWAP1 PUSH2 0x666 SWAP2 SWAP1 PUSH2 0x387D JUMP JUMPDEST PUSH2 0x14CC JUMP JUMPDEST PUSH1 0x40 MLOAD PUSH2 0x678 SWAP2 SWAP1 PUSH2 0x3981 JUMP JUMPDEST PUSH1 0x40 MLOAD DUP1 SWAP2 SUB SWAP1 RETURN JUMPDEST CALLVALUE DUP1 ISZERO PUSH2 0x68D JUMPI PUSH1 0x0 DUP1 REVERT JUMPDEST POP PUSH2 0x696 PUSH2 0x14E4 JUMP JUMPDEST PUSH1 0x40 MLOAD PUSH2 0x6A3 SWAP2 SWAP1 PUSH2 0x38EB JUMP JUMPDEST PUSH1 0x40 MLOAD DUP1 SWAP2 SUB SWAP1 RETURN JUMPDEST CALLVALUE DUP1 ISZERO PUSH2 0x6B8 JUMPI PUSH1 0x0 DUP1 REVERT JUMPDEST POP PUSH2 0x6C1 PUSH2 0x150E JUMP JUMPDEST PUSH1 0x40 MLOAD PUSH2 0x6CE SWAP2 SWAP1 PUSH2 0x3825 JUMP JUMPDEST PUSH1 0x40 MLOAD DUP1 SWAP2 SUB SWAP1 RETURN JUMPDEST CALLVALUE DUP1 ISZERO PUSH2 0x6E3 JUMPI PUSH1 0x0 DUP1 REVERT JUMPDEST POP PUSH2 0x6EC PUSH2 0x15A0 JUMP JUMPDEST PUSH1 0x40 MLOAD PUSH2 0x6F9 SWAP2 SWAP1 PUSH2 0x3825 JUMP JUMPDEST PUSH1 0x40 MLOAD DUP1 SWAP2 SUB SWAP1 RETURN JUMPDEST CALLVALUE DUP1 ISZERO PUSH2 0x70E JUMPI PUSH1 0x0 DUP1 REVERT JUMPDEST POP PUSH2 0x717 PUSH2 0x162E JUMP JUMPDEST PUSH1 0x40 MLOAD PUSH2 0x724 SWAP2 SWAP1 PUSH2 0x3981 JUMP JUMPDEST PUSH1 0x40 MLOAD DUP1 SWAP2 SUB SWAP1 RETURN JUMPDEST CALLVALUE DUP1 ISZERO PUSH2 0x739 JUMPI PUSH1 0x0 DUP1 REVERT JUMPDEST POP PUSH2 0x754 PUSH1 0x4 DUP1 CALLDATASIZE SUB DUP2 ADD SWAP1 PUSH2 0x74F SWAP2 SWAP1 PUSH2 0x3BC6 JUMP JUMPDEST PUSH2 0x1634 JUMP JUMPDEST STOP JUMPDEST CALLVALUE DUP1 ISZERO PUSH2 0x762 JUMPI PUSH1 0x0 DUP1 REVERT JUMPDEST POP PUSH2 0x77D PUSH1 0x4 DUP1 CALLDATASIZE SUB DUP2 ADD SWAP1 PUSH2 0x778 SWAP2 SWAP1 PUSH2 0x387D JUMP JUMPDEST PUSH2 0x164A JUMP JUMPDEST PUSH1 0x40 MLOAD PUSH2 0x78A SWAP2 SWAP1 PUSH2 0x3981 JUMP JUMPDEST PUSH1 0x40 MLOAD DUP1 SWAP2 SUB SWAP1 RETURN JUMPDEST CALLVALUE DUP1 ISZERO PUSH2 0x79F JUMPI PUSH1 0x0 DUP1 REVERT JUMPDEST POP PUSH2 0x7BA PUSH1 0x4 DUP1 CALLDATASIZE SUB DUP2 ADD SWAP1 PUSH2 0x7B5 SWAP2 SWAP1 PUSH2 0x3CA7 JUMP JUMPDEST PUSH2 0x1662 JUMP JUMPDEST STOP JUMPDEST CALLVALUE DUP1 ISZERO PUSH2 0x7C8 JUMPI PUSH1 0x0 DUP1 REVERT JUMPDEST POP PUSH2 0x7E3 PUSH1 0x4 DUP1 CALLDATASIZE SUB DUP2 ADD SWAP1 PUSH2 0x7DE SWAP2 SWAP1 PUSH2 0x399C JUMP JUMPDEST PUSH2 0x16C4 JUMP JUMPDEST STOP JUMPDEST CALLVALUE DUP1 ISZERO PUSH2 0x7F1 JUMPI PUSH1 0x0 DUP1 REVERT JUMPDEST POP PUSH2 0x80C PUSH1 0x4 DUP1 CALLDATASIZE SUB DUP2 ADD SWAP1 PUSH2 0x807 SWAP2 SWAP1 PUSH2 0x387D JUMP JUMPDEST PUSH2 0x1742 JUMP JUMPDEST PUSH1 0x40 MLOAD PUSH2 0x819 SWAP2 SWAP1 PUSH2 0x3825 JUMP JUMPDEST PUSH1 0x40 MLOAD DUP1 SWAP2 SUB SWAP1 RETURN JUMPDEST CALLVALUE DUP1 ISZERO PUSH2 0x82E JUMPI PUSH1 0x0 DUP1 REVERT JUMPDEST POP PUSH2 0x849 PUSH1 0x4 DUP1 CALLDATASIZE SUB DUP2 ADD SWAP1 PUSH2 0x844 SWAP2 SWAP1 PUSH2 0x387D JUMP JUMPDEST PUSH2 0x1855 JUMP JUMPDEST PUSH1 0x40 MLOAD PUSH2 0x856 SWAP2 SWAP1 PUSH2 0x3981 JUMP JUMPDEST PUSH1 0x40 MLOAD DUP1 SWAP2 SUB SWAP1 RETURN JUMPDEST CALLVALUE DUP1 ISZERO PUSH2 0x86B JUMPI PUSH1 0x0 DUP1 REVERT JUMPDEST POP PUSH2 0x886 PUSH1 0x4 DUP1 CALLDATASIZE SUB DUP2 ADD SWAP1 PUSH2 0x881 SWAP2 SWAP1 PUSH2 0x3932 JUMP JUMPDEST PUSH2 0x186D JUMP JUMPDEST PUSH1 0x40 MLOAD PUSH2 0x893 SWAP2 SWAP1 PUSH2 0x3981 JUMP JUMPDEST PUSH1 0x40 MLOAD DUP1 SWAP2 SUB SWAP1 RETURN JUMPDEST CALLVALUE DUP1 ISZERO PUSH2 0x8A8 JUMPI PUSH1 0x0 DUP1 REVERT JUMPDEST POP PUSH2 0x8C3 PUSH1 0x4 DUP1 CALLDATASIZE SUB DUP2 ADD SWAP1 PUSH2 0x8BE SWAP2 SWAP1 PUSH2 0x3D2A JUMP JUMPDEST PUSH2 0x189E JUMP JUMPDEST STOP JUMPDEST CALLVALUE DUP1 ISZERO PUSH2 0x8D1 JUMPI PUSH1 0x0 DUP1 REVERT JUMPDEST POP PUSH2 0x8EC PUSH1 0x4 DUP1 CALLDATASIZE SUB DUP2 ADD SWAP1 PUSH2 0x8E7 SWAP2 SWAP1 PUSH2 0x3DA5 JUMP JUMPDEST PUSH2 0x194E JUMP JUMPDEST PUSH1 0x40 MLOAD PUSH2 0x8F9 SWAP2 SWAP1 PUSH2 0x3771 JUMP JUMPDEST PUSH1 0x40 MLOAD DUP1 SWAP2 SUB SWAP1 RETURN JUMPDEST CALLVALUE DUP1 ISZERO PUSH2 0x90E JUMPI PUSH1 0x0 DUP1 REVERT JUMPDEST POP PUSH2 0x929 PUSH1 0x4 DUP1 CALLDATASIZE SUB DUP2 ADD SWAP1 PUSH2 0x924 SWAP2 SWAP1 PUSH2 0x3B6D JUMP JUMPDEST PUSH2 0x19E2 JUMP JUMPDEST STOP JUMPDEST PUSH1 0x0 PUSH32 0x80AC58CD00000000000000000000000000000000000000000000000000000000 PUSH28 0xFFFFFFFFFFFFFFFFFFFFFFFFFFFFFFFFFFFFFFFFFFFFFFFFFFFFFFFF NOT AND DUP3 PUSH28 0xFFFFFFFFFFFFFFFFFFFFFFFFFFFFFFFFFFFFFFFFFFFFFFFFFFFFFFFF NOT AND EQ DUP1 PUSH2 0x9F6 JUMPI POP PUSH32 0x5B5E139F00000000000000000000000000000000000000000000000000000000 PUSH28 0xFFFFFFFFFFFFFFFFFFFFFFFFFFFFFFFFFFFFFFFFFFFFFFFFFFFFFFFF NOT AND DUP3 PUSH28 0xFFFFFFFFFFFFFFFFFFFFFFFFFFFFFFFFFFFFFFFFFFFFFFFFFFFFFFFF NOT AND EQ JUMPDEST DUP1 PUSH2 0xA06 JUMPI POP PUSH2 0xA05 DUP3 PUSH2 0x1A66 JUMP JUMPDEST JUMPDEST SWAP1 POP SWAP2 SWAP1 POP JUMP JUMPDEST PUSH1 0x60 PUSH1 0x0 DUP1 SLOAD PUSH2 0xA1C SWAP1 PUSH2 0x3E14 JUMP JUMPDEST DUP1 PUSH1 0x1F ADD PUSH1 0x20 DUP1 SWAP2 DIV MUL PUSH1 0x20 ADD PUSH1 0x40 MLOAD SWAP1 DUP2 ADD PUSH1 0x40 MSTORE DUP1 SWAP3 SWAP2 SWAP1 DUP2 DUP2 MSTORE PUSH1 0x20 ADD DUP3 DUP1 SLOAD PUSH2 0xA48 SWAP1 PUSH2 0x3E14 JUMP JUMPDEST DUP1 ISZERO PUSH2 0xA95 JUMPI DUP1 PUSH1 0x1F LT PUSH2 0xA6A JUMPI PUSH2 0x100 DUP1 DUP4 SLOAD DIV MUL DUP4 MSTORE SWAP2 PUSH1 0x20 ADD SWAP2 PUSH2 0xA95 JUMP JUMPDEST DUP3 ADD SWAP2 SWAP1 PUSH1 0x0 MSTORE PUSH1 0x20 PUSH1 0x0 KECCAK256 SWAP1 JUMPDEST DUP2 SLOAD DUP2 MSTORE SWAP1 PUSH1 0x1 ADD SWAP1 PUSH1 0x20 ADD DUP1 DUP4 GT PUSH2 0xA78 JUMPI DUP3 SWAP1 SUB PUSH1 0x1F AND DUP3 ADD SWAP2 JUMPDEST POP POP POP POP POP SWAP1 POP SWAP1 JUMP JUMPDEST PUSH1 0x0 PUSH2 0xAAA DUP3 PUSH2 0x1AD0 JUMP JUMPDEST PUSH1 0x4 PUSH1 0x0 DUP4 DUP2 MSTORE PUSH1 0x20 ADD SWAP1 DUP2 MSTORE PUSH1 0x20 ADD PUSH1 0x0 KECCAK256 PUSH1 0x0 SWAP1 SLOAD SWAP1 PUSH2 0x100 EXP SWAP1 DIV PUSH20 0xFFFFFFFFFFFFFFFFFFFFFFFFFFFFFFFFFFFFFFFF AND SWAP1 POP SWAP2 SWAP1 POP JUMP JUMPDEST PUSH1 0x0 PUSH2 0xAF0 DUP3 PUSH2 0x1202 JUMP JUMPDEST SWAP1 POP DUP1 PUSH20 0xFFFFFFFFFFFFFFFFFFFFFFFFFFFFFFFFFFFFFFFF AND DUP4 PUSH20 0xFFFFFFFFFFFFFFFFFFFFFFFFFFFFFFFFFFFFFFFF AND EQ ISZERO PUSH2 0xB61 JUMPI PUSH1 0x40 MLOAD PUSH32 0x8C379A000000000000000000000000000000000000000000000000000000000 DUP2 MSTORE PUSH1 0x4 ADD PUSH2 0xB58 SWAP1 PUSH2 0x3EB8 JUMP JUMPDEST PUSH1 0x40 MLOAD DUP1 SWAP2 SUB SWAP1 REVERT JUMPDEST DUP1 PUSH20 0xFFFFFFFFFFFFFFFFFFFFFFFFFFFFFFFFFFFFFFFF AND PUSH2 0xB80 PUSH2 0x1B1B JUMP JUMPDEST PUSH20 0xFFFFFFFFFFFFFFFFFFFFFFFFFFFFFFFFFFFFFFFF AND EQ DUP1 PUSH2 0xBAF JUMPI POP PUSH2 0xBAE DUP2 PUSH2 0xBA9 PUSH2 0x1B1B JUMP JUMPDEST PUSH2 0x194E JUMP JUMPDEST JUMPDEST PUSH2 0xBEE JUMPI PUSH1 0x40 MLOAD PUSH32 0x8C379A000000000000000000000000000000000000000000000000000000000 DUP2 MSTORE PUSH1 0x4 ADD PUSH2 0xBE5 SWAP1 PUSH2 0x3F4A JUMP JUMPDEST PUSH1 0x40 MLOAD DUP1 SWAP2 SUB SWAP1 REVERT JUMPDEST PUSH2 0xBF8 DUP4 DUP4 PUSH2 0x1B23 JUMP JUMPDEST POP POP POP JUMP JUMPDEST PUSH1 0x0 PUSH1 0x9 SLOAD GT PUSH2 0xC0C JUMPI PUSH1 0x0 DUP1 REVERT JUMPDEST PUSH8 0xDE0B6B3A7640000 CALLVALUE LT ISZERO PUSH2 0xC21 JUMPI PUSH1 0x0 DUP1 REVERT JUMPDEST PUSH1 0x0 PUSH1 0x9 SLOAD TIMESTAMP CALLER PUSH1 0xA SLOAD PUSH1 0x40 MLOAD PUSH1 0x20 ADD PUSH2 0xC3D SWAP4 SWAP3 SWAP2 SWAP1 PUSH2 0x3FD3 JUMP JUMPDEST PUSH1 0x40 MLOAD PUSH1 0x20 DUP2 DUP4 SUB SUB DUP2 MSTORE SWAP1 PUSH1 0x40 MSTORE DUP1 MLOAD SWAP1 PUSH1 0x20 ADD KECCAK256 PUSH1 0x0 SHR PUSH2 0xC60 SWAP2 SWAP1 PUSH2 0x403F JUMP JUMPDEST SWAP1 POP PUSH1 0xA PUSH1 0x0 DUP2 SLOAD DUP1 SWAP3 SWAP2 SWAP1 PUSH2 0xC75 SWAP1 PUSH2 0x409F JUMP JUMPDEST SWAP2 SWAP1 POP SSTORE POP PUSH1 0x0 DUP1 PUSH1 0x0 JUMPDEST PUSH2 0x3E8 DUP2 LT ISZERO PUSH2 0xD39 JUMPI PUSH1 0x0 ISZERO ISZERO PUSH1 0x22 PUSH1 0x0 DUP4 DUP2 MSTORE PUSH1 0x20 ADD SWAP1 DUP2 MSTORE PUSH1 0x20 ADD PUSH1 0x0 KECCAK256 PUSH1 0x0 SWAP1 SLOAD SWAP1 PUSH2 0x100 EXP SWAP1 DIV PUSH1 0xFF AND ISZERO ISZERO EQ ISZERO PUSH2 0xD26 JUMPI DUP4 DUP4 EQ ISZERO PUSH2 0xD17 JUMPI PUSH1 0x1 DUP2 PUSH2 0xCCC SWAP2 SWAP1 PUSH2 0x40E8 JUMP JUMPDEST SWAP2 POP PUSH1 0x1 PUSH1 0x22 PUSH1 0x0 DUP5 DUP2 MSTORE PUSH1 0x20 ADD SWAP1 DUP2 MSTORE PUSH1 0x20 ADD PUSH1 0x0 KECCAK256 PUSH1 0x0 PUSH2 0x100 EXP DUP2 SLOAD DUP2 PUSH1 0xFF MUL NOT AND SWAP1 DUP4 ISZERO ISZERO MUL OR SWAP1 SSTORE POP PUSH1 0x9 PUSH1 0x0 DUP2 SLOAD DUP1 SWAP3 SWAP2 SWAP1 PUSH2 0xD0D SWAP1 PUSH2 0x413E JUMP JUMPDEST SWAP2 SWAP1 POP SSTORE POP PUSH2 0xD39 JUMP JUMPDEST DUP3 DUP1 PUSH2 0xD22 SWAP1 PUSH2 0x409F JUMP JUMPDEST SWAP4 POP POP JUMPDEST DUP1 DUP1 PUSH2 0xD31 SWAP1 PUSH2 0x409F JUMP JUMPDEST SWAP2 POP POP PUSH2 0xC80 JUMP JUMPDEST POP PUSH1 0x21 PUSH1 0x0 CALLER PUSH20 0xFFFFFFFFFFFFFFFFFFFFFFFFFFFFFFFFFFFFFFFF AND PUSH20 0xFFFFFFFFFFFFFFFFFFFFFFFFFFFFFFFFFFFFFFFF AND DUP2 MSTORE PUSH1 0x20 ADD SWAP1 DUP2 MSTORE PUSH1 0x20 ADD PUSH1 0x0 KECCAK256 DUP2 SWAP1 DUP1 PUSH1 0x1 DUP2 SLOAD ADD DUP1 DUP3 SSTORE DUP1 SWAP2 POP POP PUSH1 0x1 SWAP1 SUB SWAP1 PUSH1 0x0 MSTORE PUSH1 0x20 PUSH1 0x0 KECCAK256 ADD PUSH1 0x0 SWAP1 SWAP2 SWAP1 SWAP2 SWAP1 SWAP2 POP SSTORE PUSH2 0xDAA CALLER DUP3 PUSH2 0x1BDC JUMP JUMPDEST PUSH1 0x1 DUP2 LT ISZERO DUP1 ISZERO PUSH2 0xDBD JUMPI POP PUSH2 0x1F4 DUP2 GT ISZERO JUMPDEST ISZERO PUSH2 0xDDC JUMPI PUSH1 0x1 PUSH1 0x23 PUSH1 0x0 DUP4 DUP2 MSTORE PUSH1 0x20 ADD SWAP1 DUP2 MSTORE PUSH1 0x20 ADD PUSH1 0x0 KECCAK256 DUP2 SWAP1 SSTORE POP JUMPDEST PUSH2 0x1F5 DUP2 LT ISZERO DUP1 ISZERO PUSH2 0xDF0 JUMPI POP PUSH2 0x2BC DUP2 GT ISZERO JUMPDEST ISZERO PUSH2 0xE0F JUMPI PUSH1 0x2 PUSH1 0x23 PUSH1 0x0 DUP4 DUP2 MSTORE PUSH1 0x20 ADD SWAP1 DUP2 MSTORE PUSH1 0x20 ADD PUSH1 0x0 KECCAK256 DUP2 SWAP1 SSTORE POP JUMPDEST PUSH2 0x2BD DUP2 LT ISZERO DUP1 ISZERO PUSH2 0xE23 JUMPI POP PUSH2 0x352 DUP2 GT ISZERO JUMPDEST ISZERO PUSH2 0xE42 JUMPI PUSH1 0x3 PUSH1 0x23 PUSH1 0x0 DUP4 DUP2 MSTORE PUSH1 0x20 ADD SWAP1 DUP2 MSTORE PUSH1 0x20 ADD PUSH1 0x0 KECCAK256 DUP2 SWAP1 SSTORE POP JUMPDEST PUSH2 0x353 DUP2 LT ISZERO DUP1 ISZERO PUSH2 0xE56 JUMPI POP PUSH2 0x3B6 DUP2 GT ISZERO JUMPDEST ISZERO PUSH2 0xE75 JUMPI PUSH1 0x4 PUSH1 0x23 PUSH1 0x0 DUP4 DUP2 MSTORE PUSH1 0x20 ADD SWAP1 DUP2 MSTORE PUSH1 0x20 ADD PUSH1 0x0 KECCAK256 DUP2 SWAP1 SSTORE POP JUMPDEST PUSH2 0x3B7 DUP2 LT ISZERO DUP1 ISZERO PUSH2 0xE89 JUMPI POP PUSH2 0x3E8 DUP2 GT ISZERO JUMPDEST ISZERO PUSH2 0xEA8 JUMPI PUSH1 0x5 PUSH1 0x23 PUSH1 0x0 DUP4 DUP2 MSTORE PUSH1 0x20 ADD SWAP1 DUP2 MSTORE PUSH1 0x20 ADD PUSH1 0x0 KECCAK256 DUP2 SWAP1 SSTORE POP JUMPDEST PUSH1 0x23 PUSH1 0x0 DUP3 DUP2 MSTORE PUSH1 0x20 ADD SWAP1 DUP2 MSTORE PUSH1 0x20 ADD PUSH1 0x0 KECCAK256 SLOAD PUSH1 0xE PUSH1 0x0 DUP4 DUP2 MSTORE PUSH1 0x20 ADD SWAP1 DUP2 MSTORE PUSH1 0x20 ADD PUSH1 0x0 KECCAK256 DUP2 SWAP1 SSTORE POP PUSH1 0x1 PUSH1 0xF PUSH1 0x0 DUP4 DUP2 MSTORE PUSH1 0x20 ADD SWAP1 DUP2 MSTORE PUSH1 0x20 ADD PUSH1 0x0 KECCAK256 DUP2 SWAP1 SSTORE POP PUSH1 0x1 PUSH1 0x10 PUSH1 0x0 DUP4 DUP2 MSTORE PUSH1 0x20 ADD SWAP1 DUP2 MSTORE PUSH1 0x20 ADD PUSH1 0x0 KECCAK256 DUP2 SWAP1 SSTORE POP PUSH1 0x1 PUSH1 0x11 PUSH1 0x0 DUP4 DUP2 MSTORE PUSH1 0x20 ADD SWAP1 DUP2 MSTORE PUSH1 0x20 ADD PUSH1 0x0 KECCAK256 DUP2 SWAP1 SSTORE POP PUSH1 0x1 PUSH1 0x12 PUSH1 0x0 DUP4 DUP2 MSTORE PUSH1 0x20 ADD SWAP1 DUP2 MSTORE PUSH1 0x20 ADD PUSH1 0x0 KECCAK256 DUP2 SWAP1 SSTORE POP PUSH1 0x5 PUSH1 0x13 PUSH1 0x0 DUP4 DUP2 MSTORE PUSH1 0x20 ADD SWAP1 DUP2 MSTORE PUSH1 0x20 ADD PUSH1 0x0 KECCAK256 DUP2 SWAP1 SSTORE POP PUSH1 0x5 PUSH1 0x14 PUSH1 0x0 DUP4 DUP2 MSTORE PUSH1 0x20 ADD SWAP1 DUP2 MSTORE PUSH1 0x20 ADD PUSH1 0x0 KECCAK256 DUP2 SWAP1 SSTORE POP PUSH1 0x5 PUSH1 0x15 PUSH1 0x0 DUP4 DUP2 MSTORE PUSH1 0x20 ADD SWAP1 DUP2 MSTORE PUSH1 0x20 ADD PUSH1 0x0 KECCAK256 DUP2 SWAP1 SSTORE POP PUSH1 0x5 PUSH1 0x16 PUSH1 0x0 DUP4 DUP2 MSTORE PUSH1 0x20 ADD SWAP1 DUP2 MSTORE PUSH1 0x20 ADD PUSH1 0x0 KECCAK256 DUP2 SWAP1 SSTORE POP PUSH2 0xFA4 DUP2 PUSH2 0x1BFA JUMP JUMPDEST POP POP POP JUMP JUMPDEST PUSH1 0x10 PUSH1 0x20 MSTORE DUP1 PUSH1 0x0 MSTORE PUSH1 0x40 PUSH1 0x0 KECCAK256 PUSH1 0x0 SWAP2 POP SWAP1 POP SLOAD DUP2 JUMP JUMPDEST PUSH2 0xFD2 PUSH2 0xFCC PUSH2 0x1B1B JUMP JUMPDEST DUP3 PUSH2 0x1F7A JUMP JUMPDEST PUSH2 0x1011 JUMPI PUSH1 0x40 MLOAD PUSH32 0x8C379A000000000000000000000000000000000000000000000000000000000 DUP2 MSTORE PUSH1 0x4 ADD PUSH2 0x1008 SWAP1 PUSH2 0x41DA JUMP JUMPDEST PUSH1 0x40 MLOAD DUP1 SWAP2 SUB SWAP1 REVERT JUMPDEST PUSH2 0x101C DUP4 DUP4 DUP4 PUSH2 0x200F JUMP JUMPDEST POP POP POP JUMP JUMPDEST PUSH1 0xE PUSH1 0x20 MSTORE DUP1 PUSH1 0x0 MSTORE PUSH1 0x40 PUSH1 0x0 KECCAK256 PUSH1 0x0 SWAP2 POP SWAP1 POP SLOAD DUP2 JUMP JUMPDEST PUSH1 0x12 PUSH1 0x20 MSTORE DUP1 PUSH1 0x0 MSTORE PUSH1 0x40 PUSH1 0x0 KECCAK256 PUSH1 0x0 SWAP2 POP SWAP1 POP SLOAD DUP2 JUMP JUMPDEST PUSH2 0x1059 PUSH2 0x2276 JUMP JUMPDEST DUP1 PUSH1 0xC SWAP1 DUP1 MLOAD SWAP1 PUSH1 0x20 ADD SWAP1 PUSH2 0x106F SWAP3 SWAP2 SWAP1 PUSH2 0x35DA JUMP JUMPDEST POP POP JUMP JUMPDEST PUSH2 0x108E DUP4 DUP4 DUP4 PUSH1 0x40 MLOAD DUP1 PUSH1 0x20 ADD PUSH1 0x40 MSTORE DUP1 PUSH1 0x0 DUP2 MSTORE POP PUSH2 0x1662 JUMP JUMPDEST POP POP POP JUMP JUMPDEST PUSH2 0x109C DUP2 PUSH2 0x1202 JUMP JUMPDEST PUSH20 0xFFFFFFFFFFFFFFFFFFFFFFFFFFFFFFFFFFFFFFFF AND CALLER PUSH20 0xFFFFFFFFFFFFFFFFFFFFFFFFFFFFFFFFFFFFFFFF AND EQ PUSH2 0x1109 JUMPI PUSH1 0x40 MLOAD PUSH32 0x8C379A000000000000000000000000000000000000000000000000000000000 DUP2 MSTORE PUSH1 0x4 ADD PUSH2 0x1100 SWAP1 PUSH2 0x426C JUMP JUMPDEST PUSH1 0x40 MLOAD DUP1 SWAP2 SUB SWAP1 REVERT JUMPDEST PUSH2 0x1112 DUP2 PUSH2 0x236E JUMP JUMPDEST POP JUMP JUMPDEST PUSH2 0x111D PUSH2 0x2276 JUMP JUMPDEST PUSH1 0x0 CALLER SWAP1 POP PUSH1 0x0 DUP2 PUSH20 0xFFFFFFFFFFFFFFFFFFFFFFFFFFFFFFFFFFFFFFFF AND SELFBALANCE PUSH1 0x40 MLOAD PUSH2 0x1148 SWAP1 PUSH2 0x42BD JUMP JUMPDEST PUSH1 0x0 PUSH1 0x40 MLOAD DUP1 DUP4 SUB DUP2 DUP6 DUP8 GAS CALL SWAP3 POP POP POP RETURNDATASIZE DUP1 PUSH1 0x0 DUP2 EQ PUSH2 0x1185 JUMPI PUSH1 0x40 MLOAD SWAP2 POP PUSH1 0x1F NOT PUSH1 0x3F RETURNDATASIZE ADD AND DUP3 ADD PUSH1 0x40 MSTORE RETURNDATASIZE DUP3 MSTORE RETURNDATASIZE PUSH1 0x0 PUSH1 0x20 DUP5 ADD RETURNDATACOPY PUSH2 0x118A JUMP JUMPDEST PUSH1 0x60 SWAP2 POP JUMPDEST POP POP SWAP1 POP DUP1 PUSH2 0x11CE JUMPI PUSH1 0x40 MLOAD PUSH32 0x8C379A000000000000000000000000000000000000000000000000000000000 DUP2 MSTORE PUSH1 0x4 ADD PUSH2 0x11C5 SWAP1 PUSH2 0x431E JUMP JUMPDEST PUSH1 0x40 MLOAD DUP1 SWAP2 SUB SWAP1 REVERT JUMPDEST POP POP JUMP JUMPDEST PUSH1 0x14 PUSH1 0x20 MSTORE DUP1 PUSH1 0x0 MSTORE PUSH1 0x40 PUSH1 0x0 KECCAK256 PUSH1 0x0 SWAP2 POP SWAP1 POP SLOAD DUP2 JUMP JUMPDEST PUSH1 0xF PUSH1 0x20 MSTORE DUP1 PUSH1 0x0 MSTORE PUSH1 0x40 PUSH1 0x0 KECCAK256 PUSH1 0x0 SWAP2 POP SWAP1 POP SLOAD DUP2 JUMP JUMPDEST PUSH1 0x0 DUP1 PUSH1 0x2 PUSH1 0x0 DUP5 DUP2 MSTORE PUSH1 0x20 ADD SWAP1 DUP2 MSTORE PUSH1 0x20 ADD PUSH1 0x0 KECCAK256 PUSH1 0x0 SWAP1 SLOAD SWAP1 PUSH2 0x100 EXP SWAP1 DIV PUSH20 0xFFFFFFFFFFFFFFFFFFFFFFFFFFFFFFFFFFFFFFFF AND SWAP1 POP PUSH1 0x0 PUSH20 0xFFFFFFFFFFFFFFFFFFFFFFFFFFFFFFFFFFFFFFFF AND DUP2 PUSH20 0xFFFFFFFFFFFFFFFFFFFFFFFFFFFFFFFFFFFFFFFF AND EQ ISZERO PUSH2 0x12AB JUMPI PUSH1 0x40 MLOAD PUSH32 0x8C379A000000000000000000000000000000000000000000000000000000000 DUP2 MSTORE PUSH1 0x4 ADD PUSH2 0x12A2 SWAP1 PUSH2 0x438A JUMP JUMPDEST PUSH1 0x40 MLOAD DUP1 SWAP2 SUB SWAP1 REVERT JUMPDEST DUP1 SWAP2 POP POP SWAP2 SWAP1 POP JUMP JUMPDEST PUSH1 0xB DUP1 SLOAD PUSH2 0x12C1 SWAP1 PUSH2 0x3E14 JUMP JUMPDEST DUP1 PUSH1 0x1F ADD PUSH1 0x20 DUP1 SWAP2 DIV MUL PUSH1 0x20 ADD PUSH1 0x40 MLOAD SWAP1 DUP2 ADD PUSH1 0x40 MSTORE DUP1 SWAP3 SWAP2 SWAP1 DUP2 DUP2 MSTORE PUSH1 0x20 ADD DUP3 DUP1 SLOAD PUSH2 0x12ED SWAP1 PUSH2 0x3E14 JUMP JUMPDEST DUP1 ISZERO PUSH2 0x133A JUMPI DUP1 PUSH1 0x1F LT PUSH2 0x130F JUMPI PUSH2 0x100 DUP1 DUP4 SLOAD DIV MUL DUP4 MSTORE SWAP2 PUSH1 0x20 ADD SWAP2 PUSH2 0x133A JUMP JUMPDEST DUP3 ADD SWAP2 SWAP1 PUSH1 0x0 MSTORE PUSH1 0x20 PUSH1 0x0 KECCAK256 SWAP1 JUMPDEST DUP2 SLOAD DUP2 MSTORE SWAP1 PUSH1 0x1 ADD SWAP1 PUSH1 0x20 ADD DUP1 DUP4 GT PUSH2 0x131D JUMPI DUP3 SWAP1 SUB PUSH1 0x1F AND DUP3 ADD SWAP2 JUMPDEST POP POP POP POP POP DUP2 JUMP JUMPDEST PUSH1 0x23 PUSH1 0x20 MSTORE DUP1 PUSH1 0x0 MSTORE PUSH1 0x40 PUSH1 0x0 KECCAK256 PUSH1 0x0 SWAP2 POP SWAP1 POP SLOAD DUP2 JUMP JUMPDEST PUSH1 0x0 DUP1 PUSH20 0xFFFFFFFFFFFFFFFFFFFFFFFFFFFFFFFFFFFFFFFF AND DUP3 PUSH20 0xFFFFFFFFFFFFFFFFFFFFFFFFFFFFFFFFFFFFFFFF AND EQ ISZERO PUSH2 0x13CB JUMPI PUSH1 0x40 MLOAD PUSH32 0x8C379A000000000000000000000000000000000000000000000000000000000 DUP2 MSTORE PUSH1 0x4 ADD PUSH2 0x13C2 SWAP1 PUSH2 0x441C JUMP JUMPDEST PUSH1 0x40 MLOAD DUP1 SWAP2 SUB SWAP1 REVERT JUMPDEST PUSH1 0x3 PUSH1 0x0 DUP4 PUSH20 0xFFFFFFFFFFFFFFFFFFFFFFFFFFFFFFFFFFFFFFFF AND PUSH20 0xFFFFFFFFFFFFFFFFFFFFFFFFFFFFFFFFFFFFFFFF AND DUP2 MSTORE PUSH1 0x20 ADD SWAP1 DUP2 MSTORE PUSH1 0x20 ADD PUSH1 0x0 KECCAK256 SLOAD SWAP1 POP SWAP2 SWAP1 POP JUMP JUMPDEST PUSH2 0x141A PUSH2 0x2276 JUMP JUMPDEST PUSH2 0x1424 PUSH1 0x0 PUSH2 0x23C1 JUMP JUMPDEST JUMP JUMPDEST PUSH1 0xC DUP1 SLOAD PUSH2 0x1433 SWAP1 PUSH2 0x3E14 JUMP JUMPDEST DUP1 PUSH1 0x1F ADD PUSH1 0x20 DUP1 SWAP2 DIV MUL PUSH1 0x20 ADD PUSH1 0x40 MLOAD SWAP1 DUP2 ADD PUSH1 0x40 MSTORE DUP1 SWAP3 SWAP2 SWAP1 DUP2 DUP2 MSTORE PUSH1 0x20 ADD DUP3 DUP1 SLOAD PUSH2 0x145F SWAP1 PUSH2 0x3E14 JUMP JUMPDEST DUP1 ISZERO PUSH2 0x14AC JUMPI DUP1 PUSH1 0x1F LT PUSH2 0x1481 JUMPI PUSH2 0x100 DUP1 DUP4 SLOAD DIV MUL DUP4 MSTORE SWAP2 PUSH1 0x20 ADD SWAP2 PUSH2 0x14AC JUMP JUMPDEST DUP3 ADD SWAP2 SWAP1 PUSH1 0x0 MSTORE PUSH1 0x20 PUSH1 0x0 KECCAK256 SWAP1 JUMPDEST DUP2 SLOAD DUP2 MSTORE SWAP1 PUSH1 0x1 ADD SWAP1 PUSH1 0x20 ADD DUP1 DUP4 GT PUSH2 0x148F JUMPI DUP3 SWAP1 SUB PUSH1 0x1F AND DUP3 ADD SWAP2 JUMPDEST POP POP POP POP POP DUP2 JUMP JUMPDEST PUSH1 0x16 PUSH1 0x20 MSTORE DUP1 PUSH1 0x0 MSTORE PUSH1 0x40 PUSH1 0x0 KECCAK256 PUSH1 0x0 SWAP2 POP SWAP1 POP SLOAD DUP2 JUMP JUMPDEST PUSH1 0x13 PUSH1 0x20 MSTORE DUP1 PUSH1 0x0 MSTORE PUSH1 0x40 PUSH1 0x0 KECCAK256 PUSH1 0x0 SWAP2 POP SWAP1 POP SLOAD DUP2 JUMP JUMPDEST PUSH1 0x0 PUSH1 0x8 PUSH1 0x0 SWAP1 SLOAD SWAP1 PUSH2 0x100 EXP SWAP1 DIV PUSH20 0xFFFFFFFFFFFFFFFFFFFFFFFFFFFFFFFFFFFFFFFF AND SWAP1 POP SWAP1 JUMP JUMPDEST PUSH1 0x60 PUSH1 0x1 DUP1 SLOAD PUSH2 0x151D SWAP1 PUSH2 0x3E14 JUMP JUMPDEST DUP1 PUSH1 0x1F ADD PUSH1 0x20 DUP1 SWAP2 DIV MUL PUSH1 0x20 ADD PUSH1 0x40 MLOAD SWAP1 DUP2 ADD PUSH1 0x40 MSTORE DUP1 SWAP3 SWAP2 SWAP1 DUP2 DUP2 MSTORE PUSH1 0x20 ADD DUP3 DUP1 SLOAD PUSH2 0x1549 SWAP1 PUSH2 0x3E14 JUMP JUMPDEST DUP1 ISZERO PUSH2 0x1596 JUMPI DUP1 PUSH1 0x1F LT PUSH2 0x156B JUMPI PUSH2 0x100 DUP1 DUP4 SLOAD DIV MUL DUP4 MSTORE SWAP2 PUSH1 0x20 ADD SWAP2 PUSH2 0x1596 JUMP JUMPDEST DUP3 ADD SWAP2 SWAP1 PUSH1 0x0 MSTORE PUSH1 0x20 PUSH1 0x0 KECCAK256 SWAP1 JUMPDEST DUP2 SLOAD DUP2 MSTORE SWAP1 PUSH1 0x1 ADD SWAP1 PUSH1 0x20 ADD DUP1 DUP4 GT PUSH2 0x1579 JUMPI DUP3 SWAP1 SUB PUSH1 0x1F AND DUP3 ADD SWAP2 JUMPDEST POP POP POP POP POP SWAP1 POP SWAP1 JUMP JUMPDEST PUSH1 0xD DUP1 SLOAD PUSH2 0x15AD SWAP1 PUSH2 0x3E14 JUMP JUMPDEST DUP1 PUSH1 0x1F ADD PUSH1 0x20 DUP1 SWAP2 DIV MUL PUSH1 0x20 ADD PUSH1 0x40 MLOAD SWAP1 DUP2 ADD PUSH1 0x40 MSTORE DUP1 SWAP3 SWAP2 SWAP1 DUP2 DUP2 MSTORE PUSH1 0x20 ADD DUP3 DUP1 SLOAD PUSH2 0x15D9 SWAP1 PUSH2 0x3E14 JUMP JUMPDEST DUP1 ISZERO PUSH2 0x1626 JUMPI DUP1 PUSH1 0x1F LT PUSH2 0x15FB JUMPI PUSH2 0x100 DUP1 DUP4 SLOAD DIV MUL DUP4 MSTORE SWAP2 PUSH1 0x20 ADD SWAP2 PUSH2 0x1626 JUMP JUMPDEST DUP3 ADD SWAP2 SWAP1 PUSH1 0x0 MSTORE PUSH1 0x20 PUSH1 0x0 KECCAK256 SWAP1 JUMPDEST DUP2 SLOAD DUP2 MSTORE SWAP1 PUSH1 0x1 ADD SWAP1 PUSH1 0x20 ADD DUP1 DUP4 GT PUSH2 0x1609 JUMPI DUP3 SWAP1 SUB PUSH1 0x1F AND DUP3 ADD SWAP2 JUMPDEST POP POP POP POP POP DUP2 JUMP JUMPDEST PUSH1 0x9 SLOAD DUP2 JUMP JUMPDEST PUSH2 0x1646 PUSH2 0x163F PUSH2 0x1B1B JUMP JUMPDEST DUP4 DUP4 PUSH2 0x2481 JUMP JUMPDEST POP POP JUMP JUMPDEST PUSH1 0x11 PUSH1 0x20 MSTORE DUP1 PUSH1 0x0 MSTORE PUSH1 0x40 PUSH1 0x0 KECCAK256 PUSH1 0x0 SWAP2 POP SWAP1 POP SLOAD DUP2 JUMP JUMPDEST PUSH2 0x1673 PUSH2 0x166D PUSH2 0x1B1B JUMP JUMPDEST DUP4 PUSH2 0x1F7A JUMP JUMPDEST PUSH2 0x16B2 JUMPI PUSH1 0x40 MLOAD PUSH32 0x8C379A000000000000000000000000000000000000000000000000000000000 DUP2 MSTORE PUSH1 0x4 ADD PUSH2 0x16A9 SWAP1 PUSH2 0x41DA JUMP JUMPDEST PUSH1 0x40 MLOAD DUP1 SWAP2 SUB SWAP1 REVERT JUMPDEST PUSH2 0x16BE DUP5 DUP5 DUP5 DUP5 PUSH2 0x25EE JUMP JUMPDEST POP POP POP POP JUMP JUMPDEST DUP3 PUSH20 0xFFFFFFFFFFFFFFFFFFFFFFFFFFFFFFFFFFFFFFFF AND CALLER PUSH20 0xFFFFFFFFFFFFFFFFFFFFFFFFFFFFFFFFFFFFFFFF AND EQ PUSH2 0x1732 JUMPI PUSH1 0x40 MLOAD PUSH32 0x8C379A000000000000000000000000000000000000000000000000000000000 DUP2 MSTORE PUSH1 0x4 ADD PUSH2 0x1729 SWAP1 PUSH2 0x426C JUMP JUMPDEST PUSH1 0x40 MLOAD DUP1 SWAP2 SUB SWAP1 REVERT JUMPDEST PUSH2 0x173D DUP4 DUP4 DUP4 PUSH2 0x200F JUMP JUMPDEST POP POP POP JUMP JUMPDEST PUSH1 0x60 PUSH2 0x174D DUP3 PUSH2 0x1AD0 JUMP JUMPDEST PUSH1 0x0 PUSH1 0x6 PUSH1 0x0 DUP5 DUP2 MSTORE PUSH1 0x20 ADD SWAP1 DUP2 MSTORE PUSH1 0x20 ADD PUSH1 0x0 KECCAK256 DUP1 SLOAD PUSH2 0x176D SWAP1 PUSH2 0x3E14 JUMP JUMPDEST DUP1 PUSH1 0x1F ADD PUSH1 0x20 DUP1 SWAP2 DIV MUL PUSH1 0x20 ADD PUSH1 0x40 MLOAD SWAP1 DUP2 ADD PUSH1 0x40 MSTORE DUP1 SWAP3 SWAP2 SWAP1 DUP2 DUP2 MSTORE PUSH1 0x20 ADD DUP3 DUP1 SLOAD PUSH2 0x1799 SWAP1 PUSH2 0x3E14 JUMP JUMPDEST DUP1 ISZERO PUSH2 0x17E6 JUMPI DUP1 PUSH1 0x1F LT PUSH2 0x17BB JUMPI PUSH2 0x100 DUP1 DUP4 SLOAD DIV MUL DUP4 MSTORE SWAP2 PUSH1 0x20 ADD SWAP2 PUSH2 0x17E6 JUMP JUMPDEST DUP3 ADD SWAP2 SWAP1 PUSH1 0x0 MSTORE PUSH1 0x20 PUSH1 0x0 KECCAK256 SWAP1 JUMPDEST DUP2 SLOAD DUP2 MSTORE SWAP1 PUSH1 0x1 ADD SWAP1 PUSH1 0x20 ADD DUP1 DUP4 GT PUSH2 0x17C9 JUMPI DUP3 SWAP1 SUB PUSH1 0x1F AND DUP3 ADD SWAP2 JUMPDEST POP POP POP POP POP SWAP1 POP PUSH1 0x0 PUSH2 0x17F7 PUSH2 0x264A JUMP JUMPDEST SWAP1 POP PUSH1 0x0 DUP2 MLOAD EQ ISZERO PUSH2 0x180D JUMPI DUP2 SWAP3 POP POP POP PUSH2 0x1850 JUMP JUMPDEST PUSH1 0x0 DUP3 MLOAD GT ISZERO PUSH2 0x1842 JUMPI DUP1 DUP3 PUSH1 0x40 MLOAD PUSH1 0x20 ADD PUSH2 0x182A SWAP3 SWAP2 SWAP1 PUSH2 0x4478 JUMP JUMPDEST PUSH1 0x40 MLOAD PUSH1 0x20 DUP2 DUP4 SUB SUB DUP2 MSTORE SWAP1 PUSH1 0x40 MSTORE SWAP3 POP POP POP PUSH2 0x1850 JUMP JUMPDEST PUSH2 0x184B DUP5 PUSH2 0x2661 JUMP JUMPDEST SWAP3 POP POP POP JUMPDEST SWAP2 SWAP1 POP JUMP JUMPDEST PUSH1 0x15 PUSH1 0x20 MSTORE DUP1 PUSH1 0x0 MSTORE PUSH1 0x40 PUSH1 0x0 KECCAK256 PUSH1 0x0 SWAP2 POP SWAP1 POP SLOAD DUP2 JUMP JUMPDEST PUSH1 0x21 PUSH1 0x20 MSTORE DUP2 PUSH1 0x0 MSTORE PUSH1 0x40 PUSH1 0x0 KECCAK256 DUP2 DUP2 SLOAD DUP2 LT PUSH2 0x1889 JUMPI PUSH1 0x0 DUP1 REVERT JUMPDEST SWAP1 PUSH1 0x0 MSTORE PUSH1 0x20 PUSH1 0x0 KECCAK256 ADD PUSH1 0x0 SWAP2 POP SWAP2 POP POP SLOAD DUP2 JUMP JUMPDEST PUSH2 0x18A7 DUP6 PUSH2 0x1202 JUMP JUMPDEST PUSH20 0xFFFFFFFFFFFFFFFFFFFFFFFFFFFFFFFFFFFFFFFF AND CALLER PUSH20 0xFFFFFFFFFFFFFFFFFFFFFFFFFFFFFFFFFFFFFFFF AND EQ PUSH2 0x18DE JUMPI PUSH1 0x0 DUP1 REVERT JUMPDEST DUP4 PUSH1 0xF PUSH1 0x0 DUP8 DUP2 MSTORE PUSH1 0x20 ADD SWAP1 DUP2 MSTORE PUSH1 0x20 ADD PUSH1 0x0 KECCAK256 DUP2 SWAP1 SSTORE POP DUP3 PUSH1 0x10 PUSH1 0x0 DUP8 DUP2 MSTORE PUSH1 0x20 ADD SWAP1 DUP2 MSTORE PUSH1 0x20 ADD PUSH1 0x0 KECCAK256 DUP2 SWAP1 SSTORE POP DUP2 PUSH1 0x11 PUSH1 0x0 DUP8 DUP2 MSTORE PUSH1 0x20 ADD SWAP1 DUP2 MSTORE PUSH1 0x20 ADD PUSH1 0x0 KECCAK256 DUP2 SWAP1 SSTORE POP DUP1 PUSH1 0x12 PUSH1 0x0 DUP8 DUP2 MSTORE PUSH1 0x20 ADD SWAP1 DUP2 MSTORE PUSH1 0x20 ADD PUSH1 0x0 KECCAK256 DUP2 SWAP1 SSTORE POP PUSH2 0x1947 DUP6 PUSH2 0x1BFA JUMP JUMPDEST POP POP POP POP POP JUMP JUMPDEST PUSH1 0x0 PUSH1 0x5 PUSH1 0x0 DUP5 PUSH20 0xFFFFFFFFFFFFFFFFFFFFFFFFFFFFFFFFFFFFFFFF AND PUSH20 0xFFFFFFFFFFFFFFFFFFFFFFFFFFFFFFFFFFFFFFFF AND DUP2 MSTORE PUSH1 0x20 ADD SWAP1 DUP2 MSTORE PUSH1 0x20 ADD PUSH1 0x0 KECCAK256 PUSH1 0x0 DUP4 PUSH20 0xFFFFFFFFFFFFFFFFFFFFFFFFFFFFFFFFFFFFFFFF AND PUSH20 0xFFFFFFFFFFFFFFFFFFFFFFFFFFFFFFFFFFFFFFFF AND DUP2 MSTORE PUSH1 0x20 ADD SWAP1 DUP2 MSTORE PUSH1 0x20 ADD PUSH1 0x0 KECCAK256 PUSH1 0x0 SWAP1 SLOAD SWAP1 PUSH2 0x100 EXP SWAP1 DIV PUSH1 0xFF AND SWAP1 POP SWAP3 SWAP2 POP POP JUMP JUMPDEST PUSH2 0x19EA PUSH2 0x2276 JUMP JUMPDEST PUSH1 0x0 PUSH20 0xFFFFFFFFFFFFFFFFFFFFFFFFFFFFFFFFFFFFFFFF AND DUP2 PUSH20 0xFFFFFFFFFFFFFFFFFFFFFFFFFFFFFFFFFFFFFFFF AND EQ ISZERO PUSH2 0x1A5A JUMPI PUSH1 0x40 MLOAD PUSH32 0x8C379A000000000000000000000000000000000000000000000000000000000 DUP2 MSTORE PUSH1 0x4 ADD PUSH2 0x1A51 SWAP1 PUSH2 0x450E JUMP JUMPDEST PUSH1 0x40 MLOAD DUP1 SWAP2 SUB SWAP1 REVERT JUMPDEST PUSH2 0x1A63 DUP2 PUSH2 0x23C1 JUMP JUMPDEST POP JUMP JUMPDEST PUSH1 0x0 PUSH32 0x1FFC9A700000000000000000000000000000000000000000000000000000000 PUSH28 0xFFFFFFFFFFFFFFFFFFFFFFFFFFFFFFFFFFFFFFFFFFFFFFFFFFFFFFFF NOT AND DUP3 PUSH28 0xFFFFFFFFFFFFFFFFFFFFFFFFFFFFFFFFFFFFFFFFFFFFFFFFFFFFFFFF NOT AND EQ SWAP1 POP SWAP2 SWAP1 POP JUMP JUMPDEST PUSH2 0x1AD9 DUP2 PUSH2 0x26C9 JUMP JUMPDEST PUSH2 0x1B18 JUMPI PUSH1 0x40 MLOAD PUSH32 0x8C379A000000000000000000000000000000000000000000000000000000000 DUP2 MSTORE PUSH1 0x4 ADD PUSH2 0x1B0F SWAP1 PUSH2 0x438A JUMP JUMPDEST PUSH1 0x40 MLOAD DUP1 SWAP2 SUB SWAP1 REVERT JUMPDEST POP JUMP JUMPDEST PUSH1 0x0 CALLER SWAP1 POP SWAP1 JUMP JUMPDEST DUP2 PUSH1 0x4 PUSH1 0x0 DUP4 DUP2 MSTORE PUSH1 0x20 ADD SWAP1 DUP2 MSTORE PUSH1 0x20 ADD PUSH1 0x0 KECCAK256 PUSH1 0x0 PUSH2 0x100 EXP DUP2 SLOAD DUP2 PUSH20 0xFFFFFFFFFFFFFFFFFFFFFFFFFFFFFFFFFFFFFFFF MUL NOT AND SWAP1 DUP4 PUSH20 0xFFFFFFFFFFFFFFFFFFFFFFFFFFFFFFFFFFFFFFFF AND MUL OR SWAP1 SSTORE POP DUP1 DUP3 PUSH20 0xFFFFFFFFFFFFFFFFFFFFFFFFFFFFFFFFFFFFFFFF AND PUSH2 0x1B96 DUP4 PUSH2 0x1202 JUMP JUMPDEST PUSH20 0xFFFFFFFFFFFFFFFFFFFFFFFFFFFFFFFFFFFFFFFF AND PUSH32 0x8C5BE1E5EBEC7D5BD14F71427D1E84F3DD0314C0F7B2291E5B200AC8C7C3B925 PUSH1 0x40 MLOAD PUSH1 0x40 MLOAD DUP1 SWAP2 SUB SWAP1 LOG4 POP POP JUMP JUMPDEST PUSH2 0x1BF6 DUP3 DUP3 PUSH1 0x40 MLOAD DUP1 PUSH1 0x20 ADD PUSH1 0x40 MSTORE DUP1 PUSH1 0x0 DUP2 MSTORE POP PUSH2 0x2735 JUMP JUMPDEST POP POP JUMP JUMPDEST PUSH1 0x40 MLOAD DUP1 PUSH2 0x140 ADD PUSH1 0x40 MSTORE DUP1 PUSH1 0x40 MLOAD DUP1 PUSH1 0x40 ADD PUSH1 0x40 MSTORE DUP1 PUSH1 0x9 DUP2 MSTORE PUSH1 0x20 ADD PUSH32 0x42616C6C536F6E69630000000000000000000000000000000000000000000000 DUP2 MSTORE POP DUP2 MSTORE PUSH1 0x20 ADD PUSH1 0xE PUSH1 0x0 DUP5 DUP2 MSTORE PUSH1 0x20 ADD SWAP1 DUP2 MSTORE PUSH1 0x20 ADD PUSH1 0x0 KECCAK256 SLOAD DUP2 MSTORE PUSH1 0x20 ADD PUSH1 0xF PUSH1 0x0 DUP5 DUP2 MSTORE PUSH1 0x20 ADD SWAP1 DUP2 MSTORE PUSH1 0x20 ADD PUSH1 0x0 KECCAK256 SLOAD DUP2 MSTORE PUSH1 0x20 ADD PUSH1 0x10 PUSH1 0x0 DUP5 DUP2 MSTORE PUSH1 0x20 ADD SWAP1 DUP2 MSTORE PUSH1 0x20 ADD PUSH1 0x0 KECCAK256 SLOAD DUP2 MSTORE PUSH1 0x20 ADD PUSH1 0x11 PUSH1 0x0 DUP5 DUP2 MSTORE PUSH1 0x20 ADD SWAP1 DUP2 MSTORE PUSH1 0x20 ADD PUSH1 0x0 KECCAK256 SLOAD DUP2 MSTORE PUSH1 0x20 ADD PUSH1 0x12 PUSH1 0x0 DUP5 DUP2 MSTORE PUSH1 0x20 ADD SWAP1 DUP2 MSTORE PUSH1 0x20 ADD PUSH1 0x0 KECCAK256 SLOAD DUP2 MSTORE PUSH1 0x20 ADD PUSH1 0x13 PUSH1 0x0 DUP5 DUP2 MSTORE PUSH1 0x20 ADD SWAP1 DUP2 MSTORE PUSH1 0x20 ADD PUSH1 0x0 KECCAK256 SLOAD DUP2 MSTORE PUSH1 0x20 ADD PUSH1 0x14 PUSH1 0x0 DUP5 DUP2 MSTORE PUSH1 0x20 ADD SWAP1 DUP2 MSTORE PUSH1 0x20 ADD PUSH1 0x0 KECCAK256 SLOAD DUP2 MSTORE PUSH1 0x20 ADD PUSH1 0x15 PUSH1 0x0 DUP5 DUP2 MSTORE PUSH1 0x20 ADD SWAP1 DUP2 MSTORE PUSH1 0x20 ADD PUSH1 0x0 KECCAK256 SLOAD DUP2 MSTORE PUSH1 0x20 ADD PUSH1 0x16 PUSH1 0x0 DUP5 DUP2 MSTORE PUSH1 0x20 ADD SWAP1 DUP2 MSTORE PUSH1 0x20 ADD PUSH1 0x0 KECCAK256 SLOAD DUP2 MSTORE POP PUSH1 0x17 PUSH1 0x0 DUP3 ADD MLOAD DUP2 PUSH1 0x0 ADD SWAP1 DUP1 MLOAD SWAP1 PUSH1 0x20 ADD SWAP1 PUSH2 0x1D3E SWAP3 SWAP2 SWAP1 PUSH2 0x35DA JUMP JUMPDEST POP PUSH1 0x20 DUP3 ADD MLOAD DUP2 PUSH1 0x1 ADD SSTORE PUSH1 0x40 DUP3 ADD MLOAD DUP2 PUSH1 0x2 ADD SSTORE PUSH1 0x60 DUP3 ADD MLOAD DUP2 PUSH1 0x3 ADD SSTORE PUSH1 0x80 DUP3 ADD MLOAD DUP2 PUSH1 0x4 ADD SSTORE PUSH1 0xA0 DUP3 ADD MLOAD DUP2 PUSH1 0x5 ADD SSTORE PUSH1 0xC0 DUP3 ADD MLOAD DUP2 PUSH1 0x6 ADD SSTORE PUSH1 0xE0 DUP3 ADD MLOAD DUP2 PUSH1 0x7 ADD SSTORE PUSH2 0x100 DUP3 ADD MLOAD DUP2 PUSH1 0x8 ADD SSTORE PUSH2 0x120 DUP3 ADD MLOAD DUP2 PUSH1 0x9 ADD SSTORE SWAP1 POP POP PUSH1 0x0 PUSH1 0xC PUSH2 0x1DBE PUSH1 0x23 PUSH1 0x0 DUP6 DUP2 MSTORE PUSH1 0x20 ADD SWAP1 DUP2 MSTORE PUSH1 0x20 ADD PUSH1 0x0 KECCAK256 SLOAD PUSH2 0x2790 JUMP JUMPDEST PUSH1 0x40 MLOAD PUSH1 0x20 ADD PUSH2 0x1DCF SWAP3 SWAP2 SWAP1 PUSH2 0x45C2 JUMP JUMPDEST PUSH1 0x40 MLOAD PUSH1 0x20 DUP2 DUP4 SUB SUB DUP2 MSTORE SWAP1 PUSH1 0x40 MSTORE SWAP1 POP PUSH1 0x0 PUSH2 0x1F5B DUP4 PUSH2 0x1DEF DUP6 PUSH2 0x1202 JUMP JUMPDEST PUSH1 0x40 MLOAD DUP1 PUSH1 0x40 ADD PUSH1 0x40 MSTORE DUP1 PUSH1 0x5 DUP2 MSTORE PUSH1 0x20 ADD PUSH32 0x3842616C6C000000000000000000000000000000000000000000000000000000 DUP2 MSTORE POP DUP6 PUSH1 0x40 MLOAD DUP1 PUSH1 0x40 ADD PUSH1 0x40 MSTORE DUP1 PUSH1 0x17 DUP2 MSTORE PUSH1 0x20 ADD PUSH32 0x3842616C6C2069732066616E7461737469632067616D65000000000000000000 DUP2 MSTORE POP PUSH1 0x17 PUSH1 0x40 MLOAD DUP1 PUSH2 0x140 ADD PUSH1 0x40 MSTORE SWAP1 DUP2 PUSH1 0x0 DUP3 ADD DUP1 SLOAD PUSH2 0x1E7A SWAP1 PUSH2 0x3E14 JUMP JUMPDEST DUP1 PUSH1 0x1F ADD PUSH1 0x20 DUP1 SWAP2 DIV MUL PUSH1 0x20 ADD PUSH1 0x40 MLOAD SWAP1 DUP2 ADD PUSH1 0x40 MSTORE DUP1 SWAP3 SWAP2 SWAP1 DUP2 DUP2 MSTORE PUSH1 0x20 ADD DUP3 DUP1 SLOAD PUSH2 0x1EA6 SWAP1 PUSH2 0x3E14 JUMP JUMPDEST DUP1 ISZERO PUSH2 0x1EF3 JUMPI DUP1 PUSH1 0x1F LT PUSH2 0x1EC8 JUMPI PUSH2 0x100 DUP1 DUP4 SLOAD DIV MUL DUP4 MSTORE SWAP2 PUSH1 0x20 ADD SWAP2 PUSH2 0x1EF3 JUMP JUMPDEST DUP3 ADD SWAP2 SWAP1 PUSH1 0x0 MSTORE PUSH1 0x20 PUSH1 0x0 KECCAK256 SWAP1 JUMPDEST DUP2 SLOAD DUP2 MSTORE SWAP1 PUSH1 0x1 ADD SWAP1 PUSH1 0x20 ADD DUP1 DUP4 GT PUSH2 0x1ED6 JUMPI DUP3 SWAP1 SUB PUSH1 0x1F AND DUP3 ADD SWAP2 JUMPDEST POP POP POP POP POP DUP2 MSTORE PUSH1 0x20 ADD PUSH1 0x1 DUP3 ADD SLOAD DUP2 MSTORE PUSH1 0x20 ADD PUSH1 0x2 DUP3 ADD SLOAD DUP2 MSTORE PUSH1 0x20 ADD PUSH1 0x3 DUP3 ADD SLOAD DUP2 MSTORE PUSH1 0x20 ADD PUSH1 0x4 DUP3 ADD SLOAD DUP2 MSTORE PUSH1 0x20 ADD PUSH1 0x5 DUP3 ADD SLOAD DUP2 MSTORE PUSH1 0x20 ADD PUSH1 0x6 DUP3 ADD SLOAD DUP2 MSTORE PUSH1 0x20 ADD PUSH1 0x7 DUP3 ADD SLOAD DUP2 MSTORE PUSH1 0x20 ADD PUSH1 0x8 DUP3 ADD SLOAD DUP2 MSTORE PUSH1 0x20 ADD PUSH1 0x9 DUP3 ADD SLOAD DUP2 MSTORE POP POP PUSH2 0x28F1 JUMP JUMPDEST SWAP1 POP PUSH1 0x0 PUSH2 0x1F68 DUP3 PUSH2 0x293B JUMP JUMPDEST SWAP1 POP PUSH2 0x1F74 DUP5 DUP3 PUSH2 0x296C JUMP JUMPDEST POP POP POP POP JUMP JUMPDEST PUSH1 0x0 DUP1 PUSH2 0x1F86 DUP4 PUSH2 0x1202 JUMP JUMPDEST SWAP1 POP DUP1 PUSH20 0xFFFFFFFFFFFFFFFFFFFFFFFFFFFFFFFFFFFFFFFF AND DUP5 PUSH20 0xFFFFFFFFFFFFFFFFFFFFFFFFFFFFFFFFFFFFFFFF AND EQ DUP1 PUSH2 0x1FC8 JUMPI POP PUSH2 0x1FC7 DUP2 DUP6 PUSH2 0x194E JUMP JUMPDEST JUMPDEST DUP1 PUSH2 0x2006 JUMPI POP DUP4 PUSH20 0xFFFFFFFFFFFFFFFFFFFFFFFFFFFFFFFFFFFFFFFF AND PUSH2 0x1FEE DUP5 PUSH2 0xA9F JUMP JUMPDEST PUSH20 0xFFFFFFFFFFFFFFFFFFFFFFFFFFFFFFFFFFFFFFFF AND EQ JUMPDEST SWAP2 POP POP SWAP3 SWAP2 POP POP JUMP JUMPDEST DUP3 PUSH20 0xFFFFFFFFFFFFFFFFFFFFFFFFFFFFFFFFFFFFFFFF AND PUSH2 0x202F DUP3 PUSH2 0x1202 JUMP JUMPDEST PUSH20 0xFFFFFFFFFFFFFFFFFFFFFFFFFFFFFFFFFFFFFFFF AND EQ PUSH2 0x2085 JUMPI PUSH1 0x40 MLOAD PUSH32 0x8C379A000000000000000000000000000000000000000000000000000000000 DUP2 MSTORE PUSH1 0x4 ADD PUSH2 0x207C SWAP1 PUSH2 0x4658 JUMP JUMPDEST PUSH1 0x40 MLOAD DUP1 SWAP2 SUB SWAP1 REVERT JUMPDEST PUSH1 0x0 PUSH20 0xFFFFFFFFFFFFFFFFFFFFFFFFFFFFFFFFFFFFFFFF AND DUP3 PUSH20 0xFFFFFFFFFFFFFFFFFFFFFFFFFFFFFFFFFFFFFFFF AND EQ ISZERO PUSH2 0x20F5 JUMPI PUSH1 0x40 MLOAD PUSH32 0x8C379A000000000000000000000000000000000000000000000000000000000 DUP2 MSTORE PUSH1 0x4 ADD PUSH2 0x20EC SWAP1 PUSH2 0x46EA JUMP JUMPDEST PUSH1 0x40 MLOAD DUP1 SWAP2 SUB SWAP1 REVERT JUMPDEST PUSH2 0x2100 DUP4 DUP4 DUP4 PUSH2 0x29E0 JUMP JUMPDEST PUSH2 0x210B PUSH1 0x0 DUP3 PUSH2 0x1B23 JUMP JUMPDEST PUSH1 0x1 PUSH1 0x3 PUSH1 0x0 DUP6 PUSH20 0xFFFFFFFFFFFFFFFFFFFFFFFFFFFFFFFFFFFFFFFF AND PUSH20 0xFFFFFFFFFFFFFFFFFFFFFFFFFFFFFFFFFFFFFFFF AND DUP2 MSTORE PUSH1 0x20 ADD SWAP1 DUP2 MSTORE PUSH1 0x20 ADD PUSH1 0x0 KECCAK256 PUSH1 0x0 DUP3 DUP3 SLOAD PUSH2 0x215B SWAP2 SWAP1 PUSH2 0x470A JUMP JUMPDEST SWAP3 POP POP DUP2 SWAP1 SSTORE POP PUSH1 0x1 PUSH1 0x3 PUSH1 0x0 DUP5 PUSH20 0xFFFFFFFFFFFFFFFFFFFFFFFFFFFFFFFFFFFFFFFF AND PUSH20 0xFFFFFFFFFFFFFFFFFFFFFFFFFFFFFFFFFFFFFFFF AND DUP2 MSTORE PUSH1 0x20 ADD SWAP1 DUP2 MSTORE PUSH1 0x20 ADD PUSH1 0x0 KECCAK256 PUSH1 0x0 DUP3 DUP3 SLOAD PUSH2 0x21B2 SWAP2 SWAP1 PUSH2 0x40E8 JUMP JUMPDEST SWAP3 POP POP DUP2 SWAP1 SSTORE POP DUP2 PUSH1 0x2 PUSH1 0x0 DUP4 DUP2 MSTORE PUSH1 0x20 ADD SWAP1 DUP2 MSTORE PUSH1 0x20 ADD PUSH1 0x0 KECCAK256 PUSH1 0x0 PUSH2 0x100 EXP DUP2 SLOAD DUP2 PUSH20 0xFFFFFFFFFFFFFFFFFFFFFFFFFFFFFFFFFFFFFFFF MUL NOT AND SWAP1 DUP4 PUSH20 0xFFFFFFFFFFFFFFFFFFFFFFFFFFFFFFFFFFFFFFFF AND MUL OR SWAP1 SSTORE POP DUP1 DUP3 PUSH20 0xFFFFFFFFFFFFFFFFFFFFFFFFFFFFFFFFFFFFFFFF AND DUP5 PUSH20 0xFFFFFFFFFFFFFFFFFFFFFFFFFFFFFFFFFFFFFFFF AND PUSH32 0xDDF252AD1BE2C89B69C2B068FC378DAA952BA7F163C4A11628F55A4DF523B3EF PUSH1 0x40 MLOAD PUSH1 0x40 MLOAD DUP1 SWAP2 SUB SWAP1 LOG4 PUSH2 0x2271 DUP4 DUP4 DUP4 PUSH2 0x29E5 JUMP JUMPDEST POP POP POP JUMP JUMPDEST PUSH2 0x227E PUSH2 0x1B1B JUMP JUMPDEST PUSH20 0xFFFFFFFFFFFFFFFFFFFFFFFFFFFFFFFFFFFFFFFF AND PUSH1 0x7 PUSH1 0x0 SWAP1 SLOAD SWAP1 PUSH2 0x100 EXP SWAP1 DIV PUSH20 0xFFFFFFFFFFFFFFFFFFFFFFFFFFFFFFFFFFFFFFFF AND PUSH20 0xFFFFFFFFFFFFFFFFFFFFFFFFFFFFFFFFFFFFFFFF AND EQ DUP1 PUSH2 0x232D JUMPI POP PUSH2 0x22DC PUSH2 0x1B1B JUMP JUMPDEST PUSH20 0xFFFFFFFFFFFFFFFFFFFFFFFFFFFFFFFFFFFFFFFF AND PUSH1 0x8 PUSH1 0x0 SWAP1 SLOAD SWAP1 PUSH2 0x100 EXP SWAP1 DIV PUSH20 0xFFFFFFFFFFFFFFFFFFFFFFFFFFFFFFFFFFFFFFFF AND PUSH20 0xFFFFFFFFFFFFFFFFFFFFFFFFFFFFFFFFFFFFFFFF AND EQ JUMPDEST PUSH2 0x236C JUMPI PUSH1 0x40 MLOAD PUSH32 0x8C379A000000000000000000000000000000000000000000000000000000000 DUP2 MSTORE PUSH1 0x4 ADD PUSH2 0x2363 SWAP1 PUSH2 0x478A JUMP JUMPDEST PUSH1 0x40 MLOAD DUP1 SWAP2 SUB SWAP1 REVERT JUMPDEST JUMP JUMPDEST PUSH2 0x2377 DUP2 PUSH2 0x29EA JUMP JUMPDEST PUSH1 0x0 PUSH1 0x6 PUSH1 0x0 DUP4 DUP2 MSTORE PUSH1 0x20 ADD SWAP1 DUP2 MSTORE PUSH1 0x20 ADD PUSH1 0x0 KECCAK256 DUP1 SLOAD PUSH2 0x2397 SWAP1 PUSH2 0x3E14 JUMP JUMPDEST SWAP1 POP EQ PUSH2 0x23BE JUMPI PUSH1 0x6 PUSH1 0x0 DUP3 DUP2 MSTORE PUSH1 0x20 ADD SWAP1 DUP2 MSTORE PUSH1 0x20 ADD PUSH1 0x0 KECCAK256 PUSH1 0x0 PUSH2 0x23BD SWAP2 SWAP1 PUSH2 0x3660 JUMP JUMPDEST JUMPDEST POP JUMP JUMPDEST DUP1 PUSH1 0x8 PUSH1 0x0 PUSH2 0x100 EXP DUP2 SLOAD DUP2 PUSH20 0xFFFFFFFFFFFFFFFFFFFFFFFFFFFFFFFFFFFFFFFF MUL NOT AND SWAP1 DUP4 PUSH20 0xFFFFFFFFFFFFFFFFFFFFFFFFFFFFFFFFFFFFFFFF AND MUL OR SWAP1 SSTORE POP DUP1 PUSH20 0xFFFFFFFFFFFFFFFFFFFFFFFFFFFFFFFFFFFFFFFF AND PUSH1 0x7 PUSH1 0x0 SWAP1 SLOAD SWAP1 PUSH2 0x100 EXP SWAP1 DIV PUSH20 0xFFFFFFFFFFFFFFFFFFFFFFFFFFFFFFFFFFFFFFFF AND PUSH20 0xFFFFFFFFFFFFFFFFFFFFFFFFFFFFFFFFFFFFFFFF AND PUSH32 0x8BE0079C531659141344CD1FD0A4F28419497F9722A3DAAFE3B4186F6B6457E0 PUSH1 0x40 MLOAD PUSH1 0x40 MLOAD DUP1 SWAP2 SUB SWAP1 LOG3 POP JUMP JUMPDEST DUP2 PUSH20 0xFFFFFFFFFFFFFFFFFFFFFFFFFFFFFFFFFFFFFFFF AND DUP4 PUSH20 0xFFFFFFFFFFFFFFFFFFFFFFFFFFFFFFFFFFFFFFFF AND EQ ISZERO PUSH2 0x24F0 JUMPI PUSH1 0x40 MLOAD PUSH32 0x8C379A000000000000000000000000000000000000000000000000000000000 DUP2 MSTORE PUSH1 0x4 ADD PUSH2 0x24E7 SWAP1 PUSH2 0x47F6 JUMP JUMPDEST PUSH1 0x40 MLOAD DUP1 SWAP2 SUB SWAP1 REVERT JUMPDEST DUP1 PUSH1 0x5 PUSH1 0x0 DUP6 PUSH20 0xFFFFFFFFFFFFFFFFFFFFFFFFFFFFFFFFFFFFFFFF AND PUSH20 0xFFFFFFFFFFFFFFFFFFFFFFFFFFFFFFFFFFFFFFFF AND DUP2 MSTORE PUSH1 0x20 ADD SWAP1 DUP2 MSTORE PUSH1 0x20 ADD PUSH1 0x0 KECCAK256 PUSH1 0x0 DUP5 PUSH20 0xFFFFFFFFFFFFFFFFFFFFFFFFFFFFFFFFFFFFFFFF AND PUSH20 0xFFFFFFFFFFFFFFFFFFFFFFFFFFFFFFFFFFFFFFFF AND DUP2 MSTORE PUSH1 0x20 ADD SWAP1 DUP2 MSTORE PUSH1 0x20 ADD PUSH1 0x0 KECCAK256 PUSH1 0x0 PUSH2 0x100 EXP DUP2 SLOAD DUP2 PUSH1 0xFF MUL NOT AND SWAP1 DUP4 ISZERO ISZERO MUL OR SWAP1 SSTORE POP DUP2 PUSH20 0xFFFFFFFFFFFFFFFFFFFFFFFFFFFFFFFFFFFFFFFF AND DUP4 PUSH20 0xFFFFFFFFFFFFFFFFFFFFFFFFFFFFFFFFFFFFFFFF AND PUSH32 0x17307EAB39AB6107E8899845AD3D59BD9653F200F220920489CA2B5937696C31 DUP4 PUSH1 0x40 MLOAD PUSH2 0x25E1 SWAP2 SWAP1 PUSH2 0x3771 JUMP JUMPDEST PUSH1 0x40 MLOAD DUP1 SWAP2 SUB SWAP1 LOG3 POP POP POP JUMP JUMPDEST PUSH2 0x25F9 DUP5 DUP5 DUP5 PUSH2 0x200F JUMP JUMPDEST PUSH2 0x2605 DUP5 DUP5 DUP5 DUP5 PUSH2 0x2B07 JUMP JUMPDEST PUSH2 0x2644 JUMPI PUSH1 0x40 MLOAD PUSH32 0x8C379A000000000000000000000000000000000000000000000000000000000 DUP2 MSTORE PUSH1 0x4 ADD PUSH2 0x263B SWAP1 PUSH2 0x4888 JUMP JUMPDEST PUSH1 0x40 MLOAD DUP1 SWAP2 SUB SWAP1 REVERT JUMPDEST POP POP POP POP JUMP JUMPDEST PUSH1 0x60 PUSH1 0x40 MLOAD DUP1 PUSH1 0x20 ADD PUSH1 0x40 MSTORE DUP1 PUSH1 0x0 DUP2 MSTORE POP SWAP1 POP SWAP1 JUMP JUMPDEST PUSH1 0x60 PUSH2 0x266C DUP3 PUSH2 0x1AD0 JUMP JUMPDEST PUSH1 0x0 PUSH2 0x2676 PUSH2 0x264A JUMP JUMPDEST SWAP1 POP PUSH1 0x0 DUP2 MLOAD GT PUSH2 0x2696 JUMPI PUSH1 0x40 MLOAD DUP1 PUSH1 0x20 ADD PUSH1 0x40 MSTORE DUP1 PUSH1 0x0 DUP2 MSTORE POP PUSH2 0x26C1 JUMP JUMPDEST DUP1 PUSH2 0x26A0 DUP5 PUSH2 0x2790 JUMP JUMPDEST PUSH1 0x40 MLOAD PUSH1 0x20 ADD PUSH2 0x26B1 SWAP3 SWAP2 SWAP1 PUSH2 0x4478 JUMP JUMPDEST PUSH1 0x40 MLOAD PUSH1 0x20 DUP2 DUP4 SUB SUB DUP2 MSTORE SWAP1 PUSH1 0x40 MSTORE JUMPDEST SWAP2 POP POP SWAP2 SWAP1 POP JUMP JUMPDEST PUSH1 0x0 DUP1 PUSH20 0xFFFFFFFFFFFFFFFFFFFFFFFFFFFFFFFFFFFFFFFF AND PUSH1 0x2 PUSH1 0x0 DUP5 DUP2 MSTORE PUSH1 0x20 ADD SWAP1 DUP2 MSTORE PUSH1 0x20 ADD PUSH1 0x0 KECCAK256 PUSH1 0x0 SWAP1 SLOAD SWAP1 PUSH2 0x100 EXP SWAP1 DIV PUSH20 0xFFFFFFFFFFFFFFFFFFFFFFFFFFFFFFFFFFFFFFFF AND PUSH20 0xFFFFFFFFFFFFFFFFFFFFFFFFFFFFFFFFFFFFFFFF AND EQ ISZERO SWAP1 POP SWAP2 SWAP1 POP JUMP JUMPDEST PUSH2 0x273F DUP4 DUP4 PUSH2 0x2C9E JUMP JUMPDEST PUSH2 0x274C PUSH1 0x0 DUP5 DUP5 DUP5 PUSH2 0x2B07 JUMP JUMPDEST PUSH2 0x278B JUMPI PUSH1 0x40 MLOAD PUSH32 0x8C379A000000000000000000000000000000000000000000000000000000000 DUP2 MSTORE PUSH1 0x4 ADD PUSH2 0x2782 SWAP1 PUSH2 0x4888 JUMP JUMPDEST PUSH1 0x40 MLOAD DUP1 SWAP2 SUB SWAP1 REVERT JUMPDEST POP POP POP JUMP JUMPDEST PUSH1 0x60 PUSH1 0x0 DUP3 EQ ISZERO PUSH2 0x27D8 JUMPI PUSH1 0x40 MLOAD DUP1 PUSH1 0x40 ADD PUSH1 0x40 MSTORE DUP1 PUSH1 0x1 DUP2 MSTORE PUSH1 0x20 ADD PUSH32 0x3000000000000000000000000000000000000000000000000000000000000000 DUP2 MSTORE POP SWAP1 POP PUSH2 0x28EC JUMP JUMPDEST PUSH1 0x0 DUP3 SWAP1 POP PUSH1 0x0 JUMPDEST PUSH1 0x0 DUP3 EQ PUSH2 0x280A JUMPI DUP1 DUP1 PUSH2 0x27F3 SWAP1 PUSH2 0x409F JUMP JUMPDEST SWAP2 POP POP PUSH1 0xA DUP3 PUSH2 0x2803 SWAP2 SWAP1 PUSH2 0x48A8 JUMP JUMPDEST SWAP2 POP PUSH2 0x27E0 JUMP JUMPDEST PUSH1 0x0 DUP2 PUSH8 0xFFFFFFFFFFFFFFFF DUP2 GT ISZERO PUSH2 0x2826 JUMPI PUSH2 0x2825 PUSH2 0x39F9 JUMP JUMPDEST JUMPDEST PUSH1 0x40 MLOAD SWAP1 DUP1 DUP3 MSTORE DUP1 PUSH1 0x1F ADD PUSH1 0x1F NOT AND PUSH1 0x20 ADD DUP3 ADD PUSH1 0x40 MSTORE DUP1 ISZERO PUSH2 0x2858 JUMPI DUP2 PUSH1 0x20 ADD PUSH1 0x1 DUP3 MUL DUP1 CALLDATASIZE DUP4 CALLDATACOPY DUP1 DUP3 ADD SWAP2 POP POP SWAP1 POP JUMPDEST POP SWAP1 POP JUMPDEST PUSH1 0x0 DUP6 EQ PUSH2 0x28E5 JUMPI PUSH1 0x1 DUP3 PUSH2 0x2871 SWAP2 SWAP1 PUSH2 0x470A JUMP JUMPDEST SWAP2 POP PUSH1 0xA DUP6 PUSH2 0x2880 SWAP2 SWAP1 PUSH2 0x403F JUMP JUMPDEST PUSH1 0x30 PUSH2 0x288C SWAP2 SWAP1 PUSH2 0x40E8 JUMP JUMPDEST PUSH1 0xF8 SHL DUP2 DUP4 DUP2 MLOAD DUP2 LT PUSH2 0x28A2 JUMPI PUSH2 0x28A1 PUSH2 0x48D9 JUMP JUMPDEST JUMPDEST PUSH1 0x20 ADD ADD SWAP1 PUSH31 0xFFFFFFFFFFFFFFFFFFFFFFFFFFFFFFFFFFFFFFFFFFFFFFFFFFFFFFFFFFFFFF NOT AND SWAP1 DUP2 PUSH1 0x0 BYTE SWAP1 MSTORE8 POP PUSH1 0xA DUP6 PUSH2 0x28DE SWAP2 SWAP1 PUSH2 0x48A8 JUMP JUMPDEST SWAP5 POP PUSH2 0x285C JUMP JUMPDEST DUP1 SWAP4 POP POP POP POP JUMPDEST SWAP2 SWAP1 POP JUMP JUMPDEST PUSH1 0x60 PUSH1 0x0 PUSH2 0x2902 DUP9 DUP9 DUP9 DUP9 DUP9 PUSH2 0x2E78 JUMP JUMPDEST SWAP1 POP DUP1 PUSH2 0x290E DUP5 PUSH2 0x2ED3 JUMP JUMPDEST PUSH1 0x40 MLOAD PUSH1 0x20 ADD PUSH2 0x291F SWAP3 SWAP2 SWAP1 PUSH2 0x49A0 JUMP JUMPDEST PUSH1 0x40 MLOAD PUSH1 0x20 DUP2 DUP4 SUB SUB DUP2 MSTORE SWAP1 PUSH1 0x40 MSTORE SWAP2 POP POP SWAP7 SWAP6 POP POP POP POP POP POP JUMP JUMPDEST PUSH1 0x60 PUSH2 0x2946 DUP3 PUSH2 0x2FBF JUMP JUMPDEST PUSH1 0x40 MLOAD PUSH1 0x20 ADD PUSH2 0x2956 SWAP2 SWAP1 PUSH2 0x4A26 JUMP JUMPDEST PUSH1 0x40 MLOAD PUSH1 0x20 DUP2 DUP4 SUB SUB DUP2 MSTORE SWAP1 PUSH1 0x40 MSTORE SWAP1 POP SWAP2 SWAP1 POP JUMP JUMPDEST PUSH2 0x2975 DUP3 PUSH2 0x26C9 JUMP JUMPDEST PUSH2 0x29B4 JUMPI PUSH1 0x40 MLOAD PUSH32 0x8C379A000000000000000000000000000000000000000000000000000000000 DUP2 MSTORE PUSH1 0x4 ADD PUSH2 0x29AB SWAP1 PUSH2 0x4ABA JUMP JUMPDEST PUSH1 0x40 MLOAD DUP1 SWAP2 SUB SWAP1 REVERT JUMPDEST DUP1 PUSH1 0x6 PUSH1 0x0 DUP5 DUP2 MSTORE PUSH1 0x20 ADD SWAP1 DUP2 MSTORE PUSH1 0x20 ADD PUSH1 0x0 KECCAK256 SWAP1 DUP1 MLOAD SWAP1 PUSH1 0x20 ADD SWAP1 PUSH2 0x29DB SWAP3 SWAP2 SWAP1 PUSH2 0x35DA JUMP JUMPDEST POP POP POP JUMP JUMPDEST POP POP POP JUMP JUMPDEST POP POP POP JUMP JUMPDEST PUSH1 0x0 PUSH2 0x29F5 DUP3 PUSH2 0x1202 JUMP JUMPDEST SWAP1 POP PUSH2 0x2A03 DUP2 PUSH1 0x0 DUP5 PUSH2 0x29E0 JUMP JUMPDEST PUSH2 0x2A0E PUSH1 0x0 DUP4 PUSH2 0x1B23 JUMP JUMPDEST PUSH1 0x1 PUSH1 0x3 PUSH1 0x0 DUP4 PUSH20 0xFFFFFFFFFFFFFFFFFFFFFFFFFFFFFFFFFFFFFFFF AND PUSH20 0xFFFFFFFFFFFFFFFFFFFFFFFFFFFFFFFFFFFFFFFF AND DUP2 MSTORE PUSH1 0x20 ADD SWAP1 DUP2 MSTORE PUSH1 0x20 ADD PUSH1 0x0 KECCAK256 PUSH1 0x0 DUP3 DUP3 SLOAD PUSH2 0x2A5E SWAP2 SWAP1 PUSH2 0x470A JUMP JUMPDEST SWAP3 POP POP DUP2 SWAP1 SSTORE POP PUSH1 0x2 PUSH1 0x0 DUP4 DUP2 MSTORE PUSH1 0x20 ADD SWAP1 DUP2 MSTORE PUSH1 0x20 ADD PUSH1 0x0 KECCAK256 PUSH1 0x0 PUSH2 0x100 EXP DUP2 SLOAD SWAP1 PUSH20 0xFFFFFFFFFFFFFFFFFFFFFFFFFFFFFFFFFFFFFFFF MUL NOT AND SWAP1 SSTORE DUP2 PUSH1 0x0 PUSH20 0xFFFFFFFFFFFFFFFFFFFFFFFFFFFFFFFFFFFFFFFF AND DUP3 PUSH20 0xFFFFFFFFFFFFFFFFFFFFFFFFFFFFFFFFFFFFFFFF AND PUSH32 0xDDF252AD1BE2C89B69C2B068FC378DAA952BA7F163C4A11628F55A4DF523B3EF PUSH1 0x40 MLOAD PUSH1 0x40 MLOAD DUP1 SWAP2 SUB SWAP1 LOG4 PUSH2 0x2B03 DUP2 PUSH1 0x0 DUP5 PUSH2 0x29E5 JUMP JUMPDEST POP POP JUMP JUMPDEST PUSH1 0x0 PUSH2 0x2B28 DUP5 PUSH20 0xFFFFFFFFFFFFFFFFFFFFFFFFFFFFFFFFFFFFFFFF AND PUSH2 0x3123 JUMP JUMPDEST ISZERO PUSH2 0x2C91 JUMPI DUP4 PUSH20 0xFFFFFFFFFFFFFFFFFFFFFFFFFFFFFFFFFFFFFFFF AND PUSH4 0x150B7A02 PUSH2 0x2B51 PUSH2 0x1B1B JUMP JUMPDEST DUP8 DUP7 DUP7 PUSH1 0x40 MLOAD DUP6 PUSH4 0xFFFFFFFF AND PUSH1 0xE0 SHL DUP2 MSTORE PUSH1 0x4 ADD PUSH2 0x2B73 SWAP5 SWAP4 SWAP3 SWAP2 SWAP1 PUSH2 0x4B2F JUMP JUMPDEST PUSH1 0x20 PUSH1 0x40 MLOAD DUP1 DUP4 SUB DUP2 PUSH1 0x0 DUP8 DUP1 EXTCODESIZE ISZERO DUP1 ISZERO PUSH2 0x2B8D JUMPI PUSH1 0x0 DUP1 REVERT JUMPDEST POP GAS CALL SWAP3 POP POP POP DUP1 ISZERO PUSH2 0x2BBE JUMPI POP PUSH1 0x40 MLOAD RETURNDATASIZE PUSH1 0x1F NOT PUSH1 0x1F DUP3 ADD AND DUP3 ADD DUP1 PUSH1 0x40 MSTORE POP DUP2 ADD SWAP1 PUSH2 0x2BBB SWAP2 SWAP1 PUSH2 0x4B90 JUMP JUMPDEST PUSH1 0x1 JUMPDEST PUSH2 0x2C41 JUMPI RETURNDATASIZE DUP1 PUSH1 0x0 DUP2 EQ PUSH2 0x2BEE JUMPI PUSH1 0x40 MLOAD SWAP2 POP PUSH1 0x1F NOT PUSH1 0x3F RETURNDATASIZE ADD AND DUP3 ADD PUSH1 0x40 MSTORE RETURNDATASIZE DUP3 MSTORE RETURNDATASIZE PUSH1 0x0 PUSH1 0x20 DUP5 ADD RETURNDATACOPY PUSH2 0x2BF3 JUMP JUMPDEST PUSH1 0x60 SWAP2 POP JUMPDEST POP PUSH1 0x0 DUP2 MLOAD EQ ISZERO PUSH2 0x2C39 JUMPI PUSH1 0x40 MLOAD PUSH32 0x8C379A000000000000000000000000000000000000000000000000000000000 DUP2 MSTORE PUSH1 0x4 ADD PUSH2 0x2C30 SWAP1 PUSH2 0x4888 JUMP JUMPDEST PUSH1 0x40 MLOAD DUP1 SWAP2 SUB SWAP1 REVERT JUMPDEST DUP1 MLOAD DUP2 PUSH1 0x20 ADD REVERT JUMPDEST PUSH4 0x150B7A02 PUSH1 0xE0 SHL PUSH28 0xFFFFFFFFFFFFFFFFFFFFFFFFFFFFFFFFFFFFFFFFFFFFFFFFFFFFFFFF NOT AND DUP2 PUSH28 0xFFFFFFFFFFFFFFFFFFFFFFFFFFFFFFFFFFFFFFFFFFFFFFFFFFFFFFFF NOT AND EQ SWAP2 POP POP PUSH2 0x2C96 JUMP JUMPDEST PUSH1 0x1 SWAP1 POP JUMPDEST SWAP5 SWAP4 POP POP POP POP JUMP JUMPDEST PUSH1 0x0 PUSH20 0xFFFFFFFFFFFFFFFFFFFFFFFFFFFFFFFFFFFFFFFF AND DUP3 PUSH20 0xFFFFFFFFFFFFFFFFFFFFFFFFFFFFFFFFFFFFFFFF AND EQ ISZERO PUSH2 0x2D0E JUMPI PUSH1 0x40 MLOAD PUSH32 0x8C379A000000000000000000000000000000000000000000000000000000000 DUP2 MSTORE PUSH1 0x4 ADD PUSH2 0x2D05 SWAP1 PUSH2 0x4C09 JUMP JUMPDEST PUSH1 0x40 MLOAD DUP1 SWAP2 SUB SWAP1 REVERT JUMPDEST PUSH2 0x2D17 DUP2 PUSH2 0x26C9 JUMP JUMPDEST ISZERO PUSH2 0x2D57 JUMPI PUSH1 0x40 MLOAD PUSH32 0x8C379A000000000000000000000000000000000000000000000000000000000 DUP2 MSTORE PUSH1 0x4 ADD PUSH2 0x2D4E SWAP1 PUSH2 0x4C75 JUMP JUMPDEST PUSH1 0x40 MLOAD DUP1 SWAP2 SUB SWAP1 REVERT JUMPDEST PUSH2 0x2D63 PUSH1 0x0 DUP4 DUP4 PUSH2 0x29E0 JUMP JUMPDEST PUSH1 0x1 PUSH1 0x3 PUSH1 0x0 DUP5 PUSH20 0xFFFFFFFFFFFFFFFFFFFFFFFFFFFFFFFFFFFFFFFF AND PUSH20 0xFFFFFFFFFFFFFFFFFFFFFFFFFFFFFFFFFFFFFFFF AND DUP2 MSTORE PUSH1 0x20 ADD SWAP1 DUP2 MSTORE PUSH1 0x20 ADD PUSH1 0x0 KECCAK256 PUSH1 0x0 DUP3 DUP3 SLOAD PUSH2 0x2DB3 SWAP2 SWAP1 PUSH2 0x40E8 JUMP JUMPDEST SWAP3 POP POP DUP2 SWAP1 SSTORE POP DUP2 PUSH1 0x2 PUSH1 0x0 DUP4 DUP2 MSTORE PUSH1 0x20 ADD SWAP1 DUP2 MSTORE PUSH1 0x20 ADD PUSH1 0x0 KECCAK256 PUSH1 0x0 PUSH2 0x100 EXP DUP2 SLOAD DUP2 PUSH20 0xFFFFFFFFFFFFFFFFFFFFFFFFFFFFFFFFFFFFFFFF MUL NOT AND SWAP1 DUP4 PUSH20 0xFFFFFFFFFFFFFFFFFFFFFFFFFFFFFFFFFFFFFFFF AND MUL OR SWAP1 SSTORE POP DUP1 DUP3 PUSH20 0xFFFFFFFFFFFFFFFFFFFFFFFFFFFFFFFFFFFFFFFF AND PUSH1 0x0 PUSH20 0xFFFFFFFFFFFFFFFFFFFFFFFFFFFFFFFFFFFFFFFF AND PUSH32 0xDDF252AD1BE2C89B69C2B068FC378DAA952BA7F163C4A11628F55A4DF523B3EF PUSH1 0x40 MLOAD PUSH1 0x40 MLOAD DUP1 SWAP2 SUB SWAP1 LOG4 PUSH2 0x2E74 PUSH1 0x0 DUP4 DUP4 PUSH2 0x29E5 JUMP JUMPDEST POP POP JUMP JUMPDEST PUSH1 0x60 DUP4 PUSH2 0x2E84 DUP8 PUSH2 0x3146 JUMP JUMPDEST DUP4 DUP6 PUSH2 0x2EA5 DUP10 PUSH20 0xFFFFFFFFFFFFFFFFFFFFFFFFFFFFFFFFFFFFFFFF AND PUSH2 0x321E JUMP JUMPDEST PUSH1 0x40 MLOAD PUSH1 0x20 ADD PUSH2 0x2EB9 SWAP6 SWAP5 SWAP4 SWAP3 SWAP2 SWAP1 PUSH2 0x4E5D JUMP JUMPDEST PUSH1 0x40 MLOAD PUSH1 0x20 DUP2 DUP4 SUB SUB DUP2 MSTORE SWAP1 PUSH1 0x40 MSTORE SWAP1 POP SWAP6 SWAP5 POP POP POP POP POP JUMP JUMPDEST PUSH1 0x60 PUSH1 0x0 PUSH1 0x40 MLOAD DUP1 PUSH1 0x20 ADD PUSH1 0x40 MSTORE DUP1 PUSH1 0x0 DUP2 MSTORE POP SWAP1 POP PUSH1 0x0 DUP2 DUP5 PUSH1 0x0 ADD MLOAD PUSH2 0x2EFE DUP7 PUSH1 0x20 ADD MLOAD PUSH2 0x3146 JUMP JUMPDEST PUSH2 0x2F0B DUP8 PUSH1 0x40 ADD MLOAD PUSH2 0x3146 JUMP JUMPDEST PUSH2 0x2F18 DUP9 PUSH1 0x60 ADD MLOAD PUSH2 0x3146 JUMP JUMPDEST PUSH2 0x2F25 DUP10 PUSH1 0x80 ADD MLOAD PUSH2 0x3146 JUMP JUMPDEST PUSH2 0x2F32 DUP11 PUSH1 0xA0 ADD MLOAD PUSH2 0x3146 JUMP JUMPDEST PUSH2 0x2F3F DUP12 PUSH1 0xC0 ADD MLOAD PUSH2 0x3146 JUMP JUMPDEST PUSH2 0x2F4C DUP13 PUSH1 0xE0 ADD MLOAD PUSH2 0x3146 JUMP JUMPDEST PUSH2 0x2F5A DUP14 PUSH2 0x100 ADD MLOAD PUSH2 0x3146 JUMP JUMPDEST PUSH2 0x2F68 DUP15 PUSH2 0x120 ADD MLOAD PUSH2 0x3146 JUMP JUMPDEST PUSH1 0x40 MLOAD PUSH1 0x20 ADD PUSH2 0x2F82 SWAP12 SWAP11 SWAP10 SWAP9 SWAP8 SWAP7 SWAP6 SWAP5 SWAP4 SWAP3 SWAP2 SWAP1 PUSH2 0x520E JUMP JUMPDEST PUSH1 0x40 MLOAD PUSH1 0x20 DUP2 DUP4 SUB SUB DUP2 MSTORE SWAP1 PUSH1 0x40 MSTORE SWAP1 POP DUP1 SWAP2 POP DUP2 PUSH1 0x40 MLOAD PUSH1 0x20 ADD PUSH2 0x2FA7 SWAP2 SWAP1 PUSH2 0x53CF JUMP JUMPDEST PUSH1 0x40 MLOAD PUSH1 0x20 DUP2 DUP4 SUB SUB DUP2 MSTORE SWAP1 PUSH1 0x40 MSTORE SWAP3 POP POP POP SWAP2 SWAP1 POP JUMP JUMPDEST PUSH1 0x60 PUSH1 0x0 DUP3 MLOAD EQ ISZERO PUSH2 0x2FE2 JUMPI PUSH1 0x40 MLOAD DUP1 PUSH1 0x20 ADD PUSH1 0x40 MSTORE DUP1 PUSH1 0x0 DUP2 MSTORE POP SWAP1 POP PUSH2 0x311E JUMP JUMPDEST PUSH1 0x0 PUSH1 0x40 MLOAD DUP1 PUSH1 0x60 ADD PUSH1 0x40 MSTORE DUP1 PUSH1 0x40 DUP2 MSTORE PUSH1 0x20 ADD PUSH2 0x54B8 PUSH1 0x40 SWAP2 CODECOPY SWAP1 POP PUSH1 0x0 PUSH1 0x3 PUSH1 0x2 DUP6 MLOAD PUSH2 0x3011 SWAP2 SWAP1 PUSH2 0x40E8 JUMP JUMPDEST PUSH2 0x301B SWAP2 SWAP1 PUSH2 0x48A8 JUMP JUMPDEST PUSH1 0x4 PUSH2 0x3027 SWAP2 SWAP1 PUSH2 0x53F1 JUMP JUMPDEST PUSH8 0xFFFFFFFFFFFFFFFF DUP2 GT ISZERO PUSH2 0x3040 JUMPI PUSH2 0x303F PUSH2 0x39F9 JUMP JUMPDEST JUMPDEST PUSH1 0x40 MLOAD SWAP1 DUP1 DUP3 MSTORE DUP1 PUSH1 0x1F ADD PUSH1 0x1F NOT AND PUSH1 0x20 ADD DUP3 ADD PUSH1 0x40 MSTORE DUP1 ISZERO PUSH2 0x3072 JUMPI DUP2 PUSH1 0x20 ADD PUSH1 0x1 DUP3 MUL DUP1 CALLDATASIZE DUP4 CALLDATACOPY DUP1 DUP3 ADD SWAP2 POP POP SWAP1 POP JUMPDEST POP SWAP1 POP PUSH1 0x1 DUP3 ADD PUSH1 0x20 DUP3 ADD DUP6 DUP7 MLOAD DUP8 ADD JUMPDEST DUP1 DUP3 LT ISZERO PUSH2 0x30DE JUMPI PUSH1 0x3 DUP3 ADD SWAP2 POP DUP2 MLOAD PUSH1 0x3F DUP2 PUSH1 0x12 SHR AND DUP6 ADD MLOAD DUP5 MSTORE8 PUSH1 0x1 DUP5 ADD SWAP4 POP PUSH1 0x3F DUP2 PUSH1 0xC SHR AND DUP6 ADD MLOAD DUP5 MSTORE8 PUSH1 0x1 DUP5 ADD SWAP4 POP PUSH1 0x3F DUP2 PUSH1 0x6 SHR AND DUP6 ADD MLOAD DUP5 MSTORE8 PUSH1 0x1 DUP5 ADD SWAP4 POP PUSH1 0x3F DUP2 AND DUP6 ADD MLOAD DUP5 MSTORE8 PUSH1 0x1 DUP5 ADD SWAP4 POP POP PUSH2 0x3083 JUMP JUMPDEST POP POP PUSH1 0x3 DUP7 MLOAD MOD PUSH1 0x1 DUP2 EQ PUSH2 0x30FA JUMPI PUSH1 0x2 DUP2 EQ PUSH2 0x310D JUMPI PUSH2 0x3115 JUMP JUMPDEST PUSH1 0x3D PUSH1 0x1 DUP4 SUB MSTORE8 PUSH1 0x3D PUSH1 0x2 DUP4 SUB MSTORE8 PUSH2 0x3115 JUMP JUMPDEST PUSH1 0x3D PUSH1 0x1 DUP4 SUB MSTORE8 JUMPDEST POP POP POP DUP1 SWAP3 POP POP POP JUMPDEST SWAP2 SWAP1 POP JUMP JUMPDEST PUSH1 0x0 DUP1 DUP3 PUSH20 0xFFFFFFFFFFFFFFFFFFFFFFFFFFFFFFFFFFFFFFFF AND EXTCODESIZE GT SWAP1 POP SWAP2 SWAP1 POP JUMP JUMPDEST PUSH1 0x60 PUSH1 0x0 PUSH1 0x1 PUSH2 0x3155 DUP5 PUSH2 0x324B JUMP JUMPDEST ADD SWAP1 POP PUSH1 0x0 DUP2 PUSH8 0xFFFFFFFFFFFFFFFF DUP2 GT ISZERO PUSH2 0x3174 JUMPI PUSH2 0x3173 PUSH2 0x39F9 JUMP JUMPDEST JUMPDEST PUSH1 0x40 MLOAD SWAP1 DUP1 DUP3 MSTORE DUP1 PUSH1 0x1F ADD PUSH1 0x1F NOT AND PUSH1 0x20 ADD DUP3 ADD PUSH1 0x40 MSTORE DUP1 ISZERO PUSH2 0x31A6 JUMPI DUP2 PUSH1 0x20 ADD PUSH1 0x1 DUP3 MUL DUP1 CALLDATASIZE DUP4 CALLDATACOPY DUP1 DUP3 ADD SWAP2 POP POP SWAP1 POP JUMPDEST POP SWAP1 POP PUSH1 0x0 DUP3 PUSH1 0x20 ADD DUP3 ADD SWAP1 POP JUMPDEST PUSH1 0x1 ISZERO PUSH2 0x3213 JUMPI DUP1 DUP1 PUSH1 0x1 SWAP1 SUB SWAP2 POP POP PUSH32 0x3031323334353637383961626364656600000000000000000000000000000000 PUSH1 0xA DUP7 MOD BYTE DUP2 MSTORE8 PUSH1 0xA DUP6 DUP2 PUSH2 0x31FD JUMPI PUSH2 0x31FC PUSH2 0x4010 JUMP JUMPDEST JUMPDEST DIV SWAP5 POP PUSH1 0x0 DUP6 EQ ISZERO PUSH2 0x320E JUMPI PUSH2 0x3213 JUMP JUMPDEST PUSH2 0x31B4 JUMP JUMPDEST DUP2 SWAP4 POP POP POP POP SWAP2 SWAP1 POP JUMP JUMPDEST PUSH1 0x60 PUSH2 0x3244 DUP3 PUSH20 0xFFFFFFFFFFFFFFFFFFFFFFFFFFFFFFFFFFFFFFFF AND PUSH1 0x14 PUSH1 0xFF AND PUSH2 0x339E JUMP JUMPDEST SWAP1 POP SWAP2 SWAP1 POP JUMP JUMPDEST PUSH1 0x0 DUP1 PUSH1 0x0 SWAP1 POP PUSH27 0x184F03E93FF9F4DAA797ED6E38ED64BF6A1F010000000000000000 DUP4 LT PUSH2 0x32A9 JUMPI PUSH27 0x184F03E93FF9F4DAA797ED6E38ED64BF6A1F010000000000000000 DUP4 DUP2 PUSH2 0x329F JUMPI PUSH2 0x329E PUSH2 0x4010 JUMP JUMPDEST JUMPDEST DIV SWAP3 POP PUSH1 0x40 DUP2 ADD SWAP1 POP JUMPDEST PUSH14 0x4EE2D6D415B85ACEF8100000000 DUP4 LT PUSH2 0x32E6 JUMPI PUSH14 0x4EE2D6D415B85ACEF8100000000 DUP4 DUP2 PUSH2 0x32DC JUMPI PUSH2 0x32DB PUSH2 0x4010 JUMP JUMPDEST JUMPDEST DIV SWAP3 POP PUSH1 0x20 DUP2 ADD SWAP1 POP JUMPDEST PUSH7 0x2386F26FC10000 DUP4 LT PUSH2 0x3315 JUMPI PUSH7 0x2386F26FC10000 DUP4 DUP2 PUSH2 0x330B JUMPI PUSH2 0x330A PUSH2 0x4010 JUMP JUMPDEST JUMPDEST DIV SWAP3 POP PUSH1 0x10 DUP2 ADD SWAP1 POP JUMPDEST PUSH4 0x5F5E100 DUP4 LT PUSH2 0x333E JUMPI PUSH4 0x5F5E100 DUP4 DUP2 PUSH2 0x3334 JUMPI PUSH2 0x3333 PUSH2 0x4010 JUMP JUMPDEST JUMPDEST DIV SWAP3 POP PUSH1 0x8 DUP2 ADD SWAP1 POP JUMPDEST PUSH2 0x2710 DUP4 LT PUSH2 0x3363 JUMPI PUSH2 0x2710 DUP4 DUP2 PUSH2 0x3359 JUMPI PUSH2 0x3358 PUSH2 0x4010 JUMP JUMPDEST JUMPDEST DIV SWAP3 POP PUSH1 0x4 DUP2 ADD SWAP1 POP JUMPDEST PUSH1 0x64 DUP4 LT PUSH2 0x3386 JUMPI PUSH1 0x64 DUP4 DUP2 PUSH2 0x337C JUMPI PUSH2 0x337B PUSH2 0x4010 JUMP JUMPDEST JUMPDEST DIV SWAP3 POP PUSH1 0x2 DUP2 ADD SWAP1 POP JUMPDEST PUSH1 0xA DUP4 LT PUSH2 0x3395 JUMPI PUSH1 0x1 DUP2 ADD SWAP1 POP JUMPDEST DUP1 SWAP2 POP POP SWAP2 SWAP1 POP JUMP JUMPDEST PUSH1 0x60 PUSH1 0x0 PUSH1 0x2 DUP4 PUSH1 0x2 PUSH2 0x33B1 SWAP2 SWAP1 PUSH2 0x53F1 JUMP JUMPDEST PUSH2 0x33BB SWAP2 SWAP1 PUSH2 0x40E8 JUMP JUMPDEST PUSH8 0xFFFFFFFFFFFFFFFF DUP2 GT ISZERO PUSH2 0x33D4 JUMPI PUSH2 0x33D3 PUSH2 0x39F9 JUMP JUMPDEST JUMPDEST PUSH1 0x40 MLOAD SWAP1 DUP1 DUP3 MSTORE DUP1 PUSH1 0x1F ADD PUSH1 0x1F NOT AND PUSH1 0x20 ADD DUP3 ADD PUSH1 0x40 MSTORE DUP1 ISZERO PUSH2 0x3406 JUMPI DUP2 PUSH1 0x20 ADD PUSH1 0x1 DUP3 MUL DUP1 CALLDATASIZE DUP4 CALLDATACOPY DUP1 DUP3 ADD SWAP2 POP POP SWAP1 POP JUMPDEST POP SWAP1 POP PUSH32 0x3000000000000000000000000000000000000000000000000000000000000000 DUP2 PUSH1 0x0 DUP2 MLOAD DUP2 LT PUSH2 0x343E JUMPI PUSH2 0x343D PUSH2 0x48D9 JUMP JUMPDEST JUMPDEST PUSH1 0x20 ADD ADD SWAP1 PUSH31 0xFFFFFFFFFFFFFFFFFFFFFFFFFFFFFFFFFFFFFFFFFFFFFFFFFFFFFFFFFFFFFF NOT AND SWAP1 DUP2 PUSH1 0x0 BYTE SWAP1 MSTORE8 POP PUSH32 0x7800000000000000000000000000000000000000000000000000000000000000 DUP2 PUSH1 0x1 DUP2 MLOAD DUP2 LT PUSH2 0x34A2 JUMPI PUSH2 0x34A1 PUSH2 0x48D9 JUMP JUMPDEST JUMPDEST PUSH1 0x20 ADD ADD SWAP1 PUSH31 0xFFFFFFFFFFFFFFFFFFFFFFFFFFFFFFFFFFFFFFFFFFFFFFFFFFFFFFFFFFFFFF NOT AND SWAP1 DUP2 PUSH1 0x0 BYTE SWAP1 MSTORE8 POP PUSH1 0x0 PUSH1 0x1 DUP5 PUSH1 0x2 PUSH2 0x34E2 SWAP2 SWAP1 PUSH2 0x53F1 JUMP JUMPDEST PUSH2 0x34EC SWAP2 SWAP1 PUSH2 0x40E8 JUMP JUMPDEST SWAP1 POP JUMPDEST PUSH1 0x1 DUP2 GT ISZERO PUSH2 0x358C JUMPI PUSH32 0x3031323334353637383961626364656600000000000000000000000000000000 PUSH1 0xF DUP7 AND PUSH1 0x10 DUP2 LT PUSH2 0x352E JUMPI PUSH2 0x352D PUSH2 0x48D9 JUMP JUMPDEST JUMPDEST BYTE PUSH1 0xF8 SHL DUP3 DUP3 DUP2 MLOAD DUP2 LT PUSH2 0x3545 JUMPI PUSH2 0x3544 PUSH2 0x48D9 JUMP JUMPDEST JUMPDEST PUSH1 0x20 ADD ADD SWAP1 PUSH31 0xFFFFFFFFFFFFFFFFFFFFFFFFFFFFFFFFFFFFFFFFFFFFFFFFFFFFFFFFFFFFFF NOT AND SWAP1 DUP2 PUSH1 0x0 BYTE SWAP1 MSTORE8 POP PUSH1 0x4 DUP6 SWAP1 SHR SWAP5 POP DUP1 PUSH2 0x3585 SWAP1 PUSH2 0x413E JUMP JUMPDEST SWAP1 POP PUSH2 0x34EF JUMP JUMPDEST POP PUSH1 0x0 DUP5 EQ PUSH2 0x35D0 JUMPI PUSH1 0x40 MLOAD PUSH32 0x8C379A000000000000000000000000000000000000000000000000000000000 DUP2 MSTORE PUSH1 0x4 ADD PUSH2 0x35C7 SWAP1 PUSH2 0x5497 JUMP JUMPDEST PUSH1 0x40 MLOAD DUP1 SWAP2 SUB SWAP1 REVERT JUMPDEST DUP1 SWAP2 POP POP SWAP3 SWAP2 POP POP JUMP JUMPDEST DUP3 DUP1 SLOAD PUSH2 0x35E6 SWAP1 PUSH2 0x3E14 JUMP JUMPDEST SWAP1 PUSH1 0x0 MSTORE PUSH1 0x20 PUSH1 0x0 KECCAK256 SWAP1 PUSH1 0x1F ADD PUSH1 0x20 SWAP1 DIV DUP2 ADD SWAP3 DUP3 PUSH2 0x3608 JUMPI PUSH1 0x0 DUP6 SSTORE PUSH2 0x364F JUMP JUMPDEST DUP3 PUSH1 0x1F LT PUSH2 0x3621 JUMPI DUP1 MLOAD PUSH1 0xFF NOT AND DUP4 DUP1 ADD OR DUP6 SSTORE PUSH2 0x364F JUMP JUMPDEST DUP3 DUP1 ADD PUSH1 0x1 ADD DUP6 SSTORE DUP3 ISZERO PUSH2 0x364F JUMPI SWAP2 DUP3 ADD JUMPDEST DUP3 DUP2 GT ISZERO PUSH2 0x364E JUMPI DUP3 MLOAD DUP3 SSTORE SWAP2 PUSH1 0x20 ADD SWAP2 SWAP1 PUSH1 0x1 ADD SWAP1 PUSH2 0x3633 JUMP JUMPDEST JUMPDEST POP SWAP1 POP PUSH2 0x365C SWAP2 SWAP1 PUSH2 0x36A0 JUMP JUMPDEST POP SWAP1 JUMP JUMPDEST POP DUP1 SLOAD PUSH2 0x366C SWAP1 PUSH2 0x3E14 JUMP JUMPDEST PUSH1 0x0 DUP3 SSTORE DUP1 PUSH1 0x1F LT PUSH2 0x367E JUMPI POP PUSH2 0x369D JUMP JUMPDEST PUSH1 0x1F ADD PUSH1 0x20 SWAP1 DIV SWAP1 PUSH1 0x0 MSTORE PUSH1 0x20 PUSH1 0x0 KECCAK256 SWAP1 DUP2 ADD SWAP1 PUSH2 0x369C SWAP2 SWAP1 PUSH2 0x36A0 JUMP JUMPDEST JUMPDEST POP JUMP JUMPDEST JUMPDEST DUP1 DUP3 GT ISZERO PUSH2 0x36B9 JUMPI PUSH1 0x0 DUP2 PUSH1 0x0 SWAP1 SSTORE POP PUSH1 0x1 ADD PUSH2 0x36A1 JUMP JUMPDEST POP SWAP1 JUMP JUMPDEST PUSH1 0x0 PUSH1 0x40 MLOAD SWAP1 POP SWAP1 JUMP JUMPDEST PUSH1 0x0 DUP1 REVERT JUMPDEST PUSH1 0x0 DUP1 REVERT JUMPDEST PUSH1 0x0 PUSH32 0xFFFFFFFF00000000000000000000000000000000000000000000000000000000 DUP3 AND SWAP1 POP SWAP2 SWAP1 POP JUMP JUMPDEST PUSH2 0x3706 DUP2 PUSH2 0x36D1 JUMP JUMPDEST DUP2 EQ PUSH2 0x3711 JUMPI PUSH1 0x0 DUP1 REVERT JUMPDEST POP JUMP JUMPDEST PUSH1 0x0 DUP2 CALLDATALOAD SWAP1 POP PUSH2 0x3723 DUP2 PUSH2 0x36FD JUMP JUMPDEST SWAP3 SWAP2 POP POP JUMP JUMPDEST PUSH1 0x0 PUSH1 0x20 DUP3 DUP5 SUB SLT ISZERO PUSH2 0x373F JUMPI PUSH2 0x373E PUSH2 0x36C7 JUMP JUMPDEST JUMPDEST PUSH1 0x0 PUSH2 0x374D DUP5 DUP3 DUP6 ADD PUSH2 0x3714 JUMP JUMPDEST SWAP2 POP POP SWAP3 SWAP2 POP POP JUMP JUMPDEST PUSH1 0x0 DUP2 ISZERO ISZERO SWAP1 POP SWAP2 SWAP1 POP JUMP JUMPDEST PUSH2 0x376B DUP2 PUSH2 0x3756 JUMP JUMPDEST DUP3 MSTORE POP POP JUMP JUMPDEST PUSH1 0x0 PUSH1 0x20 DUP3 ADD SWAP1 POP PUSH2 0x3786 PUSH1 0x0 DUP4 ADD DUP5 PUSH2 0x3762 JUMP JUMPDEST SWAP3 SWAP2 POP POP JUMP JUMPDEST PUSH1 0x0 DUP2 MLOAD SWAP1 POP SWAP2 SWAP1 POP JUMP JUMPDEST PUSH1 0x0 DUP3 DUP3 MSTORE PUSH1 0x20 DUP3 ADD SWAP1 POP SWAP3 SWAP2 POP POP JUMP JUMPDEST PUSH1 0x0 JUMPDEST DUP4 DUP2 LT ISZERO PUSH2 0x37C6 JUMPI DUP1 DUP3 ADD MLOAD DUP2 DUP5 ADD MSTORE PUSH1 0x20 DUP2 ADD SWAP1 POP PUSH2 0x37AB JUMP JUMPDEST DUP4 DUP2 GT ISZERO PUSH2 0x37D5 JUMPI PUSH1 0x0 DUP5 DUP5 ADD MSTORE JUMPDEST POP POP POP POP JUMP JUMPDEST PUSH1 0x0 PUSH1 0x1F NOT PUSH1 0x1F DUP4 ADD AND SWAP1 POP SWAP2 SWAP1 POP JUMP JUMPDEST PUSH1 0x0 PUSH2 0x37F7 DUP3 PUSH2 0x378C JUMP JUMPDEST PUSH2 0x3801 DUP2 DUP6 PUSH2 0x3797 JUMP JUMPDEST SWAP4 POP PUSH2 0x3811 DUP2 DUP6 PUSH1 0x20 DUP7 ADD PUSH2 0x37A8 JUMP JUMPDEST PUSH2 0x381A DUP2 PUSH2 0x37DB JUMP JUMPDEST DUP5 ADD SWAP2 POP POP SWAP3 SWAP2 POP POP JUMP JUMPDEST PUSH1 0x0 PUSH1 0x20 DUP3 ADD SWAP1 POP DUP2 DUP2 SUB PUSH1 0x0 DUP4 ADD MSTORE PUSH2 0x383F DUP2 DUP5 PUSH2 0x37EC JUMP JUMPDEST SWAP1 POP SWAP3 SWAP2 POP POP JUMP JUMPDEST PUSH1 0x0 DUP2 SWAP1 POP SWAP2 SWAP1 POP JUMP JUMPDEST PUSH2 0x385A DUP2 PUSH2 0x3847 JUMP JUMPDEST DUP2 EQ PUSH2 0x3865 JUMPI PUSH1 0x0 DUP1 REVERT JUMPDEST POP JUMP JUMPDEST PUSH1 0x0 DUP2 CALLDATALOAD SWAP1 POP PUSH2 0x3877 DUP2 PUSH2 0x3851 JUMP JUMPDEST SWAP3 SWAP2 POP POP JUMP JUMPDEST PUSH1 0x0 PUSH1 0x20 DUP3 DUP5 SUB SLT ISZERO PUSH2 0x3893 JUMPI PUSH2 0x3892 PUSH2 0x36C7 JUMP JUMPDEST JUMPDEST PUSH1 0x0 PUSH2 0x38A1 DUP5 DUP3 DUP6 ADD PUSH2 0x3868 JUMP JUMPDEST SWAP2 POP POP SWAP3 SWAP2 POP POP JUMP JUMPDEST PUSH1 0x0 PUSH20 0xFFFFFFFFFFFFFFFFFFFFFFFFFFFFFFFFFFFFFFFF DUP3 AND SWAP1 POP SWAP2 SWAP1 POP JUMP JUMPDEST PUSH1 0x0 PUSH2 0x38D5 DUP3 PUSH2 0x38AA JUMP JUMPDEST SWAP1 POP SWAP2 SWAP1 POP JUMP JUMPDEST PUSH2 0x38E5 DUP2 PUSH2 0x38CA JUMP JUMPDEST DUP3 MSTORE POP POP JUMP JUMPDEST PUSH1 0x0 PUSH1 0x20 DUP3 ADD SWAP1 POP PUSH2 0x3900 PUSH1 0x0 DUP4 ADD DUP5 PUSH2 0x38DC JUMP JUMPDEST SWAP3 SWAP2 POP POP JUMP JUMPDEST PUSH2 0x390F DUP2 PUSH2 0x38CA JUMP JUMPDEST DUP2 EQ PUSH2 0x391A JUMPI PUSH1 0x0 DUP1 REVERT JUMPDEST POP JUMP JUMPDEST PUSH1 0x0 DUP2 CALLDATALOAD SWAP1 POP PUSH2 0x392C DUP2 PUSH2 0x3906 JUMP JUMPDEST SWAP3 SWAP2 POP POP JUMP JUMPDEST PUSH1 0x0 DUP1 PUSH1 0x40 DUP4 DUP6 SUB SLT ISZERO PUSH2 0x3949 JUMPI PUSH2 0x3948 PUSH2 0x36C7 JUMP JUMPDEST JUMPDEST PUSH1 0x0 PUSH2 0x3957 DUP6 DUP3 DUP7 ADD PUSH2 0x391D JUMP JUMPDEST SWAP3 POP POP PUSH1 0x20 PUSH2 0x3968 DUP6 DUP3 DUP7 ADD PUSH2 0x3868 JUMP JUMPDEST SWAP2 POP POP SWAP3 POP SWAP3 SWAP1 POP JUMP JUMPDEST PUSH2 0x397B DUP2 PUSH2 0x3847 JUMP JUMPDEST DUP3 MSTORE POP POP JUMP JUMPDEST PUSH1 0x0 PUSH1 0x20 DUP3 ADD SWAP1 POP PUSH2 0x3996 PUSH1 0x0 DUP4 ADD DUP5 PUSH2 0x3972 JUMP JUMPDEST SWAP3 SWAP2 POP POP JUMP JUMPDEST PUSH1 0x0 DUP1 PUSH1 0x0 PUSH1 0x60 DUP5 DUP7 SUB SLT ISZERO PUSH2 0x39B5 JUMPI PUSH2 0x39B4 PUSH2 0x36C7 JUMP JUMPDEST JUMPDEST PUSH1 0x0 PUSH2 0x39C3 DUP7 DUP3 DUP8 ADD PUSH2 0x391D JUMP JUMPDEST SWAP4 POP POP PUSH1 0x20 PUSH2 0x39D4 DUP7 DUP3 DUP8 ADD PUSH2 0x391D JUMP JUMPDEST SWAP3 POP POP PUSH1 0x40 PUSH2 0x39E5 DUP7 DUP3 DUP8 ADD PUSH2 0x3868 JUMP JUMPDEST SWAP2 POP POP SWAP3 POP SWAP3 POP SWAP3 JUMP JUMPDEST PUSH1 0x0 DUP1 REVERT JUMPDEST PUSH1 0x0 DUP1 REVERT JUMPDEST PUSH32 0x4E487B7100000000000000000000000000000000000000000000000000000000 PUSH1 0x0 MSTORE PUSH1 0x41 PUSH1 0x4 MSTORE PUSH1 0x24 PUSH1 0x0 REVERT JUMPDEST PUSH2 0x3A31 DUP3 PUSH2 0x37DB JUMP JUMPDEST DUP2 ADD DUP2 DUP2 LT PUSH8 0xFFFFFFFFFFFFFFFF DUP3 GT OR ISZERO PUSH2 0x3A50 JUMPI PUSH2 0x3A4F PUSH2 0x39F9 JUMP JUMPDEST JUMPDEST DUP1 PUSH1 0x40 MSTORE POP POP POP JUMP JUMPDEST PUSH1 0x0 PUSH2 0x3A63 PUSH2 0x36BD JUMP JUMPDEST SWAP1 POP PUSH2 0x3A6F DUP3 DUP3 PUSH2 0x3A28 JUMP JUMPDEST SWAP2 SWAP1 POP JUMP JUMPDEST PUSH1 0x0 PUSH8 0xFFFFFFFFFFFFFFFF DUP3 GT ISZERO PUSH2 0x3A8F JUMPI PUSH2 0x3A8E PUSH2 0x39F9 JUMP JUMPDEST JUMPDEST PUSH2 0x3A98 DUP3 PUSH2 0x37DB JUMP JUMPDEST SWAP1 POP PUSH1 0x20 DUP2 ADD SWAP1 POP SWAP2 SWAP1 POP JUMP JUMPDEST DUP3 DUP2 DUP4 CALLDATACOPY PUSH1 0x0 DUP4 DUP4 ADD MSTORE POP POP POP JUMP JUMPDEST PUSH1 0x0 PUSH2 0x3AC7 PUSH2 0x3AC2 DUP5 PUSH2 0x3A74 JUMP JUMPDEST PUSH2 0x3A59 JUMP JUMPDEST SWAP1 POP DUP3 DUP2 MSTORE PUSH1 0x20 DUP2 ADD DUP5 DUP5 DUP5 ADD GT ISZERO PUSH2 0x3AE3 JUMPI PUSH2 0x3AE2 PUSH2 0x39F4 JUMP JUMPDEST JUMPDEST PUSH2 0x3AEE DUP5 DUP3 DUP6 PUSH2 0x3AA5 JUMP JUMPDEST POP SWAP4 SWAP3 POP POP POP JUMP JUMPDEST PUSH1 0x0 DUP3 PUSH1 0x1F DUP4 ADD SLT PUSH2 0x3B0B JUMPI PUSH2 0x3B0A PUSH2 0x39EF JUMP JUMPDEST JUMPDEST DUP2 CALLDATALOAD PUSH2 0x3B1B DUP5 DUP3 PUSH1 0x20 DUP7 ADD PUSH2 0x3AB4 JUMP JUMPDEST SWAP2 POP POP SWAP3 SWAP2 POP POP JUMP JUMPDEST PUSH1 0x0 PUSH1 0x20 DUP3 DUP5 SUB SLT ISZERO PUSH2 0x3B3A JUMPI PUSH2 0x3B39 PUSH2 0x36C7 JUMP JUMPDEST JUMPDEST PUSH1 0x0 DUP3 ADD CALLDATALOAD PUSH8 0xFFFFFFFFFFFFFFFF DUP2 GT ISZERO PUSH2 0x3B58 JUMPI PUSH2 0x3B57 PUSH2 0x36CC JUMP JUMPDEST JUMPDEST PUSH2 0x3B64 DUP5 DUP3 DUP6 ADD PUSH2 0x3AF6 JUMP JUMPDEST SWAP2 POP POP SWAP3 SWAP2 POP POP JUMP JUMPDEST PUSH1 0x0 PUSH1 0x20 DUP3 DUP5 SUB SLT ISZERO PUSH2 0x3B83 JUMPI PUSH2 0x3B82 PUSH2 0x36C7 JUMP JUMPDEST JUMPDEST PUSH1 0x0 PUSH2 0x3B91 DUP5 DUP3 DUP6 ADD PUSH2 0x391D JUMP JUMPDEST SWAP2 POP POP SWAP3 SWAP2 POP POP JUMP JUMPDEST PUSH2 0x3BA3 DUP2 PUSH2 0x3756 JUMP JUMPDEST DUP2 EQ PUSH2 0x3BAE JUMPI PUSH1 0x0 DUP1 REVERT JUMPDEST POP JUMP JUMPDEST PUSH1 0x0 DUP2 CALLDATALOAD SWAP1 POP PUSH2 0x3BC0 DUP2 PUSH2 0x3B9A JUMP JUMPDEST SWAP3 SWAP2 POP POP JUMP JUMPDEST PUSH1 0x0 DUP1 PUSH1 0x40 DUP4 DUP6 SUB SLT ISZERO PUSH2 0x3BDD JUMPI PUSH2 0x3BDC PUSH2 0x36C7 JUMP JUMPDEST JUMPDEST PUSH1 0x0 PUSH2 0x3BEB DUP6 DUP3 DUP7 ADD PUSH2 0x391D JUMP JUMPDEST SWAP3 POP POP PUSH1 0x20 PUSH2 0x3BFC DUP6 DUP3 DUP7 ADD PUSH2 0x3BB1 JUMP JUMPDEST SWAP2 POP POP SWAP3 POP SWAP3 SWAP1 POP JUMP JUMPDEST PUSH1 0x0 PUSH8 0xFFFFFFFFFFFFFFFF DUP3 GT ISZERO PUSH2 0x3C21 JUMPI PUSH2 0x3C20 PUSH2 0x39F9 JUMP JUMPDEST JUMPDEST PUSH2 0x3C2A DUP3 PUSH2 0x37DB JUMP JUMPDEST SWAP1 POP PUSH1 0x20 DUP2 ADD SWAP1 POP SWAP2 SWAP1 POP JUMP JUMPDEST PUSH1 0x0 PUSH2 0x3C4A PUSH2 0x3C45 DUP5 PUSH2 0x3C06 JUMP JUMPDEST PUSH2 0x3A59 JUMP JUMPDEST SWAP1 POP DUP3 DUP2 MSTORE PUSH1 0x20 DUP2 ADD DUP5 DUP5 DUP5 ADD GT ISZERO PUSH2 0x3C66 JUMPI PUSH2 0x3C65 PUSH2 0x39F4 JUMP JUMPDEST JUMPDEST PUSH2 0x3C71 DUP5 DUP3 DUP6 PUSH2 0x3AA5 JUMP JUMPDEST POP SWAP4 SWAP3 POP POP POP JUMP JUMPDEST PUSH1 0x0 DUP3 PUSH1 0x1F DUP4 ADD SLT PUSH2 0x3C8E JUMPI PUSH2 0x3C8D PUSH2 0x39EF JUMP JUMPDEST JUMPDEST DUP2 CALLDATALOAD PUSH2 0x3C9E DUP5 DUP3 PUSH1 0x20 DUP7 ADD PUSH2 0x3C37 JUMP JUMPDEST SWAP2 POP POP SWAP3 SWAP2 POP POP JUMP JUMPDEST PUSH1 0x0 DUP1 PUSH1 0x0 DUP1 PUSH1 0x80 DUP6 DUP8 SUB SLT ISZERO PUSH2 0x3CC1 JUMPI PUSH2 0x3CC0 PUSH2 0x36C7 JUMP JUMPDEST JUMPDEST PUSH1 0x0 PUSH2 0x3CCF DUP8 DUP3 DUP9 ADD PUSH2 0x391D JUMP JUMPDEST SWAP5 POP POP PUSH1 0x20 PUSH2 0x3CE0 DUP8 DUP3 DUP9 ADD PUSH2 0x391D JUMP JUMPDEST SWAP4 POP POP PUSH1 0x40 PUSH2 0x3CF1 DUP8 DUP3 DUP9 ADD PUSH2 0x3868 JUMP JUMPDEST SWAP3 POP POP PUSH1 0x60 DUP6 ADD CALLDATALOAD PUSH8 0xFFFFFFFFFFFFFFFF DUP2 GT ISZERO PUSH2 0x3D12 JUMPI PUSH2 0x3D11 PUSH2 0x36CC JUMP JUMPDEST JUMPDEST PUSH2 0x3D1E DUP8 DUP3 DUP9 ADD PUSH2 0x3C79 JUMP JUMPDEST SWAP2 POP POP SWAP3 SWAP6 SWAP2 SWAP5 POP SWAP3 POP JUMP JUMPDEST PUSH1 0x0 DUP1 PUSH1 0x0 DUP1 PUSH1 0x0 PUSH1 0xA0 DUP7 DUP9 SUB SLT ISZERO PUSH2 0x3D46 JUMPI PUSH2 0x3D45 PUSH2 0x36C7 JUMP JUMPDEST JUMPDEST PUSH1 0x0 PUSH2 0x3D54 DUP9 DUP3 DUP10 ADD PUSH2 0x3868 JUMP JUMPDEST SWAP6 POP POP PUSH1 0x20 PUSH2 0x3D65 DUP9 DUP3 DUP10 ADD PUSH2 0x3868 JUMP JUMPDEST SWAP5 POP POP PUSH1 0x40 PUSH2 0x3D76 DUP9 DUP3 DUP10 ADD PUSH2 0x3868 JUMP JUMPDEST SWAP4 POP POP PUSH1 0x60 PUSH2 0x3D87 DUP9 DUP3 DUP10 ADD PUSH2 0x3868 JUMP JUMPDEST SWAP3 POP POP PUSH1 0x80 PUSH2 0x3D98 DUP9 DUP3 DUP10 ADD PUSH2 0x3868 JUMP JUMPDEST SWAP2 POP POP SWAP3 SWAP6 POP SWAP3 SWAP6 SWAP1 SWAP4 POP JUMP JUMPDEST PUSH1 0x0 DUP1 PUSH1 0x40 DUP4 DUP6 SUB SLT ISZERO PUSH2 0x3DBC JUMPI PUSH2 0x3DBB PUSH2 0x36C7 JUMP JUMPDEST JUMPDEST PUSH1 0x0 PUSH2 0x3DCA DUP6 DUP3 DUP7 ADD PUSH2 0x391D JUMP JUMPDEST SWAP3 POP POP PUSH1 0x20 PUSH2 0x3DDB DUP6 DUP3 DUP7 ADD PUSH2 0x391D JUMP JUMPDEST SWAP2 POP POP SWAP3 POP SWAP3 SWAP1 POP JUMP JUMPDEST PUSH32 0x4E487B7100000000000000000000000000000000000000000000000000000000 PUSH1 0x0 MSTORE PUSH1 0x22 PUSH1 0x4 MSTORE PUSH1 0x24 PUSH1 0x0 REVERT JUMPDEST PUSH1 0x0 PUSH1 0x2 DUP3 DIV SWAP1 POP PUSH1 0x1 DUP3 AND DUP1 PUSH2 0x3E2C JUMPI PUSH1 0x7F DUP3 AND SWAP2 POP JUMPDEST PUSH1 0x20 DUP3 LT DUP2 EQ ISZERO PUSH2 0x3E40 JUMPI PUSH2 0x3E3F PUSH2 0x3DE5 JUMP JUMPDEST JUMPDEST POP SWAP2 SWAP1 POP JUMP JUMPDEST PUSH32 0x4552433732313A20617070726F76616C20746F2063757272656E74206F776E65 PUSH1 0x0 DUP3 ADD MSTORE PUSH32 0x7200000000000000000000000000000000000000000000000000000000000000 PUSH1 0x20 DUP3 ADD MSTORE POP JUMP JUMPDEST PUSH1 0x0 PUSH2 0x3EA2 PUSH1 0x21 DUP4 PUSH2 0x3797 JUMP JUMPDEST SWAP2 POP PUSH2 0x3EAD DUP3 PUSH2 0x3E46 JUMP JUMPDEST PUSH1 0x40 DUP3 ADD SWAP1 POP SWAP2 SWAP1 POP JUMP JUMPDEST PUSH1 0x0 PUSH1 0x20 DUP3 ADD SWAP1 POP DUP2 DUP2 SUB PUSH1 0x0 DUP4 ADD MSTORE PUSH2 0x3ED1 DUP2 PUSH2 0x3E95 JUMP JUMPDEST SWAP1 POP SWAP2 SWAP1 POP JUMP JUMPDEST PUSH32 0x4552433732313A20617070726F76652063616C6C6572206973206E6F7420746F PUSH1 0x0 DUP3 ADD MSTORE PUSH32 0x6B656E206F776E6572206E6F7220617070726F76656420666F7220616C6C0000 PUSH1 0x20 DUP3 ADD MSTORE POP JUMP JUMPDEST PUSH1 0x0 PUSH2 0x3F34 PUSH1 0x3E DUP4 PUSH2 0x3797 JUMP JUMPDEST SWAP2 POP PUSH2 0x3F3F DUP3 PUSH2 0x3ED8 JUMP JUMPDEST PUSH1 0x40 DUP3 ADD SWAP1 POP SWAP2 SWAP1 POP JUMP JUMPDEST PUSH1 0x0 PUSH1 0x20 DUP3 ADD SWAP1 POP DUP2 DUP2 SUB PUSH1 0x0 DUP4 ADD MSTORE PUSH2 0x3F63 DUP2 PUSH2 0x3F27 JUMP JUMPDEST SWAP1 POP SWAP2 SWAP1 POP JUMP JUMPDEST PUSH1 0x0 DUP2 SWAP1 POP SWAP2 SWAP1 POP JUMP JUMPDEST PUSH2 0x3F85 PUSH2 0x3F80 DUP3 PUSH2 0x3847 JUMP JUMPDEST PUSH2 0x3F6A JUMP JUMPDEST DUP3 MSTORE POP POP JUMP JUMPDEST PUSH1 0x0 DUP2 PUSH1 0x60 SHL SWAP1 POP SWAP2 SWAP1 POP JUMP JUMPDEST PUSH1 0x0 PUSH2 0x3FA3 DUP3 PUSH2 0x3F8B JUMP JUMPDEST SWAP1 POP SWAP2 SWAP1 POP JUMP JUMPDEST PUSH1 0x0 PUSH2 0x3FB5 DUP3 PUSH2 0x3F98 JUMP JUMPDEST SWAP1 POP SWAP2 SWAP1 POP JUMP JUMPDEST PUSH2 0x3FCD PUSH2 0x3FC8 DUP3 PUSH2 0x38CA JUMP JUMPDEST PUSH2 0x3FAA JUMP JUMPDEST DUP3 MSTORE POP POP JUMP JUMPDEST PUSH1 0x0 PUSH2 0x3FDF DUP3 DUP7 PUSH2 0x3F74 JUMP JUMPDEST PUSH1 0x20 DUP3 ADD SWAP2 POP PUSH2 0x3FEF DUP3 DUP6 PUSH2 0x3FBC JUMP JUMPDEST PUSH1 0x14 DUP3 ADD SWAP2 POP PUSH2 0x3FFF DUP3 DUP5 PUSH2 0x3F74 JUMP JUMPDEST PUSH1 0x20 DUP3 ADD SWAP2 POP DUP2 SWAP1 POP SWAP5 SWAP4 POP POP POP POP JUMP JUMPDEST PUSH32 0x4E487B7100000000000000000000000000000000000000000000000000000000 PUSH1 0x0 MSTORE PUSH1 0x12 PUSH1 0x4 MSTORE PUSH1 0x24 PUSH1 0x0 REVERT JUMPDEST PUSH1 0x0 PUSH2 0x404A DUP3 PUSH2 0x3847 JUMP JUMPDEST SWAP2 POP PUSH2 0x4055 DUP4 PUSH2 0x3847 JUMP JUMPDEST SWAP3 POP DUP3 PUSH2 0x4065 JUMPI PUSH2 0x4064 PUSH2 0x4010 JUMP JUMPDEST JUMPDEST DUP3 DUP3 MOD SWAP1 POP SWAP3 SWAP2 POP POP JUMP JUMPDEST PUSH32 0x4E487B7100000000000000000000000000000000000000000000000000000000 PUSH1 0x0 MSTORE PUSH1 0x11 PUSH1 0x4 MSTORE PUSH1 0x24 PUSH1 0x0 REVERT JUMPDEST PUSH1 0x0 PUSH2 0x40AA DUP3 PUSH2 0x3847 JUMP JUMPDEST SWAP2 POP PUSH32 0xFFFFFFFFFFFFFFFFFFFFFFFFFFFFFFFFFFFFFFFFFFFFFFFFFFFFFFFFFFFFFFFF DUP3 EQ ISZERO PUSH2 0x40DD JUMPI PUSH2 0x40DC PUSH2 0x4070 JUMP JUMPDEST JUMPDEST PUSH1 0x1 DUP3 ADD SWAP1 POP SWAP2 SWAP1 POP JUMP JUMPDEST PUSH1 0x0 PUSH2 0x40F3 DUP3 PUSH2 0x3847 JUMP JUMPDEST SWAP2 POP PUSH2 0x40FE DUP4 PUSH2 0x3847 JUMP JUMPDEST SWAP3 POP DUP3 PUSH32 0xFFFFFFFFFFFFFFFFFFFFFFFFFFFFFFFFFFFFFFFFFFFFFFFFFFFFFFFFFFFFFFFF SUB DUP3 GT ISZERO PUSH2 0x4133 JUMPI PUSH2 0x4132 PUSH2 0x4070 JUMP JUMPDEST JUMPDEST DUP3 DUP3 ADD SWAP1 POP SWAP3 SWAP2 POP POP JUMP JUMPDEST PUSH1 0x0 PUSH2 0x4149 DUP3 PUSH2 0x3847 JUMP JUMPDEST SWAP2 POP PUSH1 0x0 DUP3 EQ ISZERO PUSH2 0x415D JUMPI PUSH2 0x415C PUSH2 0x4070 JUMP JUMPDEST JUMPDEST PUSH1 0x1 DUP3 SUB SWAP1 POP SWAP2 SWAP1 POP JUMP JUMPDEST PUSH32 0x4552433732313A2063616C6C6572206973206E6F7420746F6B656E206F776E65 PUSH1 0x0 DUP3 ADD MSTORE PUSH32 0x72206E6F7220617070726F766564000000000000000000000000000000000000 PUSH1 0x20 DUP3 ADD MSTORE POP JUMP JUMPDEST PUSH1 0x0 PUSH2 0x41C4 PUSH1 0x2E DUP4 PUSH2 0x3797 JUMP JUMPDEST SWAP2 POP PUSH2 0x41CF DUP3 PUSH2 0x4168 JUMP JUMPDEST PUSH1 0x40 DUP3 ADD SWAP1 POP SWAP2 SWAP1 POP JUMP JUMPDEST PUSH1 0x0 PUSH1 0x20 DUP3 ADD SWAP1 POP DUP2 DUP2 SUB PUSH1 0x0 DUP4 ADD MSTORE PUSH2 0x41F3 DUP2 PUSH2 0x41B7 JUMP JUMPDEST SWAP1 POP SWAP2 SWAP1 POP JUMP JUMPDEST PUSH32 0x4F6E6C7920746865206F776E6572206F66204E46542063616E207472616E7366 PUSH1 0x0 DUP3 ADD MSTORE PUSH32 0x6572206F722062756E7420697400000000000000000000000000000000000000 PUSH1 0x20 DUP3 ADD MSTORE POP JUMP JUMPDEST PUSH1 0x0 PUSH2 0x4256 PUSH1 0x2D DUP4 PUSH2 0x3797 JUMP JUMPDEST SWAP2 POP PUSH2 0x4261 DUP3 PUSH2 0x41FA JUMP JUMPDEST PUSH1 0x40 DUP3 ADD SWAP1 POP SWAP2 SWAP1 POP JUMP JUMPDEST PUSH1 0x0 PUSH1 0x20 DUP3 ADD SWAP1 POP DUP2 DUP2 SUB PUSH1 0x0 DUP4 ADD MSTORE PUSH2 0x4285 DUP2 PUSH2 0x4249 JUMP JUMPDEST SWAP1 POP SWAP2 SWAP1 POP JUMP JUMPDEST PUSH1 0x0 DUP2 SWAP1 POP SWAP3 SWAP2 POP POP JUMP JUMPDEST POP JUMP JUMPDEST PUSH1 0x0 PUSH2 0x42A7 PUSH1 0x0 DUP4 PUSH2 0x428C JUMP JUMPDEST SWAP2 POP PUSH2 0x42B2 DUP3 PUSH2 0x4297 JUMP JUMPDEST PUSH1 0x0 DUP3 ADD SWAP1 POP SWAP2 SWAP1 POP JUMP JUMPDEST PUSH1 0x0 PUSH2 0x42C8 DUP3 PUSH2 0x429A JUMP JUMPDEST SWAP2 POP DUP2 SWAP1 POP SWAP2 SWAP1 POP JUMP JUMPDEST PUSH32 0x5769746864726177206661696C00000000000000000000000000000000000000 PUSH1 0x0 DUP3 ADD MSTORE POP JUMP JUMPDEST PUSH1 0x0 PUSH2 0x4308 PUSH1 0xD DUP4 PUSH2 0x3797 JUMP JUMPDEST SWAP2 POP PUSH2 0x4313 DUP3 PUSH2 0x42D2 JUMP JUMPDEST PUSH1 0x20 DUP3 ADD SWAP1 POP SWAP2 SWAP1 POP JUMP JUMPDEST PUSH1 0x0 PUSH1 0x20 DUP3 ADD SWAP1 POP DUP2 DUP2 SUB PUSH1 0x0 DUP4 ADD MSTORE PUSH2 0x4337 DUP2 PUSH2 0x42FB JUMP JUMPDEST SWAP1 POP SWAP2 SWAP1 POP JUMP JUMPDEST PUSH32 0x4552433732313A20696E76616C696420746F6B656E2049440000000000000000 PUSH1 0x0 DUP3 ADD MSTORE POP JUMP JUMPDEST PUSH1 0x0 PUSH2 0x4374 PUSH1 0x18 DUP4 PUSH2 0x3797 JUMP JUMPDEST SWAP2 POP PUSH2 0x437F DUP3 PUSH2 0x433E JUMP JUMPDEST PUSH1 0x20 DUP3 ADD SWAP1 POP SWAP2 SWAP1 POP JUMP JUMPDEST PUSH1 0x0 PUSH1 0x20 DUP3 ADD SWAP1 POP DUP2 DUP2 SUB PUSH1 0x0 DUP4 ADD MSTORE PUSH2 0x43A3 DUP2 PUSH2 0x4367 JUMP JUMPDEST SWAP1 POP SWAP2 SWAP1 POP JUMP JUMPDEST PUSH32 0x4552433732313A2061646472657373207A65726F206973206E6F742061207661 PUSH1 0x0 DUP3 ADD MSTORE PUSH32 0x6C6964206F776E65720000000000000000000000000000000000000000000000 PUSH1 0x20 DUP3 ADD MSTORE POP JUMP JUMPDEST PUSH1 0x0 PUSH2 0x4406 PUSH1 0x29 DUP4 PUSH2 0x3797 JUMP JUMPDEST SWAP2 POP PUSH2 0x4411 DUP3 PUSH2 0x43AA JUMP JUMPDEST PUSH1 0x40 DUP3 ADD SWAP1 POP SWAP2 SWAP1 POP JUMP JUMPDEST PUSH1 0x0 PUSH1 0x20 DUP3 ADD SWAP1 POP DUP2 DUP2 SUB PUSH1 0x0 DUP4 ADD MSTORE PUSH2 0x4435 DUP2 PUSH2 0x43F9 JUMP JUMPDEST SWAP1 POP SWAP2 SWAP1 POP JUMP JUMPDEST PUSH1 0x0 DUP2 SWAP1 POP SWAP3 SWAP2 POP POP JUMP JUMPDEST PUSH1 0x0 PUSH2 0x4452 DUP3 PUSH2 0x378C JUMP JUMPDEST PUSH2 0x445C DUP2 DUP6 PUSH2 0x443C JUMP JUMPDEST SWAP4 POP PUSH2 0x446C DUP2 DUP6 PUSH1 0x20 DUP7 ADD PUSH2 0x37A8 JUMP JUMPDEST DUP1 DUP5 ADD SWAP2 POP POP SWAP3 SWAP2 POP POP JUMP JUMPDEST PUSH1 0x0 PUSH2 0x4484 DUP3 DUP6 PUSH2 0x4447 JUMP JUMPDEST SWAP2 POP PUSH2 0x4490 DUP3 DUP5 PUSH2 0x4447 JUMP JUMPDEST SWAP2 POP DUP2 SWAP1 POP SWAP4 SWAP3 POP POP POP JUMP JUMPDEST PUSH32 0x4F776E61626C653A206E6577206F776E657220697320746865207A65726F2061 PUSH1 0x0 DUP3 ADD MSTORE PUSH32 0x6464726573730000000000000000000000000000000000000000000000000000 PUSH1 0x20 DUP3 ADD MSTORE POP JUMP JUMPDEST PUSH1 0x0 PUSH2 0x44F8 PUSH1 0x26 DUP4 PUSH2 0x3797 JUMP JUMPDEST SWAP2 POP PUSH2 0x4503 DUP3 PUSH2 0x449C JUMP JUMPDEST PUSH1 0x40 DUP3 ADD SWAP1 POP SWAP2 SWAP1 POP JUMP JUMPDEST PUSH1 0x0 PUSH1 0x20 DUP3 ADD SWAP1 POP DUP2 DUP2 SUB PUSH1 0x0 DUP4 ADD MSTORE PUSH2 0x4527 DUP2 PUSH2 0x44EB JUMP JUMPDEST SWAP1 POP SWAP2 SWAP1 POP JUMP JUMPDEST PUSH1 0x0 DUP2 SWAP1 POP DUP2 PUSH1 0x0 MSTORE PUSH1 0x20 PUSH1 0x0 KECCAK256 SWAP1 POP SWAP2 SWAP1 POP JUMP JUMPDEST PUSH1 0x0 DUP2 SLOAD PUSH2 0x4550 DUP2 PUSH2 0x3E14 JUMP JUMPDEST PUSH2 0x455A DUP2 DUP7 PUSH2 0x443C JUMP JUMPDEST SWAP5 POP PUSH1 0x1 DUP3 AND PUSH1 0x0 DUP2 EQ PUSH2 0x4575 JUMPI PUSH1 0x1 DUP2 EQ PUSH2 0x4586 JUMPI PUSH2 0x45B9 JUMP JUMPDEST PUSH1 0xFF NOT DUP4 AND DUP7 MSTORE DUP2 DUP7 ADD SWAP4 POP PUSH2 0x45B9 JUMP JUMPDEST PUSH2 0x458F DUP6 PUSH2 0x452E JUMP JUMPDEST PUSH1 0x0 JUMPDEST DUP4 DUP2 LT ISZERO PUSH2 0x45B1 JUMPI DUP2 SLOAD DUP2 DUP10 ADD MSTORE PUSH1 0x1 DUP3 ADD SWAP2 POP PUSH1 0x20 DUP2 ADD SWAP1 POP PUSH2 0x4592 JUMP JUMPDEST DUP4 DUP9 ADD SWAP6 POP POP POP JUMPDEST POP POP POP SWAP3 SWAP2 POP POP JUMP JUMPDEST PUSH1 0x0 PUSH2 0x45CE DUP3 DUP6 PUSH2 0x4543 JUMP JUMPDEST SWAP2 POP PUSH2 0x45DA DUP3 DUP5 PUSH2 0x4447 JUMP JUMPDEST SWAP2 POP DUP2 SWAP1 POP SWAP4 SWAP3 POP POP POP JUMP JUMPDEST PUSH32 0x4552433732313A207472616E736665722066726F6D20696E636F727265637420 PUSH1 0x0 DUP3 ADD MSTORE PUSH32 0x6F776E6572000000000000000000000000000000000000000000000000000000 PUSH1 0x20 DUP3 ADD MSTORE POP JUMP JUMPDEST PUSH1 0x0 PUSH2 0x4642 PUSH1 0x25 DUP4 PUSH2 0x3797 JUMP JUMPDEST SWAP2 POP PUSH2 0x464D DUP3 PUSH2 0x45E6 JUMP JUMPDEST PUSH1 0x40 DUP3 ADD SWAP1 POP SWAP2 SWAP1 POP JUMP JUMPDEST PUSH1 0x0 PUSH1 0x20 DUP3 ADD SWAP1 POP DUP2 DUP2 SUB PUSH1 0x0 DUP4 ADD MSTORE PUSH2 0x4671 DUP2 PUSH2 0x4635 JUMP JUMPDEST SWAP1 POP SWAP2 SWAP1 POP JUMP JUMPDEST PUSH32 0x4552433732313A207472616E7366657220746F20746865207A65726F20616464 PUSH1 0x0 DUP3 ADD MSTORE PUSH32 0x7265737300000000000000000000000000000000000000000000000000000000 PUSH1 0x20 DUP3 ADD MSTORE POP JUMP JUMPDEST PUSH1 0x0 PUSH2 0x46D4 PUSH1 0x24 DUP4 PUSH2 0x3797 JUMP JUMPDEST SWAP2 POP PUSH2 0x46DF DUP3 PUSH2 0x4678 JUMP JUMPDEST PUSH1 0x40 DUP3 ADD SWAP1 POP SWAP2 SWAP1 POP JUMP JUMPDEST PUSH1 0x0 PUSH1 0x20 DUP3 ADD SWAP1 POP DUP2 DUP2 SUB PUSH1 0x0 DUP4 ADD MSTORE PUSH2 0x4703 DUP2 PUSH2 0x46C7 JUMP JUMPDEST SWAP1 POP SWAP2 SWAP1 POP JUMP JUMPDEST PUSH1 0x0 PUSH2 0x4715 DUP3 PUSH2 0x3847 JUMP JUMPDEST SWAP2 POP PUSH2 0x4720 DUP4 PUSH2 0x3847 JUMP JUMPDEST SWAP3 POP DUP3 DUP3 LT ISZERO PUSH2 0x4733 JUMPI PUSH2 0x4732 PUSH2 0x4070 JUMP JUMPDEST JUMPDEST DUP3 DUP3 SUB SWAP1 POP SWAP3 SWAP2 POP POP JUMP JUMPDEST PUSH32 0x4F776E61626C653A2063616C6C6572206973206E6F7420746865206F776E6572 PUSH1 0x0 DUP3 ADD MSTORE POP JUMP JUMPDEST PUSH1 0x0 PUSH2 0x4774 PUSH1 0x20 DUP4 PUSH2 0x3797 JUMP JUMPDEST SWAP2 POP PUSH2 0x477F DUP3 PUSH2 0x473E JUMP JUMPDEST PUSH1 0x20 DUP3 ADD SWAP1 POP SWAP2 SWAP1 POP JUMP JUMPDEST PUSH1 0x0 PUSH1 0x20 DUP3 ADD SWAP1 POP DUP2 DUP2 SUB PUSH1 0x0 DUP4 ADD MSTORE PUSH2 0x47A3 DUP2 PUSH2 0x4767 JUMP JUMPDEST SWAP1 POP SWAP2 SWAP1 POP JUMP JUMPDEST PUSH32 0x4552433732313A20617070726F766520746F2063616C6C657200000000000000 PUSH1 0x0 DUP3 ADD MSTORE POP JUMP JUMPDEST PUSH1 0x0 PUSH2 0x47E0 PUSH1 0x19 DUP4 PUSH2 0x3797 JUMP JUMPDEST SWAP2 POP PUSH2 0x47EB DUP3 PUSH2 0x47AA JUMP JUMPDEST PUSH1 0x20 DUP3 ADD SWAP1 POP SWAP2 SWAP1 POP JUMP JUMPDEST PUSH1 0x0 PUSH1 0x20 DUP3 ADD SWAP1 POP DUP2 DUP2 SUB PUSH1 0x0 DUP4 ADD MSTORE PUSH2 0x480F DUP2 PUSH2 0x47D3 JUMP JUMPDEST SWAP1 POP SWAP2 SWAP1 POP JUMP JUMPDEST PUSH32 0x4552433732313A207472616E7366657220746F206E6F6E204552433732315265 PUSH1 0x0 DUP3 ADD MSTORE PUSH32 0x63656976657220696D706C656D656E7465720000000000000000000000000000 PUSH1 0x20 DUP3 ADD MSTORE POP JUMP JUMPDEST PUSH1 0x0 PUSH2 0x4872 PUSH1 0x32 DUP4 PUSH2 0x3797 JUMP JUMPDEST SWAP2 POP PUSH2 0x487D DUP3 PUSH2 0x4816 JUMP JUMPDEST PUSH1 0x40 DUP3 ADD SWAP1 POP SWAP2 SWAP1 POP JUMP JUMPDEST PUSH1 0x0 PUSH1 0x20 DUP3 ADD SWAP1 POP DUP2 DUP2 SUB PUSH1 0x0 DUP4 ADD MSTORE PUSH2 0x48A1 DUP2 PUSH2 0x4865 JUMP JUMPDEST SWAP1 POP SWAP2 SWAP1 POP JUMP JUMPDEST PUSH1 0x0 PUSH2 0x48B3 DUP3 PUSH2 0x3847 JUMP JUMPDEST SWAP2 POP PUSH2 0x48BE DUP4 PUSH2 0x3847 JUMP JUMPDEST SWAP3 POP DUP3 PUSH2 0x48CE JUMPI PUSH2 0x48CD PUSH2 0x4010 JUMP JUMPDEST JUMPDEST DUP3 DUP3 DIV SWAP1 POP SWAP3 SWAP2 POP POP JUMP JUMPDEST PUSH32 0x4E487B7100000000000000000000000000000000000000000000000000000000 PUSH1 0x0 MSTORE PUSH1 0x32 PUSH1 0x4 MSTORE PUSH1 0x24 PUSH1 0x0 REVERT JUMPDEST PUSH32 0x7B00000000000000000000000000000000000000000000000000000000000000 PUSH1 0x0 DUP3 ADD MSTORE POP JUMP JUMPDEST PUSH1 0x0 PUSH2 0x493E PUSH1 0x1 DUP4 PUSH2 0x443C JUMP JUMPDEST SWAP2 POP PUSH2 0x4949 DUP3 PUSH2 0x4908 JUMP JUMPDEST PUSH1 0x1 DUP3 ADD SWAP1 POP SWAP2 SWAP1 POP JUMP JUMPDEST PUSH32 0x7D00000000000000000000000000000000000000000000000000000000000000 PUSH1 0x0 DUP3 ADD MSTORE POP JUMP JUMPDEST PUSH1 0x0 PUSH2 0x498A PUSH1 0x1 DUP4 PUSH2 0x443C JUMP JUMPDEST SWAP2 POP PUSH2 0x4995 DUP3 PUSH2 0x4954 JUMP JUMPDEST PUSH1 0x1 DUP3 ADD SWAP1 POP SWAP2 SWAP1 POP JUMP JUMPDEST PUSH1 0x0 PUSH2 0x49AB DUP3 PUSH2 0x4931 JUMP JUMPDEST SWAP2 POP PUSH2 0x49B7 DUP3 DUP6 PUSH2 0x4447 JUMP JUMPDEST SWAP2 POP PUSH2 0x49C3 DUP3 DUP5 PUSH2 0x4447 JUMP JUMPDEST SWAP2 POP PUSH2 0x49CE DUP3 PUSH2 0x497D JUMP JUMPDEST SWAP2 POP DUP2 SWAP1 POP SWAP4 SWAP3 POP POP POP JUMP JUMPDEST PUSH32 0x646174613A6170706C69636174696F6E2F6A736F6E3B6261736536342C000000 PUSH1 0x0 DUP3 ADD MSTORE POP JUMP JUMPDEST PUSH1 0x0 PUSH2 0x4A10 PUSH1 0x1D DUP4 PUSH2 0x443C JUMP JUMPDEST SWAP2 POP PUSH2 0x4A1B DUP3 PUSH2 0x49DA JUMP JUMPDEST PUSH1 0x1D DUP3 ADD SWAP1 POP SWAP2 SWAP1 POP JUMP JUMPDEST PUSH1 0x0 PUSH2 0x4A31 DUP3 PUSH2 0x4A03 JUMP JUMPDEST SWAP2 POP PUSH2 0x4A3D DUP3 DUP5 PUSH2 0x4447 JUMP JUMPDEST SWAP2 POP DUP2 SWAP1 POP SWAP3 SWAP2 POP POP JUMP JUMPDEST PUSH32 0x45524337323155524953746F726167653A2055524920736574206F66206E6F6E PUSH1 0x0 DUP3 ADD MSTORE PUSH32 0x6578697374656E7420746F6B656E000000000000000000000000000000000000 PUSH1 0x20 DUP3 ADD MSTORE POP JUMP JUMPDEST PUSH1 0x0 PUSH2 0x4AA4 PUSH1 0x2E DUP4 PUSH2 0x3797 JUMP JUMPDEST SWAP2 POP PUSH2 0x4AAF DUP3 PUSH2 0x4A48 JUMP JUMPDEST PUSH1 0x40 DUP3 ADD SWAP1 POP SWAP2 SWAP1 POP JUMP JUMPDEST PUSH1 0x0 PUSH1 0x20 DUP3 ADD SWAP1 POP DUP2 DUP2 SUB PUSH1 0x0 DUP4 ADD MSTORE PUSH2 0x4AD3 DUP2 PUSH2 0x4A97 JUMP JUMPDEST SWAP1 POP SWAP2 SWAP1 POP JUMP JUMPDEST PUSH1 0x0 DUP2 MLOAD SWAP1 POP SWAP2 SWAP1 POP JUMP JUMPDEST PUSH1 0x0 DUP3 DUP3 MSTORE PUSH1 0x20 DUP3 ADD SWAP1 POP SWAP3 SWAP2 POP POP JUMP JUMPDEST PUSH1 0x0 PUSH2 0x4B01 DUP3 PUSH2 0x4ADA JUMP JUMPDEST PUSH2 0x4B0B DUP2 DUP6 PUSH2 0x4AE5 JUMP JUMPDEST SWAP4 POP PUSH2 0x4B1B DUP2 DUP6 PUSH1 0x20 DUP7 ADD PUSH2 0x37A8 JUMP JUMPDEST PUSH2 0x4B24 DUP2 PUSH2 0x37DB JUMP JUMPDEST DUP5 ADD SWAP2 POP POP SWAP3 SWAP2 POP POP JUMP JUMPDEST PUSH1 0x0 PUSH1 0x80 DUP3 ADD SWAP1 POP PUSH2 0x4B44 PUSH1 0x0 DUP4 ADD DUP8 PUSH2 0x38DC JUMP JUMPDEST PUSH2 0x4B51 PUSH1 0x20 DUP4 ADD DUP7 PUSH2 0x38DC JUMP JUMPDEST PUSH2 0x4B5E PUSH1 0x40 DUP4 ADD DUP6 PUSH2 0x3972 JUMP JUMPDEST DUP2 DUP2 SUB PUSH1 0x60 DUP4 ADD MSTORE PUSH2 0x4B70 DUP2 DUP5 PUSH2 0x4AF6 JUMP JUMPDEST SWAP1 POP SWAP6 SWAP5 POP POP POP POP POP JUMP JUMPDEST PUSH1 0x0 DUP2 MLOAD SWAP1 POP PUSH2 0x4B8A DUP2 PUSH2 0x36FD JUMP JUMPDEST SWAP3 SWAP2 POP POP JUMP JUMPDEST PUSH1 0x0 PUSH1 0x20 DUP3 DUP5 SUB SLT ISZERO PUSH2 0x4BA6 JUMPI PUSH2 0x4BA5 PUSH2 0x36C7 JUMP JUMPDEST JUMPDEST PUSH1 0x0 PUSH2 0x4BB4 DUP5 DUP3 DUP6 ADD PUSH2 0x4B7B JUMP JUMPDEST SWAP2 POP POP SWAP3 SWAP2 POP POP JUMP JUMPDEST PUSH32 0x4552433732313A206D696E7420746F20746865207A65726F2061646472657373 PUSH1 0x0 DUP3 ADD MSTORE POP JUMP JUMPDEST PUSH1 0x0 PUSH2 0x4BF3 PUSH1 0x20 DUP4 PUSH2 0x3797 JUMP JUMPDEST SWAP2 POP PUSH2 0x4BFE DUP3 PUSH2 0x4BBD JUMP JUMPDEST PUSH1 0x20 DUP3 ADD SWAP1 POP SWAP2 SWAP1 POP JUMP JUMPDEST PUSH1 0x0 PUSH1 0x20 DUP3 ADD SWAP1 POP DUP2 DUP2 SUB PUSH1 0x0 DUP4 ADD MSTORE PUSH2 0x4C22 DUP2 PUSH2 0x4BE6 JUMP JUMPDEST SWAP1 POP SWAP2 SWAP1 POP JUMP JUMPDEST PUSH32 0x4552433732313A20746F6B656E20616C7265616479206D696E74656400000000 PUSH1 0x0 DUP3 ADD MSTORE POP JUMP JUMPDEST PUSH1 0x0 PUSH2 0x4C5F PUSH1 0x1C DUP4 PUSH2 0x3797 JUMP JUMPDEST SWAP2 POP PUSH2 0x4C6A DUP3 PUSH2 0x4C29 JUMP JUMPDEST PUSH1 0x20 DUP3 ADD SWAP1 POP SWAP2 SWAP1 POP JUMP JUMPDEST PUSH1 0x0 PUSH1 0x20 DUP3 ADD SWAP1 POP DUP2 DUP2 SUB PUSH1 0x0 DUP4 ADD MSTORE PUSH2 0x4C8E DUP2 PUSH2 0x4C52 JUMP JUMPDEST SWAP1 POP SWAP2 SWAP1 POP JUMP JUMPDEST PUSH32 0x226E616D65223A22000000000000000000000000000000000000000000000000 PUSH1 0x0 DUP3 ADD MSTORE POP JUMP JUMPDEST PUSH1 0x0 PUSH2 0x4CCB PUSH1 0x8 DUP4 PUSH2 0x443C JUMP JUMPDEST SWAP2 POP PUSH2 0x4CD6 DUP3 PUSH2 0x4C95 JUMP JUMPDEST PUSH1 0x8 DUP3 ADD SWAP1 POP SWAP2 SWAP1 POP JUMP JUMPDEST PUSH32 0x222C000000000000000000000000000000000000000000000000000000000000 PUSH1 0x0 DUP3 ADD MSTORE POP JUMP JUMPDEST PUSH1 0x0 PUSH2 0x4D17 PUSH1 0x2 DUP4 PUSH2 0x443C JUMP JUMPDEST SWAP2 POP PUSH2 0x4D22 DUP3 PUSH2 0x4CE1 JUMP JUMPDEST PUSH1 0x2 DUP3 ADD SWAP1 POP SWAP2 SWAP1 POP JUMP JUMPDEST PUSH32 0x22746F6B656E4964223A22000000000000000000000000000000000000000000 PUSH1 0x0 DUP3 ADD MSTORE POP JUMP JUMPDEST PUSH1 0x0 PUSH2 0x4D63 PUSH1 0xB DUP4 PUSH2 0x443C JUMP JUMPDEST SWAP2 POP PUSH2 0x4D6E DUP3 PUSH2 0x4D2D JUMP JUMPDEST PUSH1 0xB DUP3 ADD SWAP1 POP SWAP2 SWAP1 POP JUMP JUMPDEST PUSH32 0x226465736372697074696F6E223A220000000000000000000000000000000000 PUSH1 0x0 DUP3 ADD MSTORE POP JUMP JUMPDEST PUSH1 0x0 PUSH2 0x4DAF PUSH1 0xF DUP4 PUSH2 0x443C JUMP JUMPDEST SWAP2 POP PUSH2 0x4DBA DUP3 PUSH2 0x4D79 JUMP JUMPDEST PUSH1 0xF DUP3 ADD SWAP1 POP SWAP2 SWAP1 POP JUMP JUMPDEST PUSH32 0x22696D616765223A220000000000000000000000000000000000000000000000 PUSH1 0x0 DUP3 ADD MSTORE POP JUMP JUMPDEST PUSH1 0x0 PUSH2 0x4DFB PUSH1 0x9 DUP4 PUSH2 0x443C JUMP JUMPDEST SWAP2 POP PUSH2 0x4E06 DUP3 PUSH2 0x4DC5 JUMP JUMPDEST PUSH1 0x9 DUP3 ADD SWAP1 POP SWAP2 SWAP1 POP JUMP JUMPDEST PUSH32 0x226F776E6572223A220000000000000000000000000000000000000000000000 PUSH1 0x0 DUP3 ADD MSTORE POP JUMP JUMPDEST PUSH1 0x0 PUSH2 0x4E47 PUSH1 0x9 DUP4 PUSH2 0x443C JUMP JUMPDEST SWAP2 POP PUSH2 0x4E52 DUP3 PUSH2 0x4E11 JUMP JUMPDEST PUSH1 0x9 DUP3 ADD SWAP1 POP SWAP2 SWAP1 POP JUMP JUMPDEST PUSH1 0x0 PUSH2 0x4E68 DUP3 PUSH2 0x4CBE JUMP JUMPDEST SWAP2 POP PUSH2 0x4E74 DUP3 DUP9 PUSH2 0x4447 JUMP JUMPDEST SWAP2 POP PUSH2 0x4E7F DUP3 PUSH2 0x4D0A JUMP JUMPDEST SWAP2 POP PUSH2 0x4E8A DUP3 PUSH2 0x4D56 JUMP JUMPDEST SWAP2 POP PUSH2 0x4E96 DUP3 DUP8 PUSH2 0x4447 JUMP JUMPDEST SWAP2 POP PUSH2 0x4EA1 DUP3 PUSH2 0x4D0A JUMP JUMPDEST SWAP2 POP PUSH2 0x4EAC DUP3 PUSH2 0x4DA2 JUMP JUMPDEST SWAP2 POP PUSH2 0x4EB8 DUP3 DUP7 PUSH2 0x4447 JUMP JUMPDEST SWAP2 POP PUSH2 0x4EC3 DUP3 PUSH2 0x4D0A JUMP JUMPDEST SWAP2 POP PUSH2 0x4ECE DUP3 PUSH2 0x4DEE JUMP JUMPDEST SWAP2 POP PUSH2 0x4EDA DUP3 DUP6 PUSH2 0x4447 JUMP JUMPDEST SWAP2 POP PUSH2 0x4EE5 DUP3 PUSH2 0x4D0A JUMP JUMPDEST SWAP2 POP PUSH2 0x4EF0 DUP3 PUSH2 0x4E3A JUMP JUMPDEST SWAP2 POP PUSH2 0x4EFC DUP3 DUP5 PUSH2 0x4447 JUMP JUMPDEST SWAP2 POP PUSH2 0x4F07 DUP3 PUSH2 0x4D0A JUMP JUMPDEST SWAP2 POP DUP2 SWAP1 POP SWAP7 SWAP6 POP POP POP POP POP POP JUMP JUMPDEST PUSH32 0x7B226D696E7454797065223A2200000000000000000000000000000000000000 PUSH1 0x0 DUP3 ADD MSTORE POP JUMP JUMPDEST PUSH1 0x0 PUSH2 0x4F4C PUSH1 0xD DUP4 PUSH2 0x443C JUMP JUMPDEST SWAP2 POP PUSH2 0x4F57 DUP3 PUSH2 0x4F16 JUMP JUMPDEST PUSH1 0xD DUP3 ADD SWAP1 POP SWAP2 SWAP1 POP JUMP JUMPDEST PUSH32 0x2263617465676F7279223A220000000000000000000000000000000000000000 PUSH1 0x0 DUP3 ADD MSTORE POP JUMP JUMPDEST PUSH1 0x0 PUSH2 0x4F98 PUSH1 0xC DUP4 PUSH2 0x443C JUMP JUMPDEST SWAP2 POP PUSH2 0x4FA3 DUP3 PUSH2 0x4F62 JUMP JUMPDEST PUSH1 0xC DUP3 ADD SWAP1 POP SWAP2 SWAP1 POP JUMP JUMPDEST PUSH32 0x2263757272656E74506F7765724C766C223A2200000000000000000000000000 PUSH1 0x0 DUP3 ADD MSTORE POP JUMP JUMPDEST PUSH1 0x0 PUSH2 0x4FE4 PUSH1 0x13 DUP4 PUSH2 0x443C JUMP JUMPDEST SWAP2 POP PUSH2 0x4FEF DUP3 PUSH2 0x4FAE JUMP JUMPDEST PUSH1 0x13 DUP3 ADD SWAP1 POP SWAP2 SWAP1 POP JUMP JUMPDEST PUSH32 0x2263757272656E7441636375726163794C766C223A2200000000000000000000 PUSH1 0x0 DUP3 ADD MSTORE POP JUMP JUMPDEST PUSH1 0x0 PUSH2 0x5030 PUSH1 0x16 DUP4 PUSH2 0x443C JUMP JUMPDEST SWAP2 POP PUSH2 0x503B DUP3 PUSH2 0x4FFA JUMP JUMPDEST PUSH1 0x16 DUP3 ADD SWAP1 POP SWAP2 SWAP1 POP JUMP JUMPDEST PUSH32 0x2263757272656E745370696E4C766C223A220000000000000000000000000000 PUSH1 0x0 DUP3 ADD MSTORE POP JUMP JUMPDEST PUSH1 0x0 PUSH2 0x507C PUSH1 0x12 DUP4 PUSH2 0x443C JUMP JUMPDEST SWAP2 POP PUSH2 0x5087 DUP3 PUSH2 0x5046 JUMP JUMPDEST PUSH1 0x12 DUP3 ADD SWAP1 POP SWAP2 SWAP1 POP JUMP JUMPDEST PUSH32 0x2263757272656E7454696D654C766C223A220000000000000000000000000000 PUSH1 0x0 DUP3 ADD MSTORE POP JUMP JUMPDEST PUSH1 0x0 PUSH2 0x50C8 PUSH1 0x12 DUP4 PUSH2 0x443C JUMP JUMPDEST SWAP2 POP PUSH2 0x50D3 DUP3 PUSH2 0x5092 JUMP JUMPDEST PUSH1 0x12 DUP3 ADD SWAP1 POP SWAP2 SWAP1 POP JUMP JUMPDEST PUSH32 0x226D6178506F7765724C766C223A220000000000000000000000000000000000 PUSH1 0x0 DUP3 ADD MSTORE POP JUMP JUMPDEST PUSH1 0x0 PUSH2 0x5114 PUSH1 0xF DUP4 PUSH2 0x443C JUMP JUMPDEST SWAP2 POP PUSH2 0x511F DUP3 PUSH2 0x50DE JUMP JUMPDEST PUSH1 0xF DUP3 ADD SWAP1 POP SWAP2 SWAP1 POP JUMP JUMPDEST PUSH32 0x226D617841636375726163794C766C223A220000000000000000000000000000 PUSH1 0x0 DUP3 ADD MSTORE POP JUMP JUMPDEST PUSH1 0x0 PUSH2 0x5160 PUSH1 0x12 DUP4 PUSH2 0x443C JUMP JUMPDEST SWAP2 POP PUSH2 0x516B DUP3 PUSH2 0x512A JUMP JUMPDEST PUSH1 0x12 DUP3 ADD SWAP1 POP SWAP2 SWAP1 POP JUMP JUMPDEST PUSH32 0x226D61785370696E4C766C223A22000000000000000000000000000000000000 PUSH1 0x0 DUP3 ADD MSTORE POP JUMP JUMPDEST PUSH1 0x0 PUSH2 0x51AC PUSH1 0xE DUP4 PUSH2 0x443C JUMP JUMPDEST SWAP2 POP PUSH2 0x51B7 DUP3 PUSH2 0x5176 JUMP JUMPDEST PUSH1 0xE DUP3 ADD SWAP1 POP SWAP2 SWAP1 POP JUMP JUMPDEST PUSH32 0x226D617854696D654C766C223A00000000000000000000000000000000000000 PUSH1 0x0 DUP3 ADD MSTORE POP JUMP JUMPDEST PUSH1 0x0 PUSH2 0x51F8 PUSH1 0xD DUP4 PUSH2 0x443C JUMP JUMPDEST SWAP2 POP PUSH2 0x5203 DUP3 PUSH2 0x51C2 JUMP JUMPDEST PUSH1 0xD DUP3 ADD SWAP1 POP SWAP2 SWAP1 POP JUMP JUMPDEST PUSH1 0x0 PUSH2 0x521A DUP3 DUP15 PUSH2 0x4447 JUMP JUMPDEST SWAP2 POP PUSH2 0x5225 DUP3 PUSH2 0x4F3F JUMP JUMPDEST SWAP2 POP PUSH2 0x5231 DUP3 DUP14 PUSH2 0x4447 JUMP JUMPDEST SWAP2 POP PUSH2 0x523C DUP3 PUSH2 0x4D0A JUMP JUMPDEST SWAP2 POP PUSH2 0x5247 DUP3 PUSH2 0x4F8B JUMP JUMPDEST SWAP2 POP PUSH2 0x5253 DUP3 DUP13 PUSH2 0x4447 JUMP JUMPDEST SWAP2 POP PUSH2 0x525E DUP3 PUSH2 0x4D0A JUMP JUMPDEST SWAP2 POP PUSH2 0x5269 DUP3 PUSH2 0x4FD7 JUMP JUMPDEST SWAP2 POP PUSH2 0x5275 DUP3 DUP12 PUSH2 0x4447 JUMP JUMPDEST SWAP2 POP PUSH2 0x5280 DUP3 PUSH2 0x4D0A JUMP JUMPDEST SWAP2 POP PUSH2 0x528B DUP3 PUSH2 0x5023 JUMP JUMPDEST SWAP2 POP PUSH2 0x5297 DUP3 DUP11 PUSH2 0x4447 JUMP JUMPDEST SWAP2 POP PUSH2 0x52A2 DUP3 PUSH2 0x4D0A JUMP JUMPDEST SWAP2 POP PUSH2 0x52AD DUP3 PUSH2 0x506F JUMP JUMPDEST SWAP2 POP PUSH2 0x52B9 DUP3 DUP10 PUSH2 0x4447 JUMP JUMPDEST SWAP2 POP PUSH2 0x52C4 DUP3 PUSH2 0x4D0A JUMP JUMPDEST SWAP2 POP PUSH2 0x52CF DUP3 PUSH2 0x50BB JUMP JUMPDEST SWAP2 POP PUSH2 0x52DB DUP3 DUP9 PUSH2 0x4447 JUMP JUMPDEST SWAP2 POP PUSH2 0x52E6 DUP3 PUSH2 0x4D0A JUMP JUMPDEST SWAP2 POP PUSH2 0x52F1 DUP3 PUSH2 0x5107 JUMP JUMPDEST SWAP2 POP PUSH2 0x52FD DUP3 DUP8 PUSH2 0x4447 JUMP JUMPDEST SWAP2 POP PUSH2 0x5308 DUP3 PUSH2 0x4D0A JUMP JUMPDEST SWAP2 POP PUSH2 0x5313 DUP3 PUSH2 0x5153 JUMP JUMPDEST SWAP2 POP PUSH2 0x531F DUP3 DUP7 PUSH2 0x4447 JUMP JUMPDEST SWAP2 POP PUSH2 0x532A DUP3 PUSH2 0x4D0A JUMP JUMPDEST SWAP2 POP PUSH2 0x5335 DUP3 PUSH2 0x519F JUMP JUMPDEST SWAP2 POP PUSH2 0x5341 DUP3 DUP6 PUSH2 0x4447 JUMP JUMPDEST SWAP2 POP PUSH2 0x534C DUP3 PUSH2 0x4D0A JUMP JUMPDEST SWAP2 POP PUSH2 0x5357 DUP3 PUSH2 0x51EB JUMP JUMPDEST SWAP2 POP PUSH2 0x5363 DUP3 DUP5 PUSH2 0x4447 JUMP JUMPDEST SWAP2 POP PUSH2 0x536E DUP3 PUSH2 0x497D JUMP JUMPDEST SWAP2 POP DUP2 SWAP1 POP SWAP13 SWAP12 POP POP POP POP POP POP POP POP POP POP POP POP JUMP JUMPDEST PUSH32 0x2261747472696275746573223A00000000000000000000000000000000000000 PUSH1 0x0 DUP3 ADD MSTORE POP JUMP JUMPDEST PUSH1 0x0 PUSH2 0x53B9 PUSH1 0xD DUP4 PUSH2 0x443C JUMP JUMPDEST SWAP2 POP PUSH2 0x53C4 DUP3 PUSH2 0x5383 JUMP JUMPDEST PUSH1 0xD DUP3 ADD SWAP1 POP SWAP2 SWAP1 POP JUMP JUMPDEST PUSH1 0x0 PUSH2 0x53DA DUP3 PUSH2 0x53AC JUMP JUMPDEST SWAP2 POP PUSH2 0x53E6 DUP3 DUP5 PUSH2 0x4447 JUMP JUMPDEST SWAP2 POP DUP2 SWAP1 POP SWAP3 SWAP2 POP POP JUMP JUMPDEST PUSH1 0x0 PUSH2 0x53FC DUP3 PUSH2 0x3847 JUMP JUMPDEST SWAP2 POP PUSH2 0x5407 DUP4 PUSH2 0x3847 JUMP JUMPDEST SWAP3 POP DUP2 PUSH32 0xFFFFFFFFFFFFFFFFFFFFFFFFFFFFFFFFFFFFFFFFFFFFFFFFFFFFFFFFFFFFFFFF DIV DUP4 GT DUP3 ISZERO ISZERO AND ISZERO PUSH2 0x5440 JUMPI PUSH2 0x543F PUSH2 0x4070 JUMP JUMPDEST JUMPDEST DUP3 DUP3 MUL SWAP1 POP SWAP3 SWAP2 POP POP JUMP JUMPDEST PUSH32 0x537472696E67733A20686578206C656E67746820696E73756666696369656E74 PUSH1 0x0 DUP3 ADD MSTORE POP JUMP JUMPDEST PUSH1 0x0 PUSH2 0x5481 PUSH1 0x20 DUP4 PUSH2 0x3797 JUMP JUMPDEST SWAP2 POP PUSH2 0x548C DUP3 PUSH2 0x544B JUMP JUMPDEST PUSH1 0x20 DUP3 ADD SWAP1 POP SWAP2 SWAP1 POP JUMP JUMPDEST PUSH1 0x0 PUSH1 0x20 DUP3 ADD SWAP1 POP DUP2 DUP2 SUB PUSH1 0x0 DUP4 ADD MSTORE PUSH2 0x54B0 DUP2 PUSH2 0x5474 JUMP JUMPDEST SWAP1 POP SWAP2 SWAP1 POP JUMP INVALID COINBASE TIMESTAMP NUMBER DIFFICULTY GASLIMIT CHAINID SELFBALANCE BASEFEE 0x49 0x4A 0x4B 0x4C 0x4D 0x4E 0x4F POP MLOAD MSTORE MSTORE8 SLOAD SSTORE JUMP JUMPI PC MSIZE GAS PUSH2 0x6263 PUSH5 0x6566676869 PUSH11 0x6B6C6D6E6F707172737475 PUSH23 0x7778797A303132333435363738392B2FA2646970667358 0x22 SLT KECCAK256 0xB4 SWAP2 PUSH20 0xEBA3325E5D483B6E3798A5893DECEFA6BBE95C48 SWAP7 0x2B SWAP14 LOG2 SLT SWAP15 0xBF 0xF7 PUSH19 0x64736F6C634300080900330000000000000000 "},"methodIdentifiers":{"approve(address,uint256)":"095ea7b3","balanceOf(address)":"70a08231","baseURI()":"6c0360eb","burn(uint256)":"42966c68","category(uint256)":"253eca1f","currentAccuracyLvl(uint256)":"22ea00f9","currentPowerLvl(uint256)":"52a3302b","currentSpinLvl(uint256)":"b49f7e2d","currentTimeLvl(uint256)":"2603f287","getApproved(uint256)":"081812fc","imageBaseURI()":"77645839","isApprovedForAll(address,address)":"e985e9c5","maxAccuracyLvl(uint256)":"4fffbe0e","maxPowerLvl(uint256)":"8cc04784","maxSpinLvl(uint256)":"c9083cd9","maxTimeLvl(uint256)":"81a4b116","mint()":"1249c58b","mintType()":"96286f9a","name()":"06fdde03","owner()":"8da5cb5b","ownerOf(uint256)":"6352211e","ownerWithdraw()":"4311de8f","renounceOwnership()":"715018a6","safeTransferFrom(address,address,uint256)":"42842e0e","safeTransferFrom(address,address,uint256,bytes)":"b88d4fde","setApprovalForAll(address,bool)":"a22cb465","setImageBaseUri(string)":"39b92bbb","supportsInterface(bytes4)":"01ffc9a7","symbol()":"95d89b41","tokenCount()":"9f181b5e","tokenIdType(uint256)":"6f2829ba","tokenURI(uint256)":"c87b56dd","transfer(address,address,uint256)":"beabacc8","transferFrom(address,address,uint256)":"23b872dd","transferOwnership(address)":"f2fde38b","upgrade(uint256,uint256,uint256,uint256,uint256)":"d55cae27","userTokenIds(address,uint256)":"cc17e15d"}}}}}