{
  "_format": "hh-sol-artifact-1",
  "contractName": "BallSonic",
  "sourceName": "contracts/BallSonic.sol",
  "abi": [
    {
      "inputs": [],
      "stateMutability": "nonpayable",
      "type": "constructor"
    },
    {
      "anonymous": false,
      "inputs": [
        {
          "indexed": true,
          "internalType": "address",
          "name": "owner",
          "type": "address"
        },
        {
          "indexed": true,
          "internalType": "address",
          "name": "approved",
          "type": "address"
        },
        {
          "indexed": true,
          "internalType": "uint256",
          "name": "tokenId",
          "type": "uint256"
        }
      ],
      "name": "Approval",
      "type": "event"
    },
    {
      "anonymous": false,
      "inputs": [
        {
          "indexed": true,
          "internalType": "address",
          "name": "owner",
          "type": "address"
        },
        {
          "indexed": true,
          "internalType": "address",
          "name": "operator",
          "type": "address"
        },
        {
          "indexed": false,
          "internalType": "bool",
          "name": "approved",
          "type": "bool"
        }
      ],
      "name": "ApprovalForAll",
      "type": "event"
    },
    {
      "anonymous": false,
      "inputs": [
        {
          "indexed": true,
          "internalType": "address",
          "name": "previousOwner",
          "type": "address"
        },
        {
          "indexed": true,
          "internalType": "address",
          "name": "newOwner",
          "type": "address"
        }
      ],
      "name": "OwnershipTransferred",
      "type": "event"
    },
    {
      "anonymous": false,
      "inputs": [
        {
          "indexed": true,
          "internalType": "address",
          "name": "from",
          "type": "address"
        },
        {
          "indexed": true,
          "internalType": "address",
          "name": "to",
          "type": "address"
        },
        {
          "indexed": true,
          "internalType": "uint256",
          "name": "tokenId",
          "type": "uint256"
        }
      ],
      "name": "Transfer",
      "type": "event"
    },
    {
      "inputs": [
        {
          "internalType": "address",
          "name": "to",
          "type": "address"
        },
        {
          "internalType": "uint256",
          "name": "tokenId",
          "type": "uint256"
        }
      ],
      "name": "approve",
      "outputs": [],
      "stateMutability": "nonpayable",
      "type": "function"
    },
    {
      "inputs": [
        {
          "internalType": "address",
          "name": "owner",
          "type": "address"
        }
      ],
      "name": "balanceOf",
      "outputs": [
        {
          "internalType": "uint256",
          "name": "",
          "type": "uint256"
        }
      ],
      "stateMutability": "view",
      "type": "function"
    },
    {
      "inputs": [],
      "name": "baseURI",
      "outputs": [
        {
          "internalType": "string",
          "name": "",
          "type": "string"
        }
      ],
      "stateMutability": "view",
      "type": "function"
    },
    {
      "inputs": [
        {
          "internalType": "uint256",
          "name": "_tokenId",
          "type": "uint256"
        }
      ],
      "name": "burn",
      "outputs": [],
      "stateMutability": "nonpayable",
      "type": "function"
    },
    {
      "inputs": [
        {
          "internalType": "uint256",
          "name": "",
          "type": "uint256"
        }
      ],
      "name": "category",
      "outputs": [
        {
          "internalType": "uint256",
          "name": "",
          "type": "uint256"
        }
      ],
      "stateMutability": "view",
      "type": "function"
    },
    {
      "inputs": [
        {
          "internalType": "uint256",
          "name": "",
          "type": "uint256"
        }
      ],
      "name": "currentAccuracyLvl",
      "outputs": [
        {
          "internalType": "uint256",
          "name": "",
          "type": "uint256"
        }
      ],
      "stateMutability": "view",
      "type": "function"
    },
    {
      "inputs": [
        {
          "internalType": "uint256",
          "name": "",
          "type": "uint256"
        }
      ],
      "name": "currentPowerLvl",
      "outputs": [
        {
          "internalType": "uint256",
          "name": "",
          "type": "uint256"
        }
      ],
      "stateMutability": "view",
      "type": "function"
    },
    {
      "inputs": [
        {
          "internalType": "uint256",
          "name": "",
          "type": "uint256"
        }
      ],
      "name": "currentSpinLvl",
      "outputs": [
        {
          "internalType": "uint256",
          "name": "",
          "type": "uint256"
        }
      ],
      "stateMutability": "view",
      "type": "function"
    },
    {
      "inputs": [
        {
          "internalType": "uint256",
          "name": "",
          "type": "uint256"
        }
      ],
      "name": "currentTimeLvl",
      "outputs": [
        {
          "internalType": "uint256",
          "name": "",
          "type": "uint256"
        }
      ],
      "stateMutability": "view",
      "type": "function"
    },
    {
      "inputs": [
        {
          "internalType": "uint256",
          "name": "tokenId",
          "type": "uint256"
        }
      ],
      "name": "getApproved",
      "outputs": [
        {
          "internalType": "address",
          "name": "",
          "type": "address"
        }
      ],
      "stateMutability": "view",
      "type": "function"
    },
    {
      "inputs": [],
      "name": "imageBaseURI",
      "outputs": [
        {
          "internalType": "string",
          "name": "",
          "type": "string"
        }
      ],
      "stateMutability": "view",
      "type": "function"
    },
    {
      "inputs": [
        {
          "internalType": "address",
          "name": "owner",
          "type": "address"
        },
        {
          "internalType": "address",
          "name": "operator",
          "type": "address"
        }
      ],
      "name": "isApprovedForAll",
      "outputs": [
        {
          "internalType": "bool",
          "name": "",
          "type": "bool"
        }
      ],
      "stateMutability": "view",
      "type": "function"
    },
    {
      "inputs": [
        {
          "internalType": "uint256",
          "name": "",
          "type": "uint256"
        }
      ],
      "name": "maxAccuracyLvl",
      "outputs": [
        {
          "internalType": "uint256",
          "name": "",
          "type": "uint256"
        }
      ],
      "stateMutability": "view",
      "type": "function"
    },
    {
      "inputs": [
        {
          "internalType": "uint256",
          "name": "",
          "type": "uint256"
        }
      ],
      "name": "maxPowerLvl",
      "outputs": [
        {
          "internalType": "uint256",
          "name": "",
          "type": "uint256"
        }
      ],
      "stateMutability": "view",
      "type": "function"
    },
    {
      "inputs": [
        {
          "internalType": "uint256",
          "name": "",
          "type": "uint256"
        }
      ],
      "name": "maxSpinLvl",
      "outputs": [
        {
          "internalType": "uint256",
          "name": "",
          "type": "uint256"
        }
      ],
      "stateMutability": "view",
      "type": "function"
    },
    {
      "inputs": [
        {
          "internalType": "uint256",
          "name": "",
          "type": "uint256"
        }
      ],
      "name": "maxTimeLvl",
      "outputs": [
        {
          "internalType": "uint256",
          "name": "",
          "type": "uint256"
        }
      ],
      "stateMutability": "view",
      "type": "function"
    },
    {
      "inputs": [],
      "name": "mint",
      "outputs": [],
      "stateMutability": "payable",
      "type": "function"
    },
    {
      "inputs": [],
      "name": "mintType",
      "outputs": [
        {
          "internalType": "string",
          "name": "",
          "type": "string"
        }
      ],
      "stateMutability": "view",
      "type": "function"
    },
    {
      "inputs": [],
      "name": "name",
      "outputs": [
        {
          "internalType": "string",
          "name": "",
          "type": "string"
        }
      ],
      "stateMutability": "view",
      "type": "function"
    },
    {
      "inputs": [],
      "name": "owner",
      "outputs": [
        {
          "internalType": "address",
          "name": "",
          "type": "address"
        }
      ],
      "stateMutability": "view",
      "type": "function"
    },
    {
      "inputs": [
        {
          "internalType": "uint256",
          "name": "tokenId",
          "type": "uint256"
        }
      ],
      "name": "ownerOf",
      "outputs": [
        {
          "internalType": "address",
          "name": "",
          "type": "address"
        }
      ],
      "stateMutability": "view",
      "type": "function"
    },
    {
      "inputs": [],
      "name": "ownerWithdraw",
      "outputs": [],
      "stateMutability": "nonpayable",
      "type": "function"
    },
    {
      "inputs": [],
      "name": "renounceOwnership",
      "outputs": [],
      "stateMutability": "nonpayable",
      "type": "function"
    },
    {
      "inputs": [
        {
          "internalType": "address",
          "name": "from",
          "type": "address"
        },
        {
          "internalType": "address",
          "name": "to",
          "type": "address"
        },
        {
          "internalType": "uint256",
          "name": "tokenId",
          "type": "uint256"
        }
      ],
      "name": "safeTransferFrom",
      "outputs": [],
      "stateMutability": "nonpayable",
      "type": "function"
    },
    {
      "inputs": [
        {
          "internalType": "address",
          "name": "from",
          "type": "address"
        },
        {
          "internalType": "address",
          "name": "to",
          "type": "address"
        },
        {
          "internalType": "uint256",
          "name": "tokenId",
          "type": "uint256"
        },
        {
          "internalType": "bytes",
          "name": "data",
          "type": "bytes"
        }
      ],
      "name": "safeTransferFrom",
      "outputs": [],
      "stateMutability": "nonpayable",
      "type": "function"
    },
    {
      "inputs": [
        {
          "internalType": "address",
          "name": "operator",
          "type": "address"
        },
        {
          "internalType": "bool",
          "name": "approved",
          "type": "bool"
        }
      ],
      "name": "setApprovalForAll",
      "outputs": [],
      "stateMutability": "nonpayable",
      "type": "function"
    },
    {
      "inputs": [
        {
          "internalType": "string",
          "name": "_imageBaseURI",
          "type": "string"
        }
      ],
      "name": "setImageBaseUri",
      "outputs": [],
      "stateMutability": "nonpayable",
      "type": "function"
    },
    {
      "inputs": [
        {
          "internalType": "bytes4",
          "name": "interfaceId",
          "type": "bytes4"
        }
      ],
      "name": "supportsInterface",
      "outputs": [
        {
          "internalType": "bool",
          "name": "",
          "type": "bool"
        }
      ],
      "stateMutability": "view",
      "type": "function"
    },
    {
      "inputs": [],
      "name": "symbol",
      "outputs": [
        {
          "internalType": "string",
          "name": "",
          "type": "string"
        }
      ],
      "stateMutability": "view",
      "type": "function"
    },
    {
      "inputs": [],
      "name": "tokenCount",
      "outputs": [
        {
          "internalType": "uint256",
          "name": "",
          "type": "uint256"
        }
      ],
      "stateMutability": "view",
      "type": "function"
    },
    {
      "inputs": [
        {
          "internalType": "uint256",
          "name": "",
          "type": "uint256"
        }
      ],
      "name": "tokenIdType",
      "outputs": [
        {
          "internalType": "uint256",
          "name": "",
          "type": "uint256"
        }
      ],
      "stateMutability": "view",
      "type": "function"
    },
    {
      "inputs": [
        {
          "internalType": "uint256",
          "name": "tokenId",
          "type": "uint256"
        }
      ],
      "name": "tokenURI",
      "outputs": [
        {
          "internalType": "string",
          "name": "",
          "type": "string"
        }
      ],
      "stateMutability": "view",
      "type": "function"
    },
    {
      "inputs": [
        {
          "internalType": "address",
          "name": "from",
          "type": "address"
        },
        {
          "internalType": "address",
          "name": "to",
          "type": "address"
        },
        {
          "internalType": "uint256",
          "name": "tokenId",
          "type": "uint256"
        }
      ],
      "name": "transferFrom",
      "outputs": [],
      "stateMutability": "nonpayable",
      "type": "function"
    },
    {
      "inputs": [
        {
          "internalType": "address",
          "name": "newOwner",
          "type": "address"
        }
      ],
      "name": "transferOwnership",
      "outputs": [],
      "stateMutability": "nonpayable",
      "type": "function"
    },
    {
      "inputs": [
        {
          "internalType": "uint256",
          "name": "_tokenId",
          "type": "uint256"
        },
        {
          "internalType": "uint256",
          "name": "_upgradePowerLvl",
          "type": "uint256"
        },
        {
          "internalType": "uint256",
          "name": "_upgradeAccuracyLvl",
          "type": "uint256"
        },
        {
          "internalType": "uint256",
          "name": "_upgradeSpinLvl",
          "type": "uint256"
        },
        {
          "internalType": "uint256",
          "name": "_upgradeTimeLvl",
          "type": "uint256"
        }
      ],
      "name": "upgrade",
      "outputs": [],
      "stateMutability": "payable",
      "type": "function"
    },
    {
      "inputs": [
        {
          "internalType": "address",
          "name": "",
          "type": "address"
        },
        {
          "internalType": "uint256",
          "name": "",
          "type": "uint256"
        }
      ],
      "name": "userTokenIds",
      "outputs": [
        {
          "internalType": "uint256",
          "name": "",
          "type": "uint256"
        }
      ],
      "stateMutability": "view",
      "type": "function"
    }
  ],
  "bytecode": "0x60806040523480156200001157600080fd5b506040518060400160405280600981526020017f42616c6c536f6e696300000000000000000000000000000000000000000000008152506040518060400160405280600381526020017f424153000000000000000000000000000000000000000000000000000000000081525081600090805190602001906200009692919062000167565b508060019080519060200190620000af92919062000167565b505050620000c26200015f60201b60201c565b600760006101000a81548173ffffffffffffffffffffffffffffffffffffffff021916908373ffffffffffffffffffffffffffffffffffffffff1602179055506103e86009819055506040518060400160405280600981526020017f42616c6c536f6e69630000000000000000000000000000000000000000000000815250600d90805190602001906200015892919062000167565b506200027c565b600033905090565b828054620001759062000246565b90600052602060002090601f016020900481019282620001995760008555620001e5565b82601f10620001b457805160ff1916838001178555620001e5565b82800160010185558215620001e5579182015b82811115620001e4578251825591602001919060010190620001c7565b5b509050620001f49190620001f8565b5090565b5b8082111562000213576000816000905550600101620001f9565b5090565b7f4e487b7100000000000000000000000000000000000000000000000000000000600052602260045260246000fd5b600060028204905060018216806200025f57607f821691505b6020821081141562000276576200027562000217565b5b50919050565b61588f806200028c6000396000f3fe60806040526004361061020f5760003560e01c806370a0823111610118578063a22cb465116100a0578063c9083cd91161006f578063c9083cd9146107ee578063cc17e15d1461082b578063d55cae2714610868578063e985e9c514610884578063f2fde38b146108c15761020f565b8063a22cb46514610722578063b49f7e2d1461074b578063b88d4fde14610788578063c87b56dd146107b15761020f565b80638cc04784116100e75780638cc04784146106395780638da5cb5b1461067657806395d89b41146106a157806396286f9a146106cc5780639f181b5e146106f75761020f565b806370a082311461057d578063715018a6146105ba57806377645839146105d157806381a4b116146105fc5761020f565b806339b92bbb1161019b5780634fffbe0e1161016a5780634fffbe0e1461045e57806352a3302b1461049b5780636352211e146104d85780636c0360eb146105155780636f2829ba146105405761020f565b806339b92bbb146103cc57806342842e0e146103f557806342966c681461041e5780634311de8f146104475761020f565b80631249c58b116101e25780631249c58b146102e257806322ea00f9146102ec57806323b872dd14610329578063253eca1f146103525780632603f2871461038f5761020f565b806301ffc9a71461021457806306fdde0314610251578063081812fc1461027c578063095ea7b3146102b9575b600080fd5b34801561022057600080fd5b5061023b600480360381019061023691906139cd565b6108ea565b6040516102489190613a15565b60405180910390f35b34801561025d57600080fd5b506102666109cc565b6040516102739190613ac9565b60405180910390f35b34801561028857600080fd5b506102a3600480360381019061029e9190613b21565b610a5e565b6040516102b09190613b8f565b60405180910390f35b3480156102c557600080fd5b506102e060048036038101906102db9190613bd6565b610aa4565b005b6102ea610bbc565b005b3480156102f857600080fd5b50610313600480360381019061030e9190613b21565b610f68565b6040516103209190613c25565b60405180910390f35b34801561033557600080fd5b50610350600480360381019061034b9190613c40565b610f80565b005b34801561035e57600080fd5b5061037960048036038101906103749190613b21565b610fe0565b6040516103869190613c25565b60405180910390f35b34801561039b57600080fd5b506103b660048036038101906103b19190613b21565b610ff8565b6040516103c39190613c25565b60405180910390f35b3480156103d857600080fd5b506103f360048036038101906103ee9190613dc8565b611010565b005b34801561040157600080fd5b5061041c60048036038101906104179190613c40565b611032565b005b34801561042a57600080fd5b5061044560048036038101906104409190613b21565b611052565b005b34801561045357600080fd5b5061045c611337565b005b34801561046a57600080fd5b5061048560048036038101906104809190613b21565b6113f4565b6040516104929190613c25565b60405180910390f35b3480156104a757600080fd5b506104c260048036038101906104bd9190613b21565b61140c565b6040516104cf9190613c25565b60405180910390f35b3480156104e457600080fd5b506104ff60048036038101906104fa9190613b21565b611424565b60405161050c9190613b8f565b60405180910390f35b34801561052157600080fd5b5061052a6114d6565b6040516105379190613ac9565b60405180910390f35b34801561054c57600080fd5b5061056760048036038101906105629190613b21565b611564565b6040516105749190613c25565b60405180910390f35b34801561058957600080fd5b506105a4600480360381019061059f9190613e11565b61157c565b6040516105b19190613c25565b60405180910390f35b3480156105c657600080fd5b506105cf611634565b005b3480156105dd57600080fd5b506105e6611648565b6040516105f39190613ac9565b60405180910390f35b34801561060857600080fd5b50610623600480360381019061061e9190613b21565b6116d6565b6040516106309190613c25565b60405180910390f35b34801561064557600080fd5b50610660600480360381019061065b9190613b21565b6116ee565b60405161066d9190613c25565b60405180910390f35b34801561068257600080fd5b5061068b611706565b6040516106989190613b8f565b60405180910390f35b3480156106ad57600080fd5b506106b6611730565b6040516106c39190613ac9565b60405180910390f35b3480156106d857600080fd5b506106e16117c2565b6040516106ee9190613ac9565b60405180910390f35b34801561070357600080fd5b5061070c611850565b6040516107199190613c25565b60405180910390f35b34801561072e57600080fd5b5061074960048036038101906107449190613e6a565b611856565b005b34801561075757600080fd5b50610772600480360381019061076d9190613b21565b61186c565b60405161077f9190613c25565b60405180910390f35b34801561079457600080fd5b506107af60048036038101906107aa9190613f4b565b611884565b005b3480156107bd57600080fd5b506107d860048036038101906107d39190613b21565b6118e6565b6040516107e59190613ac9565b60405180910390f35b3480156107fa57600080fd5b5061081560048036038101906108109190613b21565b6119f9565b6040516108229190613c25565b60405180910390f35b34801561083757600080fd5b50610852600480360381019061084d9190613bd6565b611a11565b60405161085f9190613c25565b60405180910390f35b610882600480360381019061087d9190613fce565b611a42565b005b34801561089057600080fd5b506108ab60048036038101906108a69190614049565b611bf2565b6040516108b89190613a15565b60405180910390f35b3480156108cd57600080fd5b506108e860048036038101906108e39190613e11565b611c86565b005b60007f80ac58cd000000000000000000000000000000000000000000000000000000007bffffffffffffffffffffffffffffffffffffffffffffffffffffffff1916827bffffffffffffffffffffffffffffffffffffffffffffffffffffffff191614806109b557507f5b5e139f000000000000000000000000000000000000000000000000000000007bffffffffffffffffffffffffffffffffffffffffffffffffffffffff1916827bffffffffffffffffffffffffffffffffffffffffffffffffffffffff1916145b806109c557506109c482611d0a565b5b9050919050565b6060600080546109db906140b8565b80601f0160208091040260200160405190810160405280929190818152602001828054610a07906140b8565b8015610a545780601f10610a2957610100808354040283529160200191610a54565b820191906000526020600020905b815481529060010190602001808311610a3757829003601f168201915b5050505050905090565b6000610a6982611d74565b6004600083815260200190815260200160002060009054906101000a900473ffffffffffffffffffffffffffffffffffffffff169050919050565b6000610aaf82611424565b90508073ffffffffffffffffffffffffffffffffffffffff168373ffffffffffffffffffffffffffffffffffffffff161415610b20576040517f08c379a0000000000000000000000000000000000000000000000000000000008152600401610b179061415c565b60405180910390fd5b8073ffffffffffffffffffffffffffffffffffffffff16610b3f611dbf565b73ffffffffffffffffffffffffffffffffffffffff161480610b6e5750610b6d81610b68611dbf565b611bf2565b5b610bad576040517f08c379a0000000000000000000000000000000000000000000000000000000008152600401610ba4906141ee565b60405180910390fd5b610bb78383611dc7565b505050565b600060095411610bcb57600080fd5b670de0b6b3a7640000341015610be057600080fd5b60006009544233600a54604051602001610bfc93929190614277565b6040516020818303038152906040528051906020012060001c610c1f91906142e3565b9050600a6000815480929190610c3490614343565b919050555060008060005b6103e8811015610cf857600015156022600083815260200190815260200160002060009054906101000a900460ff1615151415610ce55783831415610cd657600181610c8b919061438c565b915060016022600084815260200190815260200160002060006101000a81548160ff02191690831515021790555060096000815480929190610ccc906143e2565b9190505550610cf8565b8280610ce190614343565b9350505b8080610cf090614343565b915050610c3f565b50602160003373ffffffffffffffffffffffffffffffffffffffff1673ffffffffffffffffffffffffffffffffffffffff168152602001908152602001600020819080600181540180825580915050600190039060005260206000200160009091909190915055610d693382611e80565b60018110158015610d7c57506101f48111155b15610d9b57600160236000838152602001908152602001600020819055505b6101f58110158015610daf57506102bc8111155b15610dce57600260236000838152602001908152602001600020819055505b6102bd8110158015610de257506103528111155b15610e0157600360236000838152602001908152602001600020819055505b6103538110158015610e1557506103b68111155b15610e3457600460236000838152602001908152602001600020819055505b6103b78110158015610e4857506103e88111155b15610e6757600560236000838152602001908152602001600020819055505b6023600082815260200190815260200160002054600e6000838152602001908152602001600020819055506001600f60008381526020019081526020016000208190555060016010600083815260200190815260200160002081905550600160116000838152602001908152602001600020819055506001601260008381526020019081526020016000208190555060056013600083815260200190815260200160002081905550600560146000838152602001908152602001600020819055506005601560008381526020019081526020016000208190555060056016600083815260200190815260200160002081905550610f6381611e9e565b505050565b60106020528060005260406000206000915090505481565b610f91610f8b611dbf565b8261221e565b610fd0576040517f08c379a0000000000000000000000000000000000000000000000000000000008152600401610fc79061447e565b60405180910390fd5b610fdb8383836122b3565b505050565b600e6020528060005260406000206000915090505481565b60126020528060005260406000206000915090505481565b61101861251a565b80600c908051906020019061102e92919061387e565b5050565b61104d83838360405180602001604052806000815250611884565b505050565b61105b81611424565b73ffffffffffffffffffffffffffffffffffffffff163373ffffffffffffffffffffffffffffffffffffffff16146110c8576040517f08c379a00000000000000000000000000000000000000000000000000000000081526004016110bf90614510565b60405180910390fd5b60005b602160006110d884611424565b73ffffffffffffffffffffffffffffffffffffffff1673ffffffffffffffffffffffffffffffffffffffff1681526020019081526020016000208054905081101561132a57816021600061112b85611424565b73ffffffffffffffffffffffffffffffffffffffff1673ffffffffffffffffffffffffffffffffffffffff168152602001908152602001600020828154811061117757611176614530565b5b90600052602060002001541415611317576021600061119584611424565b73ffffffffffffffffffffffffffffffffffffffff1673ffffffffffffffffffffffffffffffffffffffff1681526020019081526020016000206001602160006111de86611424565b73ffffffffffffffffffffffffffffffffffffffff1673ffffffffffffffffffffffffffffffffffffffff16815260200190815260200160002080549050611226919061455f565b8154811061123757611236614530565b5b90600052602060002001546021600061124f85611424565b73ffffffffffffffffffffffffffffffffffffffff1673ffffffffffffffffffffffffffffffffffffffff168152602001908152602001600020828154811061129b5761129a614530565b5b9060005260206000200181905550602160006112b684611424565b73ffffffffffffffffffffffffffffffffffffffff1673ffffffffffffffffffffffffffffffffffffffff168152602001908152602001600020805480611300576112ff614593565b5b600190038181906000526020600020016000905590555b808061132290614343565b9150506110cb565b5061133481612612565b50565b61133f61251a565b600033905060008173ffffffffffffffffffffffffffffffffffffffff164760405161136a906145f3565b60006040518083038185875af1925050503d80600081146113a7576040519150601f19603f3d011682016040523d82523d6000602084013e6113ac565b606091505b50509050806113f0576040517f08c379a00000000000000000000000000000000000000000000000000000000081526004016113e790614654565b60405180910390fd5b5050565b60146020528060005260406000206000915090505481565b600f6020528060005260406000206000915090505481565b6000806002600084815260200190815260200160002060009054906101000a900473ffffffffffffffffffffffffffffffffffffffff169050600073ffffffffffffffffffffffffffffffffffffffff168173ffffffffffffffffffffffffffffffffffffffff1614156114cd576040517f08c379a00000000000000000000000000000000000000000000000000000000081526004016114c4906146c0565b60405180910390fd5b80915050919050565b600b80546114e3906140b8565b80601f016020809104026020016040519081016040528092919081815260200182805461150f906140b8565b801561155c5780601f106115315761010080835404028352916020019161155c565b820191906000526020600020905b81548152906001019060200180831161153f57829003601f168201915b505050505081565b60236020528060005260406000206000915090505481565b60008073ffffffffffffffffffffffffffffffffffffffff168273ffffffffffffffffffffffffffffffffffffffff1614156115ed576040517f08c379a00000000000000000000000000000000000000000000000000000000081526004016115e490614752565b60405180910390fd5b600360008373ffffffffffffffffffffffffffffffffffffffff1673ffffffffffffffffffffffffffffffffffffffff168152602001908152602001600020549050919050565b61163c61251a565b6116466000612665565b565b600c8054611655906140b8565b80601f0160208091040260200160405190810160405280929190818152602001828054611681906140b8565b80156116ce5780601f106116a3576101008083540402835291602001916116ce565b820191906000526020600020905b8154815290600101906020018083116116b157829003601f168201915b505050505081565b60166020528060005260406000206000915090505481565b60136020528060005260406000206000915090505481565b6000600860009054906101000a900473ffffffffffffffffffffffffffffffffffffffff16905090565b60606001805461173f906140b8565b80601f016020809104026020016040519081016040528092919081815260200182805461176b906140b8565b80156117b85780601f1061178d576101008083540402835291602001916117b8565b820191906000526020600020905b81548152906001019060200180831161179b57829003601f168201915b5050505050905090565b600d80546117cf906140b8565b80601f01602080910402602001604051908101604052809291908181526020018280546117fb906140b8565b80156118485780601f1061181d57610100808354040283529160200191611848565b820191906000526020600020905b81548152906001019060200180831161182b57829003601f168201915b505050505081565b60095481565b611868611861611dbf565b8383612725565b5050565b60116020528060005260406000206000915090505481565b61189561188f611dbf565b8361221e565b6118d4576040517f08c379a00000000000000000000000000000000000000000000000000000000081526004016118cb9061447e565b60405180910390fd5b6118e084848484612892565b50505050565b60606118f182611d74565b6000600660008481526020019081526020016000208054611911906140b8565b80601f016020809104026020016040519081016040528092919081815260200182805461193d906140b8565b801561198a5780601f1061195f5761010080835404028352916020019161198a565b820191906000526020600020905b81548152906001019060200180831161196d57829003601f168201915b50505050509050600061199b6128ee565b90506000815114156119b15781925050506119f4565b6000825111156119e65780826040516020016119ce9291906147ae565b604051602081830303815290604052925050506119f4565b6119ef84612905565b925050505b919050565b60156020528060005260406000206000915090505481565b60216020528160005260406000208181548110611a2d57600080fd5b90600052602060002001600091509150505481565b611a4b85611424565b73ffffffffffffffffffffffffffffffffffffffff163373ffffffffffffffffffffffffffffffffffffffff1614611a8257600080fd5b60008410158015611a94575060008310155b8015611aa1575060008210155b8015611aae575060008110155b611aed576040517f08c379a0000000000000000000000000000000000000000000000000000000008152600401611ae4906147f5565b60405180910390fd5b67016345785d8a0000600582848688611b06919061438c565b611b10919061438c565b611b1a919061438c565b611b249190614815565b611b2e9190614815565b341015611b3a57600080fd5b83600f60008781526020019081526020016000206000828254611b5d919061438c565b9250508190555082601060008781526020019081526020016000206000828254611b87919061438c565b9250508190555081601160008781526020019081526020016000206000828254611bb1919061438c565b9250508190555080601260008781526020019081526020016000206000828254611bdb919061438c565b92505081905550611beb85611e9e565b5050505050565b6000600560008473ffffffffffffffffffffffffffffffffffffffff1673ffffffffffffffffffffffffffffffffffffffff16815260200190815260200160002060008373ffffffffffffffffffffffffffffffffffffffff1673ffffffffffffffffffffffffffffffffffffffff16815260200190815260200160002060009054906101000a900460ff16905092915050565b611c8e61251a565b600073ffffffffffffffffffffffffffffffffffffffff168173ffffffffffffffffffffffffffffffffffffffff161415611cfe576040517f08c379a0000000000000000000000000000000000000000000000000000000008152600401611cf5906148e1565b60405180910390fd5b611d0781612665565b50565b60007f01ffc9a7000000000000000000000000000000000000000000000000000000007bffffffffffffffffffffffffffffffffffffffffffffffffffffffff1916827bffffffffffffffffffffffffffffffffffffffffffffffffffffffff1916149050919050565b611d7d8161296d565b611dbc576040517f08c379a0000000000000000000000000000000000000000000000000000000008152600401611db3906146c0565b60405180910390fd5b50565b600033905090565b816004600083815260200190815260200160002060006101000a81548173ffffffffffffffffffffffffffffffffffffffff021916908373ffffffffffffffffffffffffffffffffffffffff160217905550808273ffffffffffffffffffffffffffffffffffffffff16611e3a83611424565b73ffffffffffffffffffffffffffffffffffffffff167f8c5be1e5ebec7d5bd14f71427d1e84f3dd0314c0f7b2291e5b200ac8c7c3b92560405160405180910390a45050565b611e9a8282604051806020016040528060008152506129d9565b5050565b6040518061014001604052806040518060400160405280600981526020017f42616c6c536f6e696300000000000000000000000000000000000000000000008152508152602001600e6000848152602001908152602001600020548152602001600f6000848152602001908152602001600020548152602001601060008481526020019081526020016000205481526020016011600084815260200190815260200160002054815260200160126000848152602001908152602001600020548152602001601360008481526020019081526020016000205481526020016014600084815260200190815260200160002054815260200160156000848152602001908152602001600020548152602001601660008481526020019081526020016000205481525060176000820151816000019080519060200190611fe292919061387e565b506020820151816001015560408201518160020155606082015181600301556080820151816004015560a0820151816005015560c0820151816006015560e08201518160070155610100820151816008015561012082015181600901559050506000600c6120626023600085815260200190815260200160002054612a34565b604051602001612073929190614995565b604051602081830303815290604052905060006121ff8361209385611424565b6040518060400160405280600581526020017f3842616c6c000000000000000000000000000000000000000000000000000000815250856040518060400160405280601781526020017f3842616c6c2069732066616e7461737469632067616d6500000000000000000081525060176040518061014001604052908160008201805461211e906140b8565b80601f016020809104026020016040519081016040528092919081815260200182805461214a906140b8565b80156121975780601f1061216c57610100808354040283529160200191612197565b820191906000526020600020905b81548152906001019060200180831161217a57829003601f168201915b505050505081526020016001820154815260200160028201548152602001600382015481526020016004820154815260200160058201548152602001600682015481526020016007820154815260200160088201548152602001600982015481525050612b95565b9050600061220c82612bdf565b90506122188482612c10565b50505050565b60008061222a83611424565b90508073ffffffffffffffffffffffffffffffffffffffff168473ffffffffffffffffffffffffffffffffffffffff16148061226c575061226b8185611bf2565b5b806122aa57508373ffffffffffffffffffffffffffffffffffffffff1661229284610a5e565b73ffffffffffffffffffffffffffffffffffffffff16145b91505092915050565b8273ffffffffffffffffffffffffffffffffffffffff166122d382611424565b73ffffffffffffffffffffffffffffffffffffffff1614612329576040517f08c379a000000000000000000000000000000000000000000000000000000000815260040161232090614a2b565b60405180910390fd5b600073ffffffffffffffffffffffffffffffffffffffff168273ffffffffffffffffffffffffffffffffffffffff161415612399576040517f08c379a000000000000000000000000000000000000000000000000000000000815260040161239090614abd565b60405180910390fd5b6123a4838383612c84565b6123af600082611dc7565b6001600360008573ffffffffffffffffffffffffffffffffffffffff1673ffffffffffffffffffffffffffffffffffffffff16815260200190815260200160002060008282546123ff919061455f565b925050819055506001600360008473ffffffffffffffffffffffffffffffffffffffff1673ffffffffffffffffffffffffffffffffffffffff1681526020019081526020016000206000828254612456919061438c565b92505081905550816002600083815260200190815260200160002060006101000a81548173ffffffffffffffffffffffffffffffffffffffff021916908373ffffffffffffffffffffffffffffffffffffffff160217905550808273ffffffffffffffffffffffffffffffffffffffff168473ffffffffffffffffffffffffffffffffffffffff167fddf252ad1be2c89b69c2b068fc378daa952ba7f163c4a11628f55a4df523b3ef60405160405180910390a4612515838383612c89565b505050565b612522611dbf565b73ffffffffffffffffffffffffffffffffffffffff16600760009054906101000a900473ffffffffffffffffffffffffffffffffffffffff1673ffffffffffffffffffffffffffffffffffffffff1614806125d15750612580611dbf565b73ffffffffffffffffffffffffffffffffffffffff16600860009054906101000a900473ffffffffffffffffffffffffffffffffffffffff1673ffffffffffffffffffffffffffffffffffffffff16145b612610576040517f08c379a000000000000000000000000000000000000000000000000000000000815260040161260790614b29565b60405180910390fd5b565b61261b81612c8e565b600060066000838152602001908152602001600020805461263b906140b8565b905014612662576006600082815260200190815260200160002060006126619190613904565b5b50565b80600860006101000a81548173ffffffffffffffffffffffffffffffffffffffff021916908373ffffffffffffffffffffffffffffffffffffffff1602179055508073ffffffffffffffffffffffffffffffffffffffff16600760009054906101000a900473ffffffffffffffffffffffffffffffffffffffff1673ffffffffffffffffffffffffffffffffffffffff167f8be0079c531659141344cd1fd0a4f28419497f9722a3daafe3b4186f6b6457e060405160405180910390a350565b8173ffffffffffffffffffffffffffffffffffffffff168373ffffffffffffffffffffffffffffffffffffffff161415612794576040517f08c379a000000000000000000000000000000000000000000000000000000000815260040161278b90614b95565b60405180910390fd5b80600560008573ffffffffffffffffffffffffffffffffffffffff1673ffffffffffffffffffffffffffffffffffffffff16815260200190815260200160002060008473ffffffffffffffffffffffffffffffffffffffff1673ffffffffffffffffffffffffffffffffffffffff16815260200190815260200160002060006101000a81548160ff0219169083151502179055508173ffffffffffffffffffffffffffffffffffffffff168373ffffffffffffffffffffffffffffffffffffffff167f17307eab39ab6107e8899845ad3d59bd9653f200f220920489ca2b5937696c31836040516128859190613a15565b60405180910390a3505050565b61289d8484846122b3565b6128a984848484612dab565b6128e8576040517f08c379a00000000000000000000000000000000000000000000000000000000081526004016128df90614c27565b60405180910390fd5b50505050565b606060405180602001604052806000815250905090565b606061291082611d74565b600061291a6128ee565b9050600081511161293a5760405180602001604052806000815250612965565b8061294484612a34565b6040516020016129559291906147ae565b6040516020818303038152906040525b915050919050565b60008073ffffffffffffffffffffffffffffffffffffffff166002600084815260200190815260200160002060009054906101000a900473ffffffffffffffffffffffffffffffffffffffff1673ffffffffffffffffffffffffffffffffffffffff1614159050919050565b6129e38383612f42565b6129f06000848484612dab565b612a2f576040517f08c379a0000000000000000000000000000000000000000000000000000000008152600401612a2690614c27565b60405180910390fd5b505050565b60606000821415612a7c576040518060400160405280600181526020017f30000000000000000000000000000000000000000000000000000000000000008152509050612b90565b600082905060005b60008214612aae578080612a9790614343565b915050600a82612aa79190614c47565b9150612a84565b60008167ffffffffffffffff811115612aca57612ac9613c9d565b5b6040519080825280601f01601f191660200182016040528015612afc5781602001600182028036833780820191505090505b5090505b60008514612b8957600182612b15919061455f565b9150600a85612b2491906142e3565b6030612b30919061438c565b60f81b818381518110612b4657612b45614530565b5b60200101907effffffffffffffffffffffffffffffffffffffffffffffffffffffffffffff1916908160001a905350600a85612b829190614c47565b9450612b00565b8093505050505b919050565b60606000612ba6888888888861311c565b905080612bb284613177565b604051602001612bc3929190614d10565b6040516020818303038152906040529150509695505050505050565b6060612bea82613263565b604051602001612bfa9190614d96565b6040516020818303038152906040529050919050565b612c198261296d565b612c58576040517f08c379a0000000000000000000000000000000000000000000000000000000008152600401612c4f90614e2a565b60405180910390fd5b80600660008481526020019081526020016000209080519060200190612c7f92919061387e565b505050565b505050565b505050565b6000612c9982611424565b9050612ca781600084612c84565b612cb2600083611dc7565b6001600360008373ffffffffffffffffffffffffffffffffffffffff1673ffffffffffffffffffffffffffffffffffffffff1681526020019081526020016000206000828254612d02919061455f565b925050819055506002600083815260200190815260200160002060006101000a81549073ffffffffffffffffffffffffffffffffffffffff021916905581600073ffffffffffffffffffffffffffffffffffffffff168273ffffffffffffffffffffffffffffffffffffffff167fddf252ad1be2c89b69c2b068fc378daa952ba7f163c4a11628f55a4df523b3ef60405160405180910390a4612da781600084612c89565b5050565b6000612dcc8473ffffffffffffffffffffffffffffffffffffffff166133c7565b15612f35578373ffffffffffffffffffffffffffffffffffffffff1663150b7a02612df5611dbf565b8786866040518563ffffffff1660e01b8152600401612e179493929190614e9f565b602060405180830381600087803b158015612e3157600080fd5b505af1925050508015612e6257506040513d601f19601f82011682018060405250810190612e5f9190614f00565b60015b612ee5573d8060008114612e92576040519150601f19603f3d011682016040523d82523d6000602084013e612e97565b606091505b50600081511415612edd576040517f08c379a0000000000000000000000000000000000000000000000000000000008152600401612ed490614c27565b60405180910390fd5b805181602001fd5b63150b7a0260e01b7bffffffffffffffffffffffffffffffffffffffffffffffffffffffff1916817bffffffffffffffffffffffffffffffffffffffffffffffffffffffff191614915050612f3a565b600190505b949350505050565b600073ffffffffffffffffffffffffffffffffffffffff168273ffffffffffffffffffffffffffffffffffffffff161415612fb2576040517f08c379a0000000000000000000000000000000000000000000000000000000008152600401612fa990614f79565b60405180910390fd5b612fbb8161296d565b15612ffb576040517f08c379a0000000000000000000000000000000000000000000000000000000008152600401612ff290614fe5565b60405180910390fd5b61300760008383612c84565b6001600360008473ffffffffffffffffffffffffffffffffffffffff1673ffffffffffffffffffffffffffffffffffffffff1681526020019081526020016000206000828254613057919061438c565b92505081905550816002600083815260200190815260200160002060006101000a81548173ffffffffffffffffffffffffffffffffffffffff021916908373ffffffffffffffffffffffffffffffffffffffff160217905550808273ffffffffffffffffffffffffffffffffffffffff16600073ffffffffffffffffffffffffffffffffffffffff167fddf252ad1be2c89b69c2b068fc378daa952ba7f163c4a11628f55a4df523b3ef60405160405180910390a461311860008383612c89565b5050565b606083613128876133ea565b83856131498973ffffffffffffffffffffffffffffffffffffffff166134c2565b60405160200161315d9594939291906151cd565b604051602081830303815290604052905095945050505050565b6060600060405180602001604052806000815250905060008184600001516131a286602001516133ea565b6131af87604001516133ea565b6131bc88606001516133ea565b6131c989608001516133ea565b6131d68a60a001516133ea565b6131e38b60c001516133ea565b6131f08c60e001516133ea565b6131fe8d61010001516133ea565b61320c8e61012001516133ea565b6040516020016132269b9a999897969594939291906155ca565b60405160208183030381529060405290508091508160405160200161324b919061578b565b60405160208183030381529060405292505050919050565b6060600082511415613286576040518060200160405280600081525090506133c2565b600060405180606001604052806040815260200161581a60409139905060006003600285516132b5919061438c565b6132bf9190614c47565b60046132cb9190614815565b67ffffffffffffffff8111156132e4576132e3613c9d565b5b6040519080825280601f01601f1916602001820160405280156133165781602001600182028036833780820191505090505b509050600182016020820185865187015b80821015613382576003820191508151603f8160121c168501518453600184019350603f81600c1c168501518453600184019350603f8160061c168501518453600184019350603f8116850151845360018401935050613327565b505060038651066001811461339e57600281146133b1576133b9565b603d6001830353603d60028303536133b9565b603d60018303535b50505080925050505b919050565b6000808273ffffffffffffffffffffffffffffffffffffffff163b119050919050565b6060600060016133f9846134ef565b01905060008167ffffffffffffffff81111561341857613417613c9d565b5b6040519080825280601f01601f19166020018201604052801561344a5781602001600182028036833780820191505090505b509050600082602001820190505b6001156134b7578080600190039150507f3031323334353637383961626364656600000000000000000000000000000000600a86061a8153600a85816134a1576134a06142b4565b5b04945060008514156134b2576134b7565b613458565b819350505050919050565b60606134e88273ffffffffffffffffffffffffffffffffffffffff16601460ff16613642565b9050919050565b600080600090507a184f03e93ff9f4daa797ed6e38ed64bf6a1f010000000000000000831061354d577a184f03e93ff9f4daa797ed6e38ed64bf6a1f0100000000000000008381613543576135426142b4565b5b0492506040810190505b6d04ee2d6d415b85acef8100000000831061358a576d04ee2d6d415b85acef810000000083816135805761357f6142b4565b5b0492506020810190505b662386f26fc1000083106135b957662386f26fc1000083816135af576135ae6142b4565b5b0492506010810190505b6305f5e10083106135e2576305f5e10083816135d8576135d76142b4565b5b0492506008810190505b61271083106136075761271083816135fd576135fc6142b4565b5b0492506004810190505b6064831061362a57606483816136205761361f6142b4565b5b0492506002810190505b600a8310613639576001810190505b80915050919050565b6060600060028360026136559190614815565b61365f919061438c565b67ffffffffffffffff81111561367857613677613c9d565b5b6040519080825280601f01601f1916602001820160405280156136aa5781602001600182028036833780820191505090505b5090507f3000000000000000000000000000000000000000000000000000000000000000816000815181106136e2576136e1614530565b5b60200101907effffffffffffffffffffffffffffffffffffffffffffffffffffffffffffff1916908160001a9053507f78000000000000000000000000000000000000000000000000000000000000008160018151811061374657613745614530565b5b60200101907effffffffffffffffffffffffffffffffffffffffffffffffffffffffffffff1916908160001a905350600060018460026137869190614815565b613790919061438c565b90505b6001811115613830577f3031323334353637383961626364656600000000000000000000000000000000600f8616601081106137d2576137d1614530565b5b1a60f81b8282815181106137e9576137e8614530565b5b60200101907effffffffffffffffffffffffffffffffffffffffffffffffffffffffffffff1916908160001a905350600485901c945080613829906143e2565b9050613793565b5060008414613874576040517f08c379a000000000000000000000000000000000000000000000000000000000815260040161386b906157f9565b60405180910390fd5b8091505092915050565b82805461388a906140b8565b90600052602060002090601f0160209004810192826138ac57600085556138f3565b82601f106138c557805160ff19168380011785556138f3565b828001600101855582156138f3579182015b828111156138f25782518255916020019190600101906138d7565b5b5090506139009190613944565b5090565b508054613910906140b8565b6000825580601f106139225750613941565b601f0160209004906000526020600020908101906139409190613944565b5b50565b5b8082111561395d576000816000905550600101613945565b5090565b6000604051905090565b600080fd5b600080fd5b60007fffffffff0000000000000000000000000000000000000000000000000000000082169050919050565b6139aa81613975565b81146139b557600080fd5b50565b6000813590506139c7816139a1565b92915050565b6000602082840312156139e3576139e261396b565b5b60006139f1848285016139b8565b91505092915050565b60008115159050919050565b613a0f816139fa565b82525050565b6000602082019050613a2a6000830184613a06565b92915050565b600081519050919050565b600082825260208201905092915050565b60005b83811015613a6a578082015181840152602081019050613a4f565b83811115613a79576000848401525b50505050565b6000601f19601f8301169050919050565b6000613a9b82613a30565b613aa58185613a3b565b9350613ab5818560208601613a4c565b613abe81613a7f565b840191505092915050565b60006020820190508181036000830152613ae38184613a90565b905092915050565b6000819050919050565b613afe81613aeb565b8114613b0957600080fd5b50565b600081359050613b1b81613af5565b92915050565b600060208284031215613b3757613b3661396b565b5b6000613b4584828501613b0c565b91505092915050565b600073ffffffffffffffffffffffffffffffffffffffff82169050919050565b6000613b7982613b4e565b9050919050565b613b8981613b6e565b82525050565b6000602082019050613ba46000830184613b80565b92915050565b613bb381613b6e565b8114613bbe57600080fd5b50565b600081359050613bd081613baa565b92915050565b60008060408385031215613bed57613bec61396b565b5b6000613bfb85828601613bc1565b9250506020613c0c85828601613b0c565b9150509250929050565b613c1f81613aeb565b82525050565b6000602082019050613c3a6000830184613c16565b92915050565b600080600060608486031215613c5957613c5861396b565b5b6000613c6786828701613bc1565b9350506020613c7886828701613bc1565b9250506040613c8986828701613b0c565b9150509250925092565b600080fd5b600080fd5b7f4e487b7100000000000000000000000000000000000000000000000000000000600052604160045260246000fd5b613cd582613a7f565b810181811067ffffffffffffffff82111715613cf457613cf3613c9d565b5b80604052505050565b6000613d07613961565b9050613d138282613ccc565b919050565b600067ffffffffffffffff821115613d3357613d32613c9d565b5b613d3c82613a7f565b9050602081019050919050565b82818337600083830152505050565b6000613d6b613d6684613d18565b613cfd565b905082815260208101848484011115613d8757613d86613c98565b5b613d92848285613d49565b509392505050565b600082601f830112613daf57613dae613c93565b5b8135613dbf848260208601613d58565b91505092915050565b600060208284031215613dde57613ddd61396b565b5b600082013567ffffffffffffffff811115613dfc57613dfb613970565b5b613e0884828501613d9a565b91505092915050565b600060208284031215613e2757613e2661396b565b5b6000613e3584828501613bc1565b91505092915050565b613e47816139fa565b8114613e5257600080fd5b50565b600081359050613e6481613e3e565b92915050565b60008060408385031215613e8157613e8061396b565b5b6000613e8f85828601613bc1565b9250506020613ea085828601613e55565b9150509250929050565b600067ffffffffffffffff821115613ec557613ec4613c9d565b5b613ece82613a7f565b9050602081019050919050565b6000613eee613ee984613eaa565b613cfd565b905082815260208101848484011115613f0a57613f09613c98565b5b613f15848285613d49565b509392505050565b600082601f830112613f3257613f31613c93565b5b8135613f42848260208601613edb565b91505092915050565b60008060008060808587031215613f6557613f6461396b565b5b6000613f7387828801613bc1565b9450506020613f8487828801613bc1565b9350506040613f9587828801613b0c565b925050606085013567ffffffffffffffff811115613fb657613fb5613970565b5b613fc287828801613f1d565b91505092959194509250565b600080600080600060a08688031215613fea57613fe961396b565b5b6000613ff888828901613b0c565b955050602061400988828901613b0c565b945050604061401a88828901613b0c565b935050606061402b88828901613b0c565b925050608061403c88828901613b0c565b9150509295509295909350565b600080604083850312156140605761405f61396b565b5b600061406e85828601613bc1565b925050602061407f85828601613bc1565b9150509250929050565b7f4e487b7100000000000000000000000000000000000000000000000000000000600052602260045260246000fd5b600060028204905060018216806140d057607f821691505b602082108114156140e4576140e3614089565b5b50919050565b7f4552433732313a20617070726f76616c20746f2063757272656e74206f776e6560008201527f7200000000000000000000000000000000000000000000000000000000000000602082015250565b6000614146602183613a3b565b9150614151826140ea565b604082019050919050565b6000602082019050818103600083015261417581614139565b9050919050565b7f4552433732313a20617070726f76652063616c6c6572206973206e6f7420746f60008201527f6b656e206f776e6572206e6f7220617070726f76656420666f7220616c6c0000602082015250565b60006141d8603e83613a3b565b91506141e38261417c565b604082019050919050565b60006020820190508181036000830152614207816141cb565b9050919050565b6000819050919050565b61422961422482613aeb565b61420e565b82525050565b60008160601b9050919050565b60006142478261422f565b9050919050565b60006142598261423c565b9050919050565b61427161426c82613b6e565b61424e565b82525050565b60006142838286614218565b6020820191506142938285614260565b6014820191506142a38284614218565b602082019150819050949350505050565b7f4e487b7100000000000000000000000000000000000000000000000000000000600052601260045260246000fd5b60006142ee82613aeb565b91506142f983613aeb565b925082614309576143086142b4565b5b828206905092915050565b7f4e487b7100000000000000000000000000000000000000000000000000000000600052601160045260246000fd5b600061434e82613aeb565b91507fffffffffffffffffffffffffffffffffffffffffffffffffffffffffffffffff82141561438157614380614314565b5b600182019050919050565b600061439782613aeb565b91506143a283613aeb565b9250827fffffffffffffffffffffffffffffffffffffffffffffffffffffffffffffffff038211156143d7576143d6614314565b5b828201905092915050565b60006143ed82613aeb565b9150600082141561440157614400614314565b5b600182039050919050565b7f4552433732313a2063616c6c6572206973206e6f7420746f6b656e206f776e6560008201527f72206e6f7220617070726f766564000000000000000000000000000000000000602082015250565b6000614468602e83613a3b565b91506144738261440c565b604082019050919050565b600060208201905081810360008301526144978161445b565b9050919050565b7f4f6e6c7920746865206f776e6572206f66204e46542063616e207472616e736660008201527f6572206f722062756e7420697400000000000000000000000000000000000000602082015250565b60006144fa602d83613a3b565b91506145058261449e565b604082019050919050565b60006020820190508181036000830152614529816144ed565b9050919050565b7f4e487b7100000000000000000000000000000000000000000000000000000000600052603260045260246000fd5b600061456a82613aeb565b915061457583613aeb565b92508282101561458857614587614314565b5b828203905092915050565b7f4e487b7100000000000000000000000000000000000000000000000000000000600052603160045260246000fd5b600081905092915050565b50565b60006145dd6000836145c2565b91506145e8826145cd565b600082019050919050565b60006145fe826145d0565b9150819050919050565b7f5769746864726177206661696c00000000000000000000000000000000000000600082015250565b600061463e600d83613a3b565b915061464982614608565b602082019050919050565b6000602082019050818103600083015261466d81614631565b9050919050565b7f4552433732313a20696e76616c696420746f6b656e2049440000000000000000600082015250565b60006146aa601883613a3b565b91506146b582614674565b602082019050919050565b600060208201905081810360008301526146d98161469d565b9050919050565b7f4552433732313a2061646472657373207a65726f206973206e6f74206120766160008201527f6c6964206f776e65720000000000000000000000000000000000000000000000602082015250565b600061473c602983613a3b565b9150614747826146e0565b604082019050919050565b6000602082019050818103600083015261476b8161472f565b9050919050565b600081905092915050565b600061478882613a30565b6147928185614772565b93506147a2818560208601613a4c565b80840191505092915050565b60006147ba828561477d565b91506147c6828461477d565b91508190509392505050565b60006147df600083613a3b565b91506147ea826145cd565b600082019050919050565b6000602082019050818103600083015261480e816147d2565b9050919050565b600061482082613aeb565b915061482b83613aeb565b9250817fffffffffffffffffffffffffffffffffffffffffffffffffffffffffffffffff048311821515161561486457614863614314565b5b828202905092915050565b7f4f776e61626c653a206e6577206f776e657220697320746865207a65726f206160008201527f6464726573730000000000000000000000000000000000000000000000000000602082015250565b60006148cb602683613a3b565b91506148d68261486f565b604082019050919050565b600060208201905081810360008301526148fa816148be565b9050919050565b60008190508160005260206000209050919050565b60008154614923816140b8565b61492d8186614772565b9450600182166000811461494857600181146149595761498c565b60ff1983168652818601935061498c565b61496285614901565b60005b8381101561498457815481890152600182019150602081019050614965565b838801955050505b50505092915050565b60006149a18285614916565b91506149ad828461477d565b91508190509392505050565b7f4552433732313a207472616e736665722066726f6d20696e636f72726563742060008201527f6f776e6572000000000000000000000000000000000000000000000000000000602082015250565b6000614a15602583613a3b565b9150614a20826149b9565b604082019050919050565b60006020820190508181036000830152614a4481614a08565b9050919050565b7f4552433732313a207472616e7366657220746f20746865207a65726f2061646460008201527f7265737300000000000000000000000000000000000000000000000000000000602082015250565b6000614aa7602483613a3b565b9150614ab282614a4b565b604082019050919050565b60006020820190508181036000830152614ad681614a9a565b9050919050565b7f4f776e61626c653a2063616c6c6572206973206e6f7420746865206f776e6572600082015250565b6000614b13602083613a3b565b9150614b1e82614add565b602082019050919050565b60006020820190508181036000830152614b4281614b06565b9050919050565b7f4552433732313a20617070726f766520746f2063616c6c657200000000000000600082015250565b6000614b7f601983613a3b565b9150614b8a82614b49565b602082019050919050565b60006020820190508181036000830152614bae81614b72565b9050919050565b7f4552433732313a207472616e7366657220746f206e6f6e20455243373231526560008201527f63656976657220696d706c656d656e7465720000000000000000000000000000602082015250565b6000614c11603283613a3b565b9150614c1c82614bb5565b604082019050919050565b60006020820190508181036000830152614c4081614c04565b9050919050565b6000614c5282613aeb565b9150614c5d83613aeb565b925082614c6d57614c6c6142b4565b5b828204905092915050565b7f7b00000000000000000000000000000000000000000000000000000000000000600082015250565b6000614cae600183614772565b9150614cb982614c78565b600182019050919050565b7f7d00000000000000000000000000000000000000000000000000000000000000600082015250565b6000614cfa600183614772565b9150614d0582614cc4565b600182019050919050565b6000614d1b82614ca1565b9150614d27828561477d565b9150614d33828461477d565b9150614d3e82614ced565b91508190509392505050565b7f646174613a6170706c69636174696f6e2f6a736f6e3b6261736536342c000000600082015250565b6000614d80601d83614772565b9150614d8b82614d4a565b601d82019050919050565b6000614da182614d73565b9150614dad828461477d565b915081905092915050565b7f45524337323155524953746f726167653a2055524920736574206f66206e6f6e60008201527f6578697374656e7420746f6b656e000000000000000000000000000000000000602082015250565b6000614e14602e83613a3b565b9150614e1f82614db8565b604082019050919050565b60006020820190508181036000830152614e4381614e07565b9050919050565b600081519050919050565b600082825260208201905092915050565b6000614e7182614e4a565b614e7b8185614e55565b9350614e8b818560208601613a4c565b614e9481613a7f565b840191505092915050565b6000608082019050614eb46000830187613b80565b614ec16020830186613b80565b614ece6040830185613c16565b8181036060830152614ee08184614e66565b905095945050505050565b600081519050614efa816139a1565b92915050565b600060208284031215614f1657614f1561396b565b5b6000614f2484828501614eeb565b91505092915050565b7f4552433732313a206d696e7420746f20746865207a65726f2061646472657373600082015250565b6000614f63602083613a3b565b9150614f6e82614f2d565b602082019050919050565b60006020820190508181036000830152614f9281614f56565b9050919050565b7f4552433732313a20746f6b656e20616c7265616479206d696e74656400000000600082015250565b6000614fcf601c83613a3b565b9150614fda82614f99565b602082019050919050565b60006020820190508181036000830152614ffe81614fc2565b9050919050565b7f226e616d65223a22000000000000000000000000000000000000000000000000600082015250565b600061503b600883614772565b915061504682615005565b600882019050919050565b7f222c000000000000000000000000000000000000000000000000000000000000600082015250565b6000615087600283614772565b915061509282615051565b600282019050919050565b7f22746f6b656e4964223a22000000000000000000000000000000000000000000600082015250565b60006150d3600b83614772565b91506150de8261509d565b600b82019050919050565b7f226465736372697074696f6e223a220000000000000000000000000000000000600082015250565b600061511f600f83614772565b915061512a826150e9565b600f82019050919050565b7f22696d616765223a220000000000000000000000000000000000000000000000600082015250565b600061516b600983614772565b915061517682615135565b600982019050919050565b7f226f776e6572223a220000000000000000000000000000000000000000000000600082015250565b60006151b7600983614772565b91506151c282615181565b600982019050919050565b60006151d88261502e565b91506151e4828861477d565b91506151ef8261507a565b91506151fa826150c6565b9150615206828761477d565b91506152118261507a565b915061521c82615112565b9150615228828661477d565b91506152338261507a565b915061523e8261515e565b915061524a828561477d565b91506152558261507a565b9150615260826151aa565b915061526c828461477d565b91506152778261507a565b91508190509695505050505050565b7f7b226d696e7454797065223a2200000000000000000000000000000000000000600082015250565b60006152bc600d83614772565b91506152c782615286565b600d82019050919050565b7f2263617465676f7279223a000000000000000000000000000000000000000000600082015250565b6000615308600b83614772565b9150615313826152d2565b600b82019050919050565b7f2c00000000000000000000000000000000000000000000000000000000000000600082015250565b6000615354600183614772565b915061535f8261531e565b600182019050919050565b7f2263757272656e74506f7765724c766c223a0000000000000000000000000000600082015250565b60006153a0601283614772565b91506153ab8261536a565b601282019050919050565b7f2263757272656e7441636375726163794c766c223a0000000000000000000000600082015250565b60006153ec601583614772565b91506153f7826153b6565b601582019050919050565b7f2263757272656e745370696e4c766c223a000000000000000000000000000000600082015250565b6000615438601183614772565b915061544382615402565b601182019050919050565b7f2263757272656e7454696d654c766c223a000000000000000000000000000000600082015250565b6000615484601183614772565b915061548f8261544e565b601182019050919050565b7f226d6178506f7765724c766c223a000000000000000000000000000000000000600082015250565b60006154d0600e83614772565b91506154db8261549a565b600e82019050919050565b7f226d617841636375726163794c766c223a000000000000000000000000000000600082015250565b600061551c601183614772565b9150615527826154e6565b601182019050919050565b7f226d61785370696e4c766c223a00000000000000000000000000000000000000600082015250565b6000615568600d83614772565b915061557382615532565b600d82019050919050565b7f226d617854696d654c766c223a00000000000000000000000000000000000000600082015250565b60006155b4600d83614772565b91506155bf8261557e565b600d82019050919050565b60006155d6828e61477d565b91506155e1826152af565b91506155ed828d61477d565b91506155f88261507a565b9150615603826152fb565b915061560f828c61477d565b915061561a82615347565b915061562582615393565b9150615631828b61477d565b915061563c82615347565b9150615647826153df565b9150615653828a61477d565b915061565e82615347565b91506156698261542b565b9150615675828961477d565b915061568082615347565b915061568b82615477565b9150615697828861477d565b91506156a282615347565b91506156ad826154c3565b91506156b9828761477d565b91506156c482615347565b91506156cf8261550f565b91506156db828661477d565b91506156e682615347565b91506156f18261555b565b91506156fd828561477d565b915061570882615347565b9150615713826155a7565b915061571f828461477d565b915061572a82614ced565b91508190509c9b505050505050505050505050565b7f2261747472696275746573223a00000000000000000000000000000000000000600082015250565b6000615775600d83614772565b91506157808261573f565b600d82019050919050565b600061579682615768565b91506157a2828461477d565b915081905092915050565b7f537472696e67733a20686578206c656e67746820696e73756666696369656e74600082015250565b60006157e3602083613a3b565b91506157ee826157ad565b602082019050919050565b60006020820190508181036000830152615812816157d6565b905091905056fe4142434445464748494a4b4c4d4e4f505152535455565758595a6162636465666768696a6b6c6d6e6f707172737475767778797a303132333435363738392b2fa2646970667358221220c1914b05635b6d2d5971913d55dcbc7243c137ed6258bce0ae2352bf8fd89bb664736f6c63430008090033",
  "linkReferences": {},
  "deployedLinkReferences": {}
}